{
  "contractName": "SmartEstate",
  "abi": [
    {
      "inputs": [],
      "stateMutability": "nonpayable",
      "type": "constructor"
    },
    {
      "anonymous": false,
      "inputs": [
        {
          "indexed": true,
          "internalType": "address",
          "name": "owner",
          "type": "address"
        },
        {
          "indexed": true,
          "internalType": "address",
          "name": "approved",
          "type": "address"
        },
        {
          "indexed": true,
          "internalType": "uint256",
          "name": "tokenId",
          "type": "uint256"
        }
      ],
      "name": "Approval",
      "type": "event"
    },
    {
      "anonymous": false,
      "inputs": [
        {
          "indexed": true,
          "internalType": "address",
          "name": "owner",
          "type": "address"
        },
        {
          "indexed": true,
          "internalType": "address",
          "name": "operator",
          "type": "address"
        },
        {
          "indexed": false,
          "internalType": "bool",
          "name": "approved",
          "type": "bool"
        }
      ],
      "name": "ApprovalForAll",
      "type": "event"
    },
    {
      "anonymous": false,
      "inputs": [
        {
          "indexed": true,
          "internalType": "address",
          "name": "from",
          "type": "address"
        },
        {
          "indexed": true,
          "internalType": "address",
          "name": "to",
          "type": "address"
        },
        {
          "indexed": true,
          "internalType": "uint256",
          "name": "tokenId",
          "type": "uint256"
        }
      ],
      "name": "Transfer",
      "type": "event"
    },
    {
      "anonymous": false,
      "inputs": [
        {
          "indexed": false,
          "internalType": "address",
          "name": "BuyerAddress",
          "type": "address"
        },
        {
          "indexed": false,
          "internalType": "address",
          "name": "OwnerAddress",
          "type": "address"
        },
        {
          "indexed": false,
          "internalType": "uint256",
          "name": "PropertyId_TokenId",
          "type": "uint256"
        },
        {
          "indexed": false,
          "internalType": "uint256",
          "name": "Value",
          "type": "uint256"
        },
        {
          "indexed": false,
          "internalType": "bool",
          "name": "saleStatus",
          "type": "bool"
        }
      ],
      "name": "TransferList",
      "type": "event"
    },
    {
      "anonymous": false,
      "inputs": [
        {
          "indexed": false,
          "internalType": "uint256",
          "name": "buyerId",
          "type": "uint256"
        },
        {
          "indexed": false,
          "internalType": "address",
          "name": "buyerAddress",
          "type": "address"
        },
        {
          "indexed": false,
          "internalType": "uint256",
          "name": "buyerOffer",
          "type": "uint256"
        },
        {
          "indexed": false,
          "internalType": "enum SmartEstate.offerApproval",
          "name": "request",
          "type": "uint8"
        },
        {
          "indexed": false,
          "internalType": "uint256",
          "name": "PropertyId_TokenId",
          "type": "uint256"
        }
      ],
      "name": "buyer_Info",
      "type": "event"
    },
    {
      "anonymous": false,
      "inputs": [
        {
          "indexed": false,
          "internalType": "uint256",
          "name": "",
          "type": "uint256"
        }
      ],
      "name": "property_Pricing",
      "type": "event"
    },
    {
      "anonymous": false,
      "inputs": [
        {
          "indexed": false,
          "internalType": "address",
          "name": "useraddress",
          "type": "address"
        },
        {
          "indexed": false,
          "internalType": "uint256",
          "name": "propertyId",
          "type": "uint256"
        },
        {
          "indexed": false,
          "internalType": "string",
          "name": "propertyAddress",
          "type": "string"
        },
        {
          "indexed": false,
          "internalType": "string",
          "name": "city",
          "type": "string"
        },
        {
          "indexed": false,
          "internalType": "uint256",
          "name": "room",
          "type": "uint256"
        },
        {
          "indexed": false,
          "internalType": "string",
          "name": "area",
          "type": "string"
        },
        {
          "indexed": false,
          "internalType": "string",
          "name": "propertyType",
          "type": "string"
        },
        {
          "indexed": false,
          "internalType": "uint256",
          "name": "price",
          "type": "uint256"
        },
        {
          "indexed": false,
          "internalType": "string",
          "name": "image",
          "type": "string"
        },
        {
          "indexed": false,
          "internalType": "bool",
          "name": "saleStatus",
          "type": "bool"
        }
      ],
      "name": "property_detail",
      "type": "event"
    },
    {
      "anonymous": false,
      "inputs": [
        {
          "indexed": false,
          "internalType": "bool",
          "name": "",
          "type": "bool"
        }
      ],
      "name": "saleStatus",
      "type": "event"
    },
    {
      "inputs": [
        {
          "internalType": "uint256",
          "name": "",
          "type": "uint256"
        },
        {
          "internalType": "uint256",
          "name": "",
          "type": "uint256"
        }
      ],
      "name": "AllBuyers",
      "outputs": [
        {
          "internalType": "uint256",
          "name": "bId",
          "type": "uint256"
        },
        {
          "internalType": "address",
          "name": "buyerAddress",
          "type": "address"
        },
        {
          "internalType": "uint256",
          "name": "buyerOffer",
          "type": "uint256"
        },
        {
          "internalType": "enum SmartEstate.offerApproval",
          "name": "request",
          "type": "uint8"
        },
        {
          "internalType": "uint256",
          "name": "ApplyForToken",
          "type": "uint256"
        }
      ],
      "stateMutability": "view",
      "type": "function",
      "constant": true
    },
    {
      "inputs": [
        {
          "internalType": "address",
          "name": "",
          "type": "address"
        }
      ],
      "name": "BuyerList",
      "outputs": [
        {
          "internalType": "uint256",
          "name": "bId",
          "type": "uint256"
        },
        {
          "internalType": "address",
          "name": "buyerAddress",
          "type": "address"
        },
        {
          "internalType": "uint256",
          "name": "buyerOffer",
          "type": "uint256"
        },
        {
          "internalType": "enum SmartEstate.offerApproval",
          "name": "request",
          "type": "uint8"
        },
        {
          "internalType": "uint256",
          "name": "ApplyForToken",
          "type": "uint256"
        }
      ],
      "stateMutability": "view",
      "type": "function",
      "constant": true
    },
    {
      "inputs": [
        {
          "internalType": "uint256",
          "name": "",
          "type": "uint256"
        }
      ],
      "name": "Offers",
      "outputs": [
        {
          "internalType": "bool",
          "name": "",
          "type": "bool"
        }
      ],
      "stateMutability": "view",
      "type": "function",
      "constant": true
    },
    {
      "inputs": [
        {
          "internalType": "address",
          "name": "",
          "type": "address"
        }
      ],
      "name": "OnlyOwner",
      "outputs": [
        {
          "internalType": "address",
          "name": "sellerAddress",
          "type": "address"
        },
        {
          "internalType": "uint256",
          "name": "propertyId",
          "type": "uint256"
        },
        {
          "internalType": "string",
          "name": "propertyAddress",
          "type": "string"
        },
        {
          "internalType": "string",
          "name": "city",
          "type": "string"
        },
        {
          "internalType": "uint256",
          "name": "room",
          "type": "uint256"
        },
        {
          "internalType": "string",
          "name": "area",
          "type": "string"
        },
        {
          "internalType": "string",
          "name": "propertyType",
          "type": "string"
        },
        {
          "internalType": "uint256",
          "name": "price",
          "type": "uint256"
        },
        {
          "internalType": "string",
          "name": "image",
          "type": "string"
        },
        {
          "internalType": "bool",
          "name": "saleStatus",
          "type": "bool"
        }
      ],
      "stateMutability": "view",
      "type": "function",
      "constant": true
    },
    {
      "inputs": [
        {
          "internalType": "uint256",
          "name": "",
          "type": "uint256"
        }
      ],
      "name": "PropertyList",
      "outputs": [
        {
          "internalType": "address",
          "name": "",
          "type": "address"
        }
      ],
      "stateMutability": "view",
      "type": "function",
      "constant": true
    },
    {
      "inputs": [
        {
          "internalType": "address",
          "name": "to",
          "type": "address"
        },
        {
          "internalType": "uint256",
          "name": "tokenId",
          "type": "uint256"
        }
      ],
      "name": "approve",
      "outputs": [],
      "stateMutability": "nonpayable",
      "type": "function"
    },
    {
      "inputs": [
        {
          "internalType": "address",
          "name": "owner",
          "type": "address"
        }
      ],
      "name": "balanceOf",
      "outputs": [
        {
          "internalType": "uint256",
          "name": "",
          "type": "uint256"
        }
      ],
      "stateMutability": "view",
      "type": "function",
      "constant": true
    },
    {
      "inputs": [],
      "name": "baseURI",
      "outputs": [
        {
          "internalType": "string",
          "name": "",
          "type": "string"
        }
      ],
      "stateMutability": "view",
      "type": "function",
      "constant": true
    },
    {
      "inputs": [
        {
          "internalType": "uint256",
          "name": "tokenId",
          "type": "uint256"
        }
      ],
      "name": "getApproved",
      "outputs": [
        {
          "internalType": "address",
          "name": "",
          "type": "address"
        }
      ],
      "stateMutability": "view",
      "type": "function",
      "constant": true
    },
    {
      "inputs": [
        {
          "internalType": "address",
          "name": "owner",
          "type": "address"
        },
        {
          "internalType": "address",
          "name": "operator",
          "type": "address"
        }
      ],
      "name": "isApprovedForAll",
      "outputs": [
        {
          "internalType": "bool",
          "name": "",
          "type": "bool"
        }
      ],
      "stateMutability": "view",
      "type": "function",
      "constant": true
    },
    {
      "inputs": [],
      "name": "name",
      "outputs": [
        {
          "internalType": "string",
          "name": "",
          "type": "string"
        }
      ],
      "stateMutability": "view",
      "type": "function",
      "constant": true
    },
    {
      "inputs": [
        {
          "internalType": "uint256",
          "name": "tokenId",
          "type": "uint256"
        }
      ],
      "name": "ownerOf",
      "outputs": [
        {
          "internalType": "address",
          "name": "",
          "type": "address"
        }
      ],
      "stateMutability": "view",
      "type": "function",
      "constant": true
    },
    {
      "inputs": [
        {
          "internalType": "address",
          "name": "from",
          "type": "address"
        },
        {
          "internalType": "address",
          "name": "to",
          "type": "address"
        },
        {
          "internalType": "uint256",
          "name": "tokenId",
          "type": "uint256"
        }
      ],
      "name": "safeTransferFrom",
      "outputs": [],
      "stateMutability": "nonpayable",
      "type": "function"
    },
    {
      "inputs": [
        {
          "internalType": "address",
          "name": "from",
          "type": "address"
        },
        {
          "internalType": "address",
          "name": "to",
          "type": "address"
        },
        {
          "internalType": "uint256",
          "name": "tokenId",
          "type": "uint256"
        },
        {
          "internalType": "bytes",
          "name": "_data",
          "type": "bytes"
        }
      ],
      "name": "safeTransferFrom",
      "outputs": [],
      "stateMutability": "nonpayable",
      "type": "function"
    },
    {
      "inputs": [
        {
          "internalType": "address",
          "name": "operator",
          "type": "address"
        },
        {
          "internalType": "bool",
          "name": "approved",
          "type": "bool"
        }
      ],
      "name": "setApprovalForAll",
      "outputs": [],
      "stateMutability": "nonpayable",
      "type": "function"
    },
    {
      "inputs": [
        {
          "internalType": "bytes4",
          "name": "interfaceId",
          "type": "bytes4"
        }
      ],
      "name": "supportsInterface",
      "outputs": [
        {
          "internalType": "bool",
          "name": "",
          "type": "bool"
        }
      ],
      "stateMutability": "view",
      "type": "function",
      "constant": true
    },
    {
      "inputs": [],
      "name": "symbol",
      "outputs": [
        {
          "internalType": "string",
          "name": "",
          "type": "string"
        }
      ],
      "stateMutability": "view",
      "type": "function",
      "constant": true
    },
    {
      "inputs": [
        {
          "internalType": "uint256",
          "name": "index",
          "type": "uint256"
        }
      ],
      "name": "tokenByIndex",
      "outputs": [
        {
          "internalType": "uint256",
          "name": "",
          "type": "uint256"
        }
      ],
      "stateMutability": "view",
      "type": "function",
      "constant": true
    },
    {
      "inputs": [
        {
          "internalType": "address",
          "name": "owner",
          "type": "address"
        },
        {
          "internalType": "uint256",
          "name": "index",
          "type": "uint256"
        }
      ],
      "name": "tokenOfOwnerByIndex",
      "outputs": [
        {
          "internalType": "uint256",
          "name": "",
          "type": "uint256"
        }
      ],
      "stateMutability": "view",
      "type": "function",
      "constant": true
    },
    {
      "inputs": [
        {
          "internalType": "uint256",
          "name": "tokenId",
          "type": "uint256"
        }
      ],
      "name": "tokenURI",
      "outputs": [
        {
          "internalType": "string",
          "name": "",
          "type": "string"
        }
      ],
      "stateMutability": "view",
      "type": "function",
      "constant": true
    },
    {
      "inputs": [],
      "name": "totalSupply",
      "outputs": [
        {
          "internalType": "uint256",
          "name": "",
          "type": "uint256"
        }
      ],
      "stateMutability": "view",
      "type": "function",
      "constant": true
    },
    {
      "inputs": [
        {
          "internalType": "address",
          "name": "from",
          "type": "address"
        },
        {
          "internalType": "address",
          "name": "to",
          "type": "address"
        },
        {
          "internalType": "uint256",
          "name": "tokenId",
          "type": "uint256"
        }
      ],
      "name": "transferFrom",
      "outputs": [],
      "stateMutability": "nonpayable",
      "type": "function"
    },
    {
      "inputs": [
        {
          "internalType": "string",
          "name": "_propertyAddress",
          "type": "string"
        },
        {
          "internalType": "string",
          "name": "_city",
          "type": "string"
        },
        {
          "internalType": "uint256",
          "name": "_room",
          "type": "uint256"
        },
        {
          "internalType": "string",
          "name": "_area",
          "type": "string"
        },
        {
          "internalType": "uint256",
          "name": "_priceInEther",
          "type": "uint256"
        },
        {
          "internalType": "string",
          "name": "_propertyType",
          "type": "string"
        },
        {
          "internalType": "string",
          "name": "_image",
          "type": "string"
        },
        {
          "internalType": "bool",
          "name": "_saleStatus",
          "type": "bool"
        },
        {
          "internalType": "string",
          "name": "_tokenUri",
          "type": "string"
        }
      ],
      "name": "RegisterProperty",
      "outputs": [
        {
          "internalType": "bool",
          "name": "",
          "type": "bool"
        }
      ],
      "stateMutability": "nonpayable",
      "type": "function"
    },
    {
      "inputs": [
        {
          "internalType": "uint256",
          "name": "PropertyId_TokenId",
          "type": "uint256"
        }
      ],
      "name": "EnablePropertySale",
      "outputs": [
        {
          "internalType": "bool",
          "name": "",
          "type": "bool"
        }
      ],
      "stateMutability": "nonpayable",
      "type": "function"
    },
    {
      "inputs": [
        {
          "internalType": "uint256",
          "name": "PropertyId_TokenId",
          "type": "uint256"
        }
      ],
      "name": "PropertyPricing",
      "outputs": [
        {
          "internalType": "uint256",
          "name": "",
          "type": "uint256"
        }
      ],
      "stateMutability": "view",
      "type": "function",
      "constant": true
    },
    {
      "inputs": [
        {
          "internalType": "uint256",
          "name": "PropertyId_TokenId",
          "type": "uint256"
        },
        {
          "internalType": "uint256",
          "name": "offerInEthers",
          "type": "uint256"
        }
      ],
      "name": "BuyingRequest",
      "outputs": [
        {
          "internalType": "bool",
          "name": "",
          "type": "bool"
        }
      ],
      "stateMutability": "nonpayable",
      "type": "function"
    },
    {
      "inputs": [
        {
          "internalType": "uint256",
          "name": "PropertyId_TokenId",
          "type": "uint256"
        }
      ],
      "name": "OfferStatus",
      "outputs": [
        {
          "components": [
            {
              "internalType": "uint256",
              "name": "bId",
              "type": "uint256"
            },
            {
              "internalType": "address",
              "name": "buyerAddress",
              "type": "address"
            },
            {
              "internalType": "uint256",
              "name": "buyerOffer",
              "type": "uint256"
            },
            {
              "internalType": "enum SmartEstate.offerApproval",
              "name": "request",
              "type": "uint8"
            },
            {
              "internalType": "uint256",
              "name": "ApplyForToken",
              "type": "uint256"
            }
          ],
          "internalType": "struct SmartEstate.BuyerInfo[]",
          "name": "",
          "type": "tuple[]"
        }
      ],
      "stateMutability": "nonpayable",
      "type": "function"
    },
    {
      "inputs": [
        {
          "internalType": "uint256",
          "name": "PropertyId_TokenId",
          "type": "uint256"
        },
        {
          "internalType": "address",
          "name": "_buyerAddress",
          "type": "address"
        }
      ],
      "name": "OfferReject",
      "outputs": [
        {
          "internalType": "bool",
          "name": "",
          "type": "bool"
        }
      ],
      "stateMutability": "nonpayable",
      "type": "function"
    },
    {
      "inputs": [
        {
          "internalType": "uint256",
          "name": "PropertyId_TokenId",
          "type": "uint256"
        },
        {
          "internalType": "address",
          "name": "_buyerAddress",
          "type": "address"
        }
      ],
      "name": "OfferAccept",
      "outputs": [
        {
          "internalType": "bool",
          "name": "",
          "type": "bool"
        }
      ],
      "stateMutability": "nonpayable",
      "type": "function"
    },
    {
      "inputs": [
        {
          "internalType": "uint256",
          "name": "PropertyId_TokenId",
          "type": "uint256"
        }
      ],
      "name": "BuyProperty",
      "outputs": [
        {
          "internalType": "bool",
          "name": "",
          "type": "bool"
        }
      ],
      "stateMutability": "payable",
      "type": "function",
      "payable": true
    }
  ],
  "bytecode": "0x60806040523480156200001157600080fd5b506040518060400160405280601781526020017f536d617274204573746174652050726f706572746965730000000000000000008152506040518060400160405280600381526020017f4553500000000000000000000000000000000000000000000000000000000000815250620000966301ffc9a760e01b6200011860201b60201c565b8160069080519060200190620000ae929190620001f0565b508060079080519060200190620000c7929190620001f0565b50620000e06380ac58cd60e01b6200011860201b60201c565b620000f8635b5e139f60e01b6200011860201b60201c565b6200011063780e9d6360e01b6200011860201b60201c565b505062000314565b63ffffffff60e01b817bffffffffffffffffffffffffffffffffffffffffffffffffffffffff1916141562000184576040517f08c379a00000000000000000000000000000000000000000000000000000000081526004016200017b90620002e1565b60405180910390fd5b6001600080837bffffffffffffffffffffffffffffffffffffffffffffffffffffffff19167bffffffffffffffffffffffffffffffffffffffffffffffffffffffff1916815260200190815260200160002060006101000a81548160ff02191690831515021790555050565b828054600181600116156101000203166002900490600052602060002090601f016020900481019282601f106200023357805160ff191683800117855562000264565b8280016001018555821562000264579182015b828111156200026357825182559160200191906001019062000246565b5b50905062000273919062000277565b5090565b6200029c91905b80821115620002985760008160009055506001016200027e565b5090565b90565b6000620002ae601c8362000303565b91507f4552433136353a20696e76616c696420696e74657266616365206964000000006000830152602082019050919050565b60006020820190508181036000830152620002fc816200029f565b9050919050565b600082825260208201905092915050565b61586080620003246000396000f3fe6080604052600436106101cd5760003560e01c80634a1452ab116100f757806385d5785811610095578063c87b56dd11610064578063c87b56dd1461075c578063d7c871d414610799578063e985e9c5146107d6578063eeb2fd4b14610813576101cd565b806385d578581461069e57806395d89b41146106df578063a22cb4651461070a578063b88d4fde14610733576101cd565b80636352211e116100d15780636352211e146105bc5780636c0360eb146105f957806370a0823114610624578063822dcd4b14610661576101cd565b80634a1452ab146105055780634f6ccce7146105425780635a05a5061461057f576101cd565b806323b872dd1161016f57806332783c4c1161013e57806332783c4c146104255780634266fa171461046257806342842e0e1461049f57806345482f42146104c8576101cd565b806323b872dd1461035257806325a596001461037b5780632f71513f146103ab5780632f745c59146103e8576101cd565b8063095ea7b3116101ab578063095ea7b3146102775780630a86c02a146102a057806318160ddd146102e6578063225cf72e14610311576101cd565b806301ffc9a7146101d257806306fdde031461020f578063081812fc1461023a575b600080fd5b3480156101de57600080fd5b506101f960048036036101f4919081019061401e565b610850565b60405161020691906150e8565b60405180910390f35b34801561021b57600080fd5b506102246108b7565b6040516102319190615103565b60405180910390f35b34801561024657600080fd5b50610261600480360361025c91908101906141c6565b610959565b60405161026e9190614e8e565b60405180910390f35b34801561028357600080fd5b5061029e60048036036102999190810190613fe2565b6109de565b005b3480156102ac57600080fd5b506102c760048036036102c29190810190613e77565b610af6565b6040516102dd9a99989796959493929190615007565b60405180910390f35b3480156102f257600080fd5b506102fb610e6f565b6040516103089190615445565b60405180910390f35b34801561031d57600080fd5b506103386004803603610333919081019061422b565b610e80565b6040516103499594939291906154b3565b60405180910390f35b34801561035e57600080fd5b5061037960048036036103749190810190613edc565b610efd565b005b610395600480360361039091908101906141c6565b610f5d565b6040516103a291906150e8565b60405180910390f35b3480156103b757600080fd5b506103d260048036036103cd91908101906141ef565b611378565b6040516103df91906150e8565b60405180910390f35b3480156103f457600080fd5b5061040f600480360361040a9190810190613fe2565b6115d0565b60405161041c9190615445565b60405180910390f35b34801561043157600080fd5b5061044c600480360361044791908101906141c6565b61162b565b6040516104599190615445565b60405180910390f35b34801561046e57600080fd5b5061048960048036036104849190810190614070565b6117c2565b60405161049691906150e8565b60405180910390f35b3480156104ab57600080fd5b506104c660048036036104c19190810190613edc565b611a63565b005b3480156104d457600080fd5b506104ef60048036036104ea919081019061422b565b611a83565b6040516104fc91906150e8565b60405180910390f35b34801561051157600080fd5b5061052c600480360361052791908101906141c6565b611e45565b6040516105399190614e8e565b60405180910390f35b34801561054e57600080fd5b50610569600480360361056491908101906141c6565b611e78565b6040516105769190615445565b60405180910390f35b34801561058b57600080fd5b506105a660048036036105a191908101906141c6565b611e9b565b6040516105b391906150c6565b60405180910390f35b3480156105c857600080fd5b506105e360048036036105de91908101906141c6565b6120cc565b6040516105f09190614e8e565b60405180910390f35b34801561060557600080fd5b5061060e612103565b60405161061b9190615103565b60405180910390f35b34801561063057600080fd5b5061064b60048036036106469190810190613e77565b6121a5565b6040516106589190615445565b60405180910390f35b34801561066d57600080fd5b50610688600480360361068391908101906141c6565b612264565b60405161069591906150e8565b60405180910390f35b3480156106aa57600080fd5b506106c560048036036106c09190810190613e77565b61244d565b6040516106d69594939291906154b3565b60405180910390f35b3480156106eb57600080fd5b506106f46124b0565b6040516107019190615103565b60405180910390f35b34801561071657600080fd5b50610731600480360361072c9190810190613fa6565b612552565b005b34801561073f57600080fd5b5061075a60048036036107559190810190613f2b565b6126d3565b005b34801561076857600080fd5b50610783600480360361077e91908101906141c6565b612735565b6040516107909190615103565b60405180910390f35b3480156107a557600080fd5b506107c060048036036107bb91908101906141c6565b6128c0565b6040516107cd91906150e8565b60405180910390f35b3480156107e257600080fd5b506107fd60048036036107f89190810190613ea0565b6128e0565b60405161080a91906150e8565b60405180910390f35b34801561081f57600080fd5b5061083a600480360361083591908101906141ef565b612974565b60405161084791906150e8565b60405180910390f35b6000806000837bffffffffffffffffffffffffffffffffffffffffffffffffffffffff19167bffffffffffffffffffffffffffffffffffffffffffffffffffffffff1916815260200190815260200160002060009054906101000a900460ff169050919050565b606060068054600181600116156101000203166002900480601f01602080910402602001604051908101604052809291908181526020018280546001816001161561010002031660029004801561094f5780601f106109245761010080835404028352916020019161094f565b820191906000526020600020905b81548152906001019060200180831161093257829003601f168201915b5050505050905090565b600061096482612bcc565b6109a3576040517f08c379a000000000000000000000000000000000000000000000000000000000815260040161099a90615325565b60405180910390fd5b6004600083815260200190815260200160002060009054906101000a900473ffffffffffffffffffffffffffffffffffffffff169050919050565b60006109e9826120cc565b90508073ffffffffffffffffffffffffffffffffffffffff168373ffffffffffffffffffffffffffffffffffffffff161415610a5a576040517f08c379a0000000000000000000000000000000000000000000000000000000008152600401610a51906153c5565b60405180910390fd5b8073ffffffffffffffffffffffffffffffffffffffff16610a79612be9565b73ffffffffffffffffffffffffffffffffffffffff161480610aa85750610aa781610aa2612be9565b6128e0565b5b610ae7576040517f08c379a0000000000000000000000000000000000000000000000000000000008152600401610ade90615265565b60405180910390fd5b610af18383612bf1565b505050565b600c6020528060005260406000206000915090508060000160009054906101000a900473ffffffffffffffffffffffffffffffffffffffff1690806001015490806002018054600181600116156101000203166002900480601f016020809104026020016040519081016040528092919081815260200182805460018160011615610100020316600290048015610bce5780601f10610ba357610100808354040283529160200191610bce565b820191906000526020600020905b815481529060010190602001808311610bb157829003601f168201915b505050505090806003018054600181600116156101000203166002900480601f016020809104026020016040519081016040528092919081815260200182805460018160011615610100020316600290048015610c6c5780601f10610c4157610100808354040283529160200191610c6c565b820191906000526020600020905b815481529060010190602001808311610c4f57829003601f168201915b505050505090806004015490806005018054600181600116156101000203166002900480601f016020809104026020016040519081016040528092919081815260200182805460018160011615610100020316600290048015610d105780601f10610ce557610100808354040283529160200191610d10565b820191906000526020600020905b815481529060010190602001808311610cf357829003601f168201915b505050505090806006018054600181600116156101000203166002900480601f016020809104026020016040519081016040528092919081815260200182805460018160011615610100020316600290048015610dae5780601f10610d8357610100808354040283529160200191610dae565b820191906000526020600020905b815481529060010190602001808311610d9157829003601f168201915b505050505090806007015490806008018054600181600116156101000203166002900480601f016020809104026020016040519081016040528092919081815260200182805460018160011615610100020316600290048015610e525780601f10610e2757610100808354040283529160200191610e52565b820191906000526020600020905b815481529060010190602001808311610e3557829003601f168201915b5050505050908060090160009054906101000a900460ff1690508a565b6000610e7b6002612caa565b905090565b600f6020528160005260406000208181548110610e9957fe5b9060005260206000209060050201600091509150508060000154908060010160009054906101000a900473ffffffffffffffffffffffffffffffffffffffff16908060020154908060030160009054906101000a900460ff16908060040154905085565b610f0e610f08612be9565b82612cbf565b610f4d576040517f08c379a0000000000000000000000000000000000000000000000000000000008152600401610f4490615405565b60405180910390fd5b610f58838383612d9d565b505050565b6000610f6882612bcc565b610fa7576040517f08c379a0000000000000000000000000000000000000000000000000000000008152600401610f9e90615185565b60405180910390fd5b3373ffffffffffffffffffffffffffffffffffffffff16600e60003373ffffffffffffffffffffffffffffffffffffffff1673ffffffffffffffffffffffffffffffffffffffff16815260200190815260200160002060010160009054906101000a900473ffffffffffffffffffffffffffffffffffffffff1673ffffffffffffffffffffffffffffffffffffffff1614611077576040517f08c379a000000000000000000000000000000000000000000000000000000000815260040161106e906152e5565b60405180910390fd5b6001600281111561108457fe5b600e60003373ffffffffffffffffffffffffffffffffffffffff1673ffffffffffffffffffffffffffffffffffffffff16815260200190815260200160002060030160009054906101000a900460ff1660028111156110df57fe5b1461111f576040517f08c379a000000000000000000000000000000000000000000000000000000000815260040161111690615225565b60405180910390fd5b60003411611162576040517f08c379a000000000000000000000000000000000000000000000000000000000815260040161115990615385565b60405180910390fd5b60006111c1670de0b6b3a7640000600e60003373ffffffffffffffffffffffffffffffffffffffff1673ffffffffffffffffffffffffffffffffffffffff16815260200190815260200160002060020154612fb490919063ffffffff16565b9050348114611205576040517f08c379a00000000000000000000000000000000000000000000000000000000081526004016111fc90615205565b60405180910390fd5b6000600c6000600d600087815260200190815260200160002060009054906101000a900473ffffffffffffffffffffffffffffffffffffffff1673ffffffffffffffffffffffffffffffffffffffff1673ffffffffffffffffffffffffffffffffffffffff16815260200190815260200160002060000160009054906101000a900473ffffffffffffffffffffffffffffffffffffffff1690506000600c6000600d600088815260200190815260200160002060009054906101000a900473ffffffffffffffffffffffffffffffffffffffff1673ffffffffffffffffffffffffffffffffffffffff1673ffffffffffffffffffffffffffffffffffffffff16815260200190815260200160002060090160006101000a81548160ff0219169083151502179055507fc4fdb8ad5bb0fe5343181c9a3ab3d0a8c3bc4e59413afb0979e5e7e5521b2afe813386856000604051611365959493929190614fb4565b60405180910390a1600192505050919050565b60003373ffffffffffffffffffffffffffffffffffffffff16600c60003373ffffffffffffffffffffffffffffffffffffffff1673ffffffffffffffffffffffffffffffffffffffff16815260200190815260200160002060000160009054906101000a900473ffffffffffffffffffffffffffffffffffffffff1673ffffffffffffffffffffffffffffffffffffffff161461144a576040517f08c379a0000000000000000000000000000000000000000000000000000000008152600401611441906151a5565b60405180910390fd5b61145383612bcc565b611492576040517f08c379a000000000000000000000000000000000000000000000000000000000815260040161148990615185565b60405180910390fd5b8173ffffffffffffffffffffffffffffffffffffffff16600e60008473ffffffffffffffffffffffffffffffffffffffff1673ffffffffffffffffffffffffffffffffffffffff16815260200190815260200160002060010160009054906101000a900473ffffffffffffffffffffffffffffffffffffffff1673ffffffffffffffffffffffffffffffffffffffff1614611562576040517f08c379a0000000000000000000000000000000000000000000000000000000008152600401611559906152e5565b60405180910390fd5b6001600e60008473ffffffffffffffffffffffffffffffffffffffff1673ffffffffffffffffffffffffffffffffffffffff16815260200190815260200160002060030160006101000a81548160ff021916908360028111156115c157fe5b02179055506001905092915050565b600061162382600160008673ffffffffffffffffffffffffffffffffffffffff1673ffffffffffffffffffffffffffffffffffffffff16815260200190815260200160002061302490919063ffffffff16565b905092915050565b60003373ffffffffffffffffffffffffffffffffffffffff16600c60003373ffffffffffffffffffffffffffffffffffffffff1673ffffffffffffffffffffffffffffffffffffffff16815260200190815260200160002060000160009054906101000a900473ffffffffffffffffffffffffffffffffffffffff1673ffffffffffffffffffffffffffffffffffffffff16146116fd576040517f08c379a00000000000000000000000000000000000000000000000000000000081526004016116f4906151a5565b60405180910390fd5b61170682612bcc565b611745576040517f08c379a000000000000000000000000000000000000000000000000000000000815260040161173c90615185565b60405180910390fd5b600c6000600d600085815260200190815260200160002060009054906101000a900473ffffffffffffffffffffffffffffffffffffffff1673ffffffffffffffffffffffffffffffffffffffff1673ffffffffffffffffffffffffffffffffffffffff168152602001908152602001600020600701549050919050565b6000600b600081548092919060010191905055506000600b5490506117e7338261303e565b6117f181846131cc565b6117f9613b86565b6040518061014001604052803373ffffffffffffffffffffffffffffffffffffffff1681526020018381526020018d81526020018c81526020018b81526020018a8152602001888152602001898152602001878152602001861515815250905080600c60003373ffffffffffffffffffffffffffffffffffffffff1673ffffffffffffffffffffffffffffffffffffffff16815260200190815260200160002060008201518160000160006101000a81548173ffffffffffffffffffffffffffffffffffffffff021916908373ffffffffffffffffffffffffffffffffffffffff160217905550602082015181600101556040820151816002019080519060200190611906929190613bf1565b506060820151816003019080519060200190611923929190613bf1565b506080820151816004015560a082015181600501908051906020019061194a929190613bf1565b5060c0820151816006019080519060200190611967929190613bf1565b5060e0820151816007015561010082015181600801908051906020019061198f929190613bf1565b506101208201518160090160006101000a81548160ff02191690831515021790555090505033600d600084815260200190815260200160002060006101000a81548173ffffffffffffffffffffffffffffffffffffffff021916908373ffffffffffffffffffffffffffffffffffffffff1602179055507f5baccd78aa26fd4d554e82a7b7cd78e216126f45cd329b96affd63b68bc55a5b33838e8e8e8e8d8f8e6000604051611a489a99989796959493929190614ef5565b60405180910390a16001925050509998505050505050505050565b611a7e838383604051806020016040528060008152506126d3565b505050565b6000611a8e83612bcc565b611acd576040517f08c379a0000000000000000000000000000000000000000000000000000000008152600401611ac490615185565b60405180910390fd5b600c6000600d600086815260200190815260200160002060009054906101000a900473ffffffffffffffffffffffffffffffffffffffff1673ffffffffffffffffffffffffffffffffffffffff1673ffffffffffffffffffffffffffffffffffffffff16815260200190815260200160002060090160009054906101000a900460ff16611b8f576040517f08c379a0000000000000000000000000000000000000000000000000000000008152600401611b86906153e5565b60405180910390fd5b600a60008154809291906001019190505550611ba9613c71565b6040518060a00160405280600a5481526020013373ffffffffffffffffffffffffffffffffffffffff16815260200184815260200160006002811115611beb57fe5b8152602001858152509050600f60008581526020019081526020016000208190806001815401808255809150506001900390600052602060002090600502016000909190919091506000820151816000015560208201518160010160006101000a81548173ffffffffffffffffffffffffffffffffffffffff021916908373ffffffffffffffffffffffffffffffffffffffff1602179055506040820151816002015560608201518160030160006101000a81548160ff02191690836002811115611cb257fe5b021790555060808201518160040155505080600e60003373ffffffffffffffffffffffffffffffffffffffff1673ffffffffffffffffffffffffffffffffffffffff1681526020019081526020016000206000820151816000015560208201518160010160006101000a81548173ffffffffffffffffffffffffffffffffffffffff021916908373ffffffffffffffffffffffffffffffffffffffff1602179055506040820151816002015560608201518160030160006101000a81548160ff02191690836002811115611d8257fe5b0217905550608082015181600401559050506000600e60003373ffffffffffffffffffffffffffffffffffffffff1673ffffffffffffffffffffffffffffffffffffffff16815260200190815260200160002060030160006101000a81548160ff02191690836002811115611df357fe5b02179055507f5e32f8ede2b15e4764db8fa23372e645976247f93e7daeec1ed11cb061909947600a543385600088604051611e32959493929190615460565b60405180910390a1600191505092915050565b600d6020528060005260406000206000915054906101000a900473ffffffffffffffffffffffffffffffffffffffff1681565b600080611e8f83600261324090919063ffffffff16565b50905080915050919050565b60603373ffffffffffffffffffffffffffffffffffffffff16600c60003373ffffffffffffffffffffffffffffffffffffffff1673ffffffffffffffffffffffffffffffffffffffff16815260200190815260200160002060000160009054906101000a900473ffffffffffffffffffffffffffffffffffffffff1673ffffffffffffffffffffffffffffffffffffffff1614611f6d576040517f08c379a0000000000000000000000000000000000000000000000000000000008152600401611f64906151a5565b60405180910390fd5b611f7682612bcc565b611fb5576040517f08c379a0000000000000000000000000000000000000000000000000000000008152600401611fac90615185565b60405180910390fd5b6060600f6000848152602001908152602001600020805480602002602001604051908101604052809291908181526020016000905b828210156120bd57838290600052602060002090600502016040518060a0016040529081600082015481526020016001820160009054906101000a900473ffffffffffffffffffffffffffffffffffffffff1673ffffffffffffffffffffffffffffffffffffffff1673ffffffffffffffffffffffffffffffffffffffff168152602001600282015481526020016003820160009054906101000a900460ff16600281111561209557fe5b60028111156120a057fe5b815260200160048201548152505081526020019060010190611fea565b50505050905080915050919050565b60006120fc8260405180606001604052806029815260200161580260299139600261326f9092919063ffffffff16565b9050919050565b606060098054600181600116156101000203166002900480601f01602080910402602001604051908101604052809291908181526020018280546001816001161561010002031660029004801561219b5780601f106121705761010080835404028352916020019161219b565b820191906000526020600020905b81548152906001019060200180831161217e57829003601f168201915b5050505050905090565b60008073ffffffffffffffffffffffffffffffffffffffff168273ffffffffffffffffffffffffffffffffffffffff161415612216576040517f08c379a000000000000000000000000000000000000000000000000000000000815260040161220d90615285565b60405180910390fd5b61225d600160008473ffffffffffffffffffffffffffffffffffffffff1673ffffffffffffffffffffffffffffffffffffffff16815260200190815260200160002061328e565b9050919050565b60003373ffffffffffffffffffffffffffffffffffffffff16600c60003373ffffffffffffffffffffffffffffffffffffffff1673ffffffffffffffffffffffffffffffffffffffff16815260200190815260200160002060000160009054906101000a900473ffffffffffffffffffffffffffffffffffffffff1673ffffffffffffffffffffffffffffffffffffffff1614612336576040517f08c379a000000000000000000000000000000000000000000000000000000000815260040161232d906151a5565b60405180910390fd5b61233f82612bcc565b61237e576040517f08c379a000000000000000000000000000000000000000000000000000000000815260040161237590615185565b60405180910390fd5b6001600c6000600d600086815260200190815260200160002060009054906101000a900473ffffffffffffffffffffffffffffffffffffffff1673ffffffffffffffffffffffffffffffffffffffff1673ffffffffffffffffffffffffffffffffffffffff16815260200190815260200160002060090160006101000a81548160ff0219169083151502179055507f8032abbce3e20f1f71d7656e10fa55d5ace8775b4f3137443a3ead7afa41f99d600160405161243c91906150e8565b60405180910390a160019050919050565b600e6020528060005260406000206000915090508060000154908060010160009054906101000a900473ffffffffffffffffffffffffffffffffffffffff16908060020154908060030160009054906101000a900460ff16908060040154905085565b606060078054600181600116156101000203166002900480601f0160208091040260200160405190810160405280929190818152602001828054600181600116156101000203166002900480156125485780601f1061251d57610100808354040283529160200191612548565b820191906000526020600020905b81548152906001019060200180831161252b57829003601f168201915b5050505050905090565b61255a612be9565b73ffffffffffffffffffffffffffffffffffffffff168273ffffffffffffffffffffffffffffffffffffffff1614156125c8576040517f08c379a00000000000000000000000000000000000000000000000000000000081526004016125bf906151e5565b60405180910390fd5b80600560006125d5612be9565b73ffffffffffffffffffffffffffffffffffffffff1673ffffffffffffffffffffffffffffffffffffffff16815260200190815260200160002060008473ffffffffffffffffffffffffffffffffffffffff1673ffffffffffffffffffffffffffffffffffffffff16815260200190815260200160002060006101000a81548160ff0219169083151502179055508173ffffffffffffffffffffffffffffffffffffffff16612682612be9565b73ffffffffffffffffffffffffffffffffffffffff167f17307eab39ab6107e8899845ad3d59bd9653f200f220920489ca2b5937696c31836040516126c791906150e8565b60405180910390a35050565b6126e46126de612be9565b83612cbf565b612723576040517f08c379a000000000000000000000000000000000000000000000000000000000815260040161271a90615405565b60405180910390fd5b61272f848484846132a3565b50505050565b606061274082612bcc565b61277f576040517f08c379a0000000000000000000000000000000000000000000000000000000008152600401612776906153a5565b60405180910390fd5b6060600860008481526020019081526020016000208054600181600116156101000203166002900480601f0160208091040260200160405190810160405280929190818152602001828054600181600116156101000203166002900480156128285780601f106127fd57610100808354040283529160200191612828565b820191906000526020600020905b81548152906001019060200180831161280b57829003601f168201915b5050505050905060006009805460018160011615610100020316600290049050141561285757809150506128bb565b60008151111561288c57600981604051602001612875929190614e6a565b6040516020818303038152906040529150506128bb565b6009612897846132ff565b6040516020016128a8929190614e6a565b6040516020818303038152906040529150505b919050565b60106020528060005260406000206000915054906101000a900460ff1681565b6000600560008473ffffffffffffffffffffffffffffffffffffffff1673ffffffffffffffffffffffffffffffffffffffff16815260200190815260200160002060008373ffffffffffffffffffffffffffffffffffffffff1673ffffffffffffffffffffffffffffffffffffffff16815260200190815260200160002060009054906101000a900460ff16905092915050565b60003373ffffffffffffffffffffffffffffffffffffffff16600c60003373ffffffffffffffffffffffffffffffffffffffff1673ffffffffffffffffffffffffffffffffffffffff16815260200190815260200160002060000160009054906101000a900473ffffffffffffffffffffffffffffffffffffffff1673ffffffffffffffffffffffffffffffffffffffff1614612a46576040517f08c379a0000000000000000000000000000000000000000000000000000000008152600401612a3d906151a5565b60405180910390fd5b612a4f83612bcc565b612a8e576040517f08c379a0000000000000000000000000000000000000000000000000000000008152600401612a8590615185565b60405180910390fd5b8173ffffffffffffffffffffffffffffffffffffffff16600e60008473ffffffffffffffffffffffffffffffffffffffff1673ffffffffffffffffffffffffffffffffffffffff16815260200190815260200160002060010160009054906101000a900473ffffffffffffffffffffffffffffffffffffffff1673ffffffffffffffffffffffffffffffffffffffff1614612b5e576040517f08c379a0000000000000000000000000000000000000000000000000000000008152600401612b55906152e5565b60405180910390fd5b6002600e60008473ffffffffffffffffffffffffffffffffffffffff1673ffffffffffffffffffffffffffffffffffffffff16815260200190815260200160002060030160006101000a81548160ff02191690836002811115612bbd57fe5b02179055506001905092915050565b6000612be282600261342f90919063ffffffff16565b9050919050565b600033905090565b816004600083815260200190815260200160002060006101000a81548173ffffffffffffffffffffffffffffffffffffffff021916908373ffffffffffffffffffffffffffffffffffffffff160217905550808273ffffffffffffffffffffffffffffffffffffffff16612c64836120cc565b73ffffffffffffffffffffffffffffffffffffffff167f8c5be1e5ebec7d5bd14f71427d1e84f3dd0314c0f7b2291e5b200ac8c7c3b92560405160405180910390a45050565b6000612cb882600001613449565b9050919050565b6000612cca82612bcc565b612d09576040517f08c379a0000000000000000000000000000000000000000000000000000000008152600401612d0090615245565b60405180910390fd5b6000612d14836120cc565b90508073ffffffffffffffffffffffffffffffffffffffff168473ffffffffffffffffffffffffffffffffffffffff161480612d8357508373ffffffffffffffffffffffffffffffffffffffff16612d6b84610959565b73ffffffffffffffffffffffffffffffffffffffff16145b80612d945750612d9381856128e0565b5b91505092915050565b8273ffffffffffffffffffffffffffffffffffffffff16612dbd826120cc565b73ffffffffffffffffffffffffffffffffffffffff1614612e13576040517f08c379a0000000000000000000000000000000000000000000000000000000008152600401612e0a90615365565b60405180910390fd5b600073ffffffffffffffffffffffffffffffffffffffff168273ffffffffffffffffffffffffffffffffffffffff161415612e83576040517f08c379a0000000000000000000000000000000000000000000000000000000008152600401612e7a906151c5565b60405180910390fd5b612e8e83838361345a565b612e99600082612bf1565b612eea81600160008673ffffffffffffffffffffffffffffffffffffffff1673ffffffffffffffffffffffffffffffffffffffff16815260200190815260200160002061345f90919063ffffffff16565b50612f3c81600160008573ffffffffffffffffffffffffffffffffffffffff1673ffffffffffffffffffffffffffffffffffffffff16815260200190815260200160002061347990919063ffffffff16565b50612f53818360026134939092919063ffffffff16565b50808273ffffffffffffffffffffffffffffffffffffffff168473ffffffffffffffffffffffffffffffffffffffff167fddf252ad1be2c89b69c2b068fc378daa952ba7f163c4a11628f55a4df523b3ef60405160405180910390a4505050565b600080831415612fc7576000905061301e565b6000828402905082848281612fd857fe5b0414613019576040517f08c379a000000000000000000000000000000000000000000000000000000000815260040161301090615305565b60405180910390fd5b809150505b92915050565b600061303383600001836134c8565b60001c905092915050565b600073ffffffffffffffffffffffffffffffffffffffff168273ffffffffffffffffffffffffffffffffffffffff1614156130ae576040517f08c379a00000000000000000000000000000000000000000000000000000000081526004016130a5906152c5565b60405180910390fd5b6130b781612bcc565b156130f7576040517f08c379a00000000000000000000000000000000000000000000000000000000081526004016130ee90615165565b60405180910390fd5b6131036000838361345a565b61315481600160008573ffffffffffffffffffffffffffffffffffffffff1673ffffffffffffffffffffffffffffffffffffffff16815260200190815260200160002061347990919063ffffffff16565b5061316b818360026134939092919063ffffffff16565b50808273ffffffffffffffffffffffffffffffffffffffff16600073ffffffffffffffffffffffffffffffffffffffff167fddf252ad1be2c89b69c2b068fc378daa952ba7f163c4a11628f55a4df523b3ef60405160405180910390a45050565b6131d582612bcc565b613214576040517f08c379a000000000000000000000000000000000000000000000000000000000815260040161320b90615345565b60405180910390fd5b8060086000848152602001908152602001600020908051906020019061323b929190613cc1565b505050565b6000806000806132538660000186613535565b915091508160001c8160001c8090509350935050509250929050565b6000613282846000018460001b846135b8565b60001c90509392505050565b600061329c82600001613649565b9050919050565b6132ae848484612d9d565b6132ba8484848461365a565b6132f9576040517f08c379a00000000000000000000000000000000000000000000000000000000081526004016132f090615145565b60405180910390fd5b50505050565b60606000821415613347576040518060400160405280600181526020017f3000000000000000000000000000000000000000000000000000000000000000815250905061342a565b600082905060005b60008214613371578080600101915050600a828161336957fe5b04915061334f565b6060816040519080825280601f01601f1916602001820160405280156133a65781602001600182028038833980820191505090505b50905060006001830390508593505b6000841461342257600a84816133c757fe5b0660300160f81b828280600190039350815181106133e157fe5b60200101907effffffffffffffffffffffffffffffffffffffffffffffffffffffffffffff1916908160001a905350600a848161341a57fe5b0493506133b5565b819450505050505b919050565b6000613441836000018360001b6137be565b905092915050565b600081600001805490509050919050565b505050565b6000613471836000018360001b6137e1565b905092915050565b600061348b836000018360001b6138c9565b905092915050565b60006134bf846000018460001b8473ffffffffffffffffffffffffffffffffffffffff1660001b613939565b90509392505050565b600081836000018054905011613513576040517f08c379a000000000000000000000000000000000000000000000000000000000815260040161350a90615125565b60405180910390fd5b82600001828154811061352257fe5b9060005260206000200154905092915050565b60008082846000018054905011613581576040517f08c379a0000000000000000000000000000000000000000000000000000000008152600401613578906152a5565b60405180910390fd5b600084600001848154811061359257fe5b906000526020600020906002020190508060000154816001015492509250509250929050565b6000808460010160008581526020019081526020016000205490506000811415839061361a576040517f08c379a00000000000000000000000000000000000000000000000000000000081526004016136119190615103565b60405180910390fd5b5084600001600182038154811061362d57fe5b9060005260206000209060020201600101549150509392505050565b600081600001805490509050919050565b600061367b8473ffffffffffffffffffffffffffffffffffffffff16613a15565b61368857600190506137b6565b606061374f63150b7a0260e01b61369d612be9565b8887876040516024016136b39493929190614ea9565b604051602081830303815290604052907bffffffffffffffffffffffffffffffffffffffffffffffffffffffff19166020820180517bffffffffffffffffffffffffffffffffffffffffffffffffffffffff83818316178352505050506040518060600160405280603281526020016157d0603291398773ffffffffffffffffffffffffffffffffffffffff16613a289092919063ffffffff16565b90506000818060200190516137679190810190614047565b905063150b7a0260e01b7bffffffffffffffffffffffffffffffffffffffffffffffffffffffff1916817bffffffffffffffffffffffffffffffffffffffffffffffffffffffff191614925050505b949350505050565b600080836001016000848152602001908152602001600020541415905092915050565b600080836001016000848152602001908152602001600020549050600081146138bd576000600182039050600060018660000180549050039050600086600001828154811061382c57fe5b906000526020600020015490508087600001848154811061384957fe5b906000526020600020018190555060018301876001016000838152602001908152602001600020819055508660000180548061388157fe5b600190038181906000526020600020016000905590558660010160008781526020019081526020016000206000905560019450505050506138c3565b60009150505b92915050565b60006138d58383613a40565b61392e578260000182908060018154018082558091505060019003906000526020600020016000909190919091505582600001805490508360010160008481526020019081526020016000208190555060019050613933565b600090505b92915050565b60008084600101600085815260200190815260200160002054905060008114156139e057846000016040518060400160405280868152602001858152509080600181540180825580915050600190039060005260206000209060020201600090919091909150600082015181600001556020820151816001015550508460000180549050856001016000868152602001908152602001600020819055506001915050613a0e565b828560000160018303815481106139f357fe5b90600052602060002090600202016001018190555060009150505b9392505050565b600080823b905060008111915050919050565b6060613a378484600085613a63565b90509392505050565b600080836001016000848152602001908152602001600020541415905092915050565b6060613a6e85613a15565b613aad576040517f08c379a0000000000000000000000000000000000000000000000000000000008152600401613aa490615425565b60405180910390fd5b600060608673ffffffffffffffffffffffffffffffffffffffff168587604051613ad79190614e53565b60006040518083038185875af1925050503d8060008114613b14576040519150601f19603f3d011682016040523d82523d6000602084013e613b19565b606091505b50915091508115613b2e578092505050613b7e565b600081511115613b415780518082602001fd5b836040517f08c379a0000000000000000000000000000000000000000000000000000000008152600401613b759190615103565b60405180910390fd5b949350505050565b604051806101400160405280600073ffffffffffffffffffffffffffffffffffffffff16815260200160008152602001606081526020016060815260200160008152602001606081526020016060815260200160008152602001606081526020016000151581525090565b828054600181600116156101000203166002900490600052602060002090601f016020900481019282601f10613c3257805160ff1916838001178555613c60565b82800160010185558215613c60579182015b82811115613c5f578251825591602001919060010190613c44565b5b509050613c6d9190613d41565b5090565b6040518060a0016040528060008152602001600073ffffffffffffffffffffffffffffffffffffffff1681526020016000815260200160006002811115613cb457fe5b8152602001600081525090565b828054600181600116156101000203166002900490600052602060002090601f016020900481019282601f10613d0257805160ff1916838001178555613d30565b82800160010185558215613d30579182015b82811115613d2f578251825591602001919060010190613d14565b5b509050613d3d9190613d41565b5090565b613d6391905b80821115613d5f576000816000905550600101613d47565b5090565b90565b600081359050613d7581615773565b92915050565b600081359050613d8a8161578a565b92915050565b600081359050613d9f816157a1565b92915050565b600081519050613db4816157a1565b92915050565b600082601f830112613dcb57600080fd5b8135613dde613dd982615533565b615506565b91508082526020830160208301858383011115613dfa57600080fd5b613e05838284615713565b50505092915050565b600082601f830112613e1f57600080fd5b8135613e32613e2d8261555f565b615506565b91508082526020830160208301858383011115613e4e57600080fd5b613e59838284615713565b50505092915050565b600081359050613e71816157b8565b92915050565b600060208284031215613e8957600080fd5b6000613e9784828501613d66565b91505092915050565b60008060408385031215613eb357600080fd5b6000613ec185828601613d66565b9250506020613ed285828601613d66565b9150509250929050565b600080600060608486031215613ef157600080fd5b6000613eff86828701613d66565b9350506020613f1086828701613d66565b9250506040613f2186828701613e62565b9150509250925092565b60008060008060808587031215613f4157600080fd5b6000613f4f87828801613d66565b9450506020613f6087828801613d66565b9350506040613f7187828801613e62565b925050606085013567ffffffffffffffff811115613f8e57600080fd5b613f9a87828801613dba565b91505092959194509250565b60008060408385031215613fb957600080fd5b6000613fc785828601613d66565b9250506020613fd885828601613d7b565b9150509250929050565b60008060408385031215613ff557600080fd5b600061400385828601613d66565b925050602061401485828601613e62565b9150509250929050565b60006020828403121561403057600080fd5b600061403e84828501613d90565b91505092915050565b60006020828403121561405957600080fd5b600061406784828501613da5565b91505092915050565b60008060008060008060008060006101208a8c03121561408f57600080fd5b60008a013567ffffffffffffffff8111156140a957600080fd5b6140b58c828d01613e0e565b99505060208a013567ffffffffffffffff8111156140d257600080fd5b6140de8c828d01613e0e565b98505060406140ef8c828d01613e62565b97505060608a013567ffffffffffffffff81111561410c57600080fd5b6141188c828d01613e0e565b96505060806141298c828d01613e62565b95505060a08a013567ffffffffffffffff81111561414657600080fd5b6141528c828d01613e0e565b94505060c08a013567ffffffffffffffff81111561416f57600080fd5b61417b8c828d01613e0e565b93505060e061418c8c828d01613d7b565b9250506101008a013567ffffffffffffffff8111156141aa57600080fd5b6141b68c828d01613e0e565b9150509295985092959850929598565b6000602082840312156141d857600080fd5b60006141e684828501613e62565b91505092915050565b6000806040838503121561420257600080fd5b600061421085828601613e62565b925050602061422185828601613d66565b9150509250929050565b6000806040838503121561423e57600080fd5b600061424c85828601613e62565b925050602061425d85828601613e62565b9150509250929050565b60006142738383614dcd565b60a08301905092915050565b614288816156cb565b82525050565b61429781615644565b82525050565b6142a681615632565b82525050565b6142b581615632565b82525050565b60006142c6826155b0565b6142d081856155e9565b93506142db8361558b565b8060005b8381101561430c5781516142f38882614267565b97506142fe836155dc565b9250506001810190506142df565b5085935050505092915050565b61432281615656565b82525050565b6000614333826155bb565b61433d81856155fa565b935061434d818560208601615722565b61435681615755565b840191505092915050565b600061436c826155bb565b614376818561560b565b9350614386818560208601615722565b80840191505092915050565b61439b816156dd565b82525050565b6143aa816156dd565b82525050565b60006143bb826155d1565b6143c58185615616565b93506143d5818560208601615722565b6143de81615755565b840191505092915050565b60006143f4826155d1565b6143fe8185615627565b935061440e818560208601615722565b80840191505092915050565b6000614425826155c6565b61442f8185615616565b935061443f818560208601615722565b61444881615755565b840191505092915050565b6000815460018116600081146144705760018114614495576144d9565b607f60028304166144818187615627565b955060ff19831686528086019350506144d9565b600282046144a38187615627565b95506144ae8561559b565b60005b828110156144d0578154818901526001820191506020810190506144b1565b82880195505050505b505092915050565b60006144ee602283615616565b91507f456e756d657261626c655365743a20696e646578206f7574206f6620626f756e60008301527f64730000000000000000000000000000000000000000000000000000000000006020830152604082019050919050565b6000614554603283615616565b91507f4552433732313a207472616e7366657220746f206e6f6e20455243373231526560008301527f63656976657220696d706c656d656e74657200000000000000000000000000006020830152604082019050919050565b60006145ba601c83615616565b91507f4552433732313a20746f6b656e20616c7265616479206d696e746564000000006000830152602082019050919050565b60006145fa602683615616565b91507f4572726f723a20494e56414c49442050726f7065727479206964206f7220746f60008301527f6b656e20696400000000000000000000000000000000000000000000000000006020830152604082019050919050565b6000614660602383615616565b91507f4572726f723a204f6e6c792050726f7065727479204f776e65722072756e207460008301527f68697300000000000000000000000000000000000000000000000000000000006020830152604082019050919050565b60006146c6602483615616565b91507f4552433732313a207472616e7366657220746f20746865207a65726f2061646460008301527f72657373000000000000000000000000000000000000000000000000000000006020830152604082019050919050565b600061472c601983615616565b91507f4552433732313a20617070726f766520746f2063616c6c6572000000000000006000830152602082019050919050565b600061476c603883615616565b91507f4572726f723a20536f7272792c2050726963696e67206f662070726f7065727460008301527f79206e6f74206d6174636865642077697468206f6666657200000000000000006020830152604082019050919050565b60006147d2603e83615616565b91507f4572726f723a20546869732050726f7065727479206e6f7420666f722073616c60008301527f6520284f666665722072657175657374206e6f7420617070726f7665642900006020830152604082019050919050565b6000614838602c83615616565b91507f4552433732313a206f70657261746f7220717565727920666f72206e6f6e657860008301527f697374656e7420746f6b656e00000000000000000000000000000000000000006020830152604082019050919050565b600061489e603883615616565b91507f4552433732313a20617070726f76652063616c6c6572206973206e6f74206f7760008301527f6e6572206e6f7220617070726f76656420666f7220616c6c00000000000000006020830152604082019050919050565b6000614904602a83615616565b91507f4552433732313a2062616c616e636520717565727920666f7220746865207a6560008301527f726f2061646472657373000000000000000000000000000000000000000000006020830152604082019050919050565b600061496a602283615616565b91507f456e756d657261626c654d61703a20696e646578206f7574206f6620626f756e60008301527f64730000000000000000000000000000000000000000000000000000000000006020830152604082019050919050565b60006149d0602083615616565b91507f4552433732313a206d696e7420746f20746865207a65726f20616464726573736000830152602082019050919050565b6000614a10601d83615616565b91507f4572726f723a20494e56414c49442062757965722061646472657373200000006000830152602082019050919050565b6000614a50602183615616565b91507f536166654d6174683a206d756c7469706c69636174696f6e206f766572666c6f60008301527f77000000000000000000000000000000000000000000000000000000000000006020830152604082019050919050565b6000614ab6602c83615616565b91507f4552433732313a20617070726f76656420717565727920666f72206e6f6e657860008301527f697374656e7420746f6b656e00000000000000000000000000000000000000006020830152604082019050919050565b6000614b1c602c83615616565b91507f4552433732314d657461646174613a2055524920736574206f66206e6f6e657860008301527f697374656e7420746f6b656e00000000000000000000000000000000000000006020830152604082019050919050565b6000614b82602983615616565b91507f4552433732313a207472616e73666572206f6620746f6b656e2074686174206960008301527f73206e6f74206f776e00000000000000000000000000000000000000000000006020830152604082019050919050565b6000614be8601d83615616565b91507f4572726f723a204574686572287329206e6f742070726f7669646564200000006000830152602082019050919050565b6000614c28602f83615616565b91507f4552433732314d657461646174613a2055524920717565727920666f72206e6f60008301527f6e6578697374656e7420746f6b656e00000000000000000000000000000000006020830152604082019050919050565b6000614c8e602183615616565b91507f4552433732313a20617070726f76616c20746f2063757272656e74206f776e6560008301527f72000000000000000000000000000000000000000000000000000000000000006020830152604082019050919050565b6000614cf4601f83615616565b91507f4572726f723a546869732050726f7065727479206e6f74206f6e2053616c65006000830152602082019050919050565b6000614d34603183615616565b91507f4552433732313a207472616e736665722063616c6c6572206973206e6f74206f60008301527f776e6572206e6f7220617070726f7665640000000000000000000000000000006020830152604082019050919050565b6000614d9a601d83615616565b91507f416464726573733a2063616c6c20746f206e6f6e2d636f6e74726163740000006000830152602082019050919050565b60a082016000820151614de36000850182614e35565b506020820151614df6602085018261429d565b506040820151614e096040850182614e35565b506060820151614e1c6060850182614392565b506080820151614e2f6080850182614e35565b50505050565b614e3e816156c1565b82525050565b614e4d816156c1565b82525050565b6000614e5f8284614361565b915081905092915050565b6000614e768285614453565b9150614e8282846143e9565b91508190509392505050565b6000602082019050614ea360008301846142ac565b92915050565b6000608082019050614ebe600083018761428e565b614ecb60208301866142ac565b614ed86040830185614e44565b8181036060830152614eea8184614328565b905095945050505050565b600061014082019050614f0b600083018d61427f565b614f18602083018c614e44565b8181036040830152614f2a818b6143b0565b90508181036060830152614f3e818a6143b0565b9050614f4d6080830189614e44565b81810360a0830152614f5f81886143b0565b905081810360c0830152614f7381876143b0565b9050614f8260e0830186614e44565b818103610100830152614f9581856143b0565b9050614fa5610120830184614319565b9b9a5050505050505050505050565b600060a082019050614fc960008301886142ac565b614fd6602083018761427f565b614fe36040830186614e44565b614ff06060830185614e44565b614ffd6080830184614319565b9695505050505050565b60006101408201905061501d600083018d6142ac565b61502a602083018c614e44565b818103604083015261503c818b61441a565b90508181036060830152615050818a61441a565b905061505f6080830189614e44565b81810360a0830152615071818861441a565b905081810360c0830152615085818761441a565b905061509460e0830186614e44565b8181036101008301526150a7818561441a565b90506150b7610120830184614319565b9b9a5050505050505050505050565b600060208201905081810360008301526150e081846142bb565b905092915050565b60006020820190506150fd6000830184614319565b92915050565b6000602082019050818103600083015261511d81846143b0565b905092915050565b6000602082019050818103600083015261513e816144e1565b9050919050565b6000602082019050818103600083015261515e81614547565b9050919050565b6000602082019050818103600083015261517e816145ad565b9050919050565b6000602082019050818103600083015261519e816145ed565b9050919050565b600060208201905081810360008301526151be81614653565b9050919050565b600060208201905081810360008301526151de816146b9565b9050919050565b600060208201905081810360008301526151fe8161471f565b9050919050565b6000602082019050818103600083015261521e8161475f565b9050919050565b6000602082019050818103600083015261523e816147c5565b9050919050565b6000602082019050818103600083015261525e8161482b565b9050919050565b6000602082019050818103600083015261527e81614891565b9050919050565b6000602082019050818103600083015261529e816148f7565b9050919050565b600060208201905081810360008301526152be8161495d565b9050919050565b600060208201905081810360008301526152de816149c3565b9050919050565b600060208201905081810360008301526152fe81614a03565b9050919050565b6000602082019050818103600083015261531e81614a43565b9050919050565b6000602082019050818103600083015261533e81614aa9565b9050919050565b6000602082019050818103600083015261535e81614b0f565b9050919050565b6000602082019050818103600083015261537e81614b75565b9050919050565b6000602082019050818103600083015261539e81614bdb565b9050919050565b600060208201905081810360008301526153be81614c1b565b9050919050565b600060208201905081810360008301526153de81614c81565b9050919050565b600060208201905081810360008301526153fe81614ce7565b9050919050565b6000602082019050818103600083015261541e81614d27565b9050919050565b6000602082019050818103600083015261543e81614d8d565b9050919050565b600060208201905061545a6000830184614e44565b92915050565b600060a0820190506154756000830188614e44565b615482602083018761427f565b61548f6040830186614e44565b61549c60608301856143a1565b6154a96080830184614e44565b9695505050505050565b600060a0820190506154c86000830188614e44565b6154d560208301876142ac565b6154e26040830186614e44565b6154ef60608301856143a1565b6154fc6080830184614e44565b9695505050505050565b6000604051905081810181811067ffffffffffffffff8211171561552957600080fd5b8060405250919050565b600067ffffffffffffffff82111561554a57600080fd5b601f19601f8301169050602081019050919050565b600067ffffffffffffffff82111561557657600080fd5b601f19601f8301169050602081019050919050565b6000819050602082019050919050565b60008190508160005260206000209050919050565b600081519050919050565b600081519050919050565b600081519050919050565b600081519050919050565b6000602082019050919050565b600082825260208201905092915050565b600082825260208201905092915050565b600081905092915050565b600082825260208201905092915050565b600081905092915050565b600061563d826156a1565b9050919050565b600061564f826156a1565b9050919050565b60008115159050919050565b60007fffffffff0000000000000000000000000000000000000000000000000000000082169050919050565b600081905061569c82615766565b919050565b600073ffffffffffffffffffffffffffffffffffffffff82169050919050565b6000819050919050565b60006156d6826156ef565b9050919050565b60006156e88261568e565b9050919050565b60006156fa82615701565b9050919050565b600061570c826156a1565b9050919050565b82818337600083830152505050565b60005b83811015615740578082015181840152602081019050615725565b8381111561574f576000848401525b50505050565b6000601f19601f8301169050919050565b6003811061577057fe5b50565b61577c81615632565b811461578757600080fd5b50565b61579381615656565b811461579e57600080fd5b50565b6157aa81615662565b81146157b557600080fd5b50565b6157c1816156c1565b81146157cc57600080fd5b5056fe4552433732313a207472616e7366657220746f206e6f6e20455243373231526563656976657220696d706c656d656e7465724552433732313a206f776e657220717565727920666f72206e6f6e6578697374656e7420746f6b656ea2646970667358221220c37be3f9dc822a742f6447a75898c514ee6cefcac1bb2b7442ccd86774313d7064736f6c63430006020033",
  "source": "pragma solidity ^0.6.0;\r\npragma experimental ABIEncoderV2;\r\n\r\nimport \"@openzeppelin/contracts/token/ERC721/ERC721.sol\";\r\n\r\ncontract SmartEstate is ERC721 {\r\n   uint256 private buyerId;\r\n    uint256 private tokenId;\r\n   // uint256 public sellerAddress;\r\n    //event Transfer(address BuyerAddress,address OwnerAddress,address Value);\r\n    event TransferList(address BuyerAddress,address OwnerAddress,uint256 PropertyId_TokenId,uint256 Value,bool saleStatus);\r\n    event property_Pricing(uint256);\r\n    enum offerApproval {pending, approved, rejected}\r\n    event saleStatus(bool);\r\n\r\n    struct PropertyDetails {\r\n        address sellerAddress;\r\n        uint256 propertyId;\r\n        string propertyAddress;\r\n        string city;\r\n        uint256 room;\r\n        string area;\r\n        string propertyType;\r\n        uint256 price;\r\n        string image;\r\n        bool saleStatus;\r\n    }\r\n    \r\n    event property_detail(address useraddress,\r\n        uint256 propertyId ,\r\n        string propertyAddress,\r\n        string city,\r\n        uint256 room,\r\n        string area,\r\n        string propertyType,\r\n        uint256 price,\r\n        string image,\r\n        bool saleStatus);\r\n\r\n    struct BuyerInfo {\r\n        uint256 bId;\r\n        address buyerAddress;\r\n        uint256 buyerOffer;\r\n        offerApproval request;\r\n        uint256 ApplyForToken;\r\n    }\r\n    event buyer_Info(uint256 buyerId,address buyerAddress,uint256 buyerOffer,offerApproval request,uint256 PropertyId_TokenId);\r\n    \r\n    modifier propertyOwner() {\r\n        require(\r\n            OnlyOwner[msg.sender].sellerAddress == msg.sender,\r\n            \"Error: Only Property Owner run this\"\r\n        );\r\n        _;\r\n    }\r\n\r\n    mapping(address => PropertyDetails) public OnlyOwner;\r\n    mapping(uint256 => address) public PropertyList;\r\n    mapping(address => BuyerInfo) public BuyerList;\r\n    mapping(uint256 => BuyerInfo[]) public AllBuyers;\r\n    mapping(uint256 => bool) public Offers;\r\n\r\n    constructor() public ERC721(\"Smart Estate Properties\", \"ESP\") {}\r\n\r\n    function RegisterProperty(\r\n        string memory _propertyAddress,\r\n        string memory _city,\r\n        uint256 _room,\r\n        string memory _area,\r\n        uint256 _priceInEther,\r\n        string memory _propertyType,\r\n        string memory _image,\r\n        bool _saleStatus,\r\n        string memory _tokenUri\r\n    ) public returns (bool) {\r\n        tokenId++;\r\n        uint256 thisId = tokenId;\r\n        _mint(msg.sender, thisId);\r\n        _setTokenURI(thisId, _tokenUri);\r\n\r\n        PropertyDetails memory tempDetails;\r\n\r\n        tempDetails = PropertyDetails({\r\n            sellerAddress: msg.sender,\r\n            propertyId: thisId,\r\n            propertyAddress: _propertyAddress,\r\n            city: _city,\r\n            room: _room,\r\n            area: _area,\r\n            propertyType: _propertyType,\r\n            price: _priceInEther,\r\n            image: _image,\r\n            saleStatus: _saleStatus\r\n        });\r\n        OnlyOwner[msg.sender] = tempDetails;\r\n        PropertyList[thisId] = msg.sender;\r\n        emit property_detail( msg.sender, thisId, _propertyAddress, _city,_room, _area, _propertyType, _priceInEther, _image,false);\r\n        return true;\r\n    }\r\n\r\n    function EnablePropertySale(uint256 PropertyId_TokenId)\r\n        public\r\n        propertyOwner\r\n        returns (bool)\r\n    {\r\n        require(\r\n            _exists(PropertyId_TokenId),\r\n            \"Error: INVALID Property id or token id\"\r\n        );\r\n        OnlyOwner[PropertyList[PropertyId_TokenId]].saleStatus = true;\r\n        emit saleStatus(true);\r\n        return true;\r\n    }\r\n\r\n    function PropertyPricing(uint256 PropertyId_TokenId)view\r\n        public\r\n        propertyOwner\r\n        returns (uint256)\r\n    {\r\n        require(\r\n            _exists(PropertyId_TokenId),\r\n            \"Error: INVALID Property id or token id\"\r\n        );\r\n          \r\n        return OnlyOwner[PropertyList[PropertyId_TokenId]].price;\r\n    }\r\n\r\n    function BuyingRequest(uint256 PropertyId_TokenId, uint256 offerInEthers)\r\n        public\r\n        returns (bool)\r\n    {\r\n        require(\r\n            _exists(PropertyId_TokenId),\r\n            \"Error: INVALID Property id or token id\"\r\n        );\r\n        require(\r\n            OnlyOwner[PropertyList[PropertyId_TokenId]].saleStatus,\r\n            \"Error:This Property not on Sale\"\r\n        );\r\n\r\n        buyerId++;\r\n\r\n        BuyerInfo memory tempDetails;\r\n        tempDetails = BuyerInfo({\r\n            bId: buyerId,\r\n            buyerAddress: msg.sender,\r\n            buyerOffer: offerInEthers,\r\n            request: offerApproval.pending,\r\n            ApplyForToken: PropertyId_TokenId\r\n        });\r\n        AllBuyers[PropertyId_TokenId].push(tempDetails);\r\n        BuyerList[msg.sender] = tempDetails;\r\n        BuyerList[msg.sender].request = offerApproval.pending;\r\n        emit buyer_Info(buyerId, msg.sender,offerInEthers,offerApproval.pending,PropertyId_TokenId);\r\n        return true;\r\n    }\r\n\r\n    function OfferStatus(uint256 PropertyId_TokenId)\r\n        public\r\n        propertyOwner\r\n        returns (BuyerInfo[] memory)\r\n    {\r\n        require(\r\n            _exists(PropertyId_TokenId),\r\n            \"Error: INVALID Property id or token id\"\r\n        );\r\n        BuyerInfo[] memory tempDetails;\r\n        tempDetails = AllBuyers[PropertyId_TokenId];\r\n        return tempDetails;\r\n    }\r\n\r\n    function OfferReject(uint256 PropertyId_TokenId, address _buyerAddress)\r\n        public\r\n        propertyOwner\r\n        returns (bool)\r\n    {\r\n        require(\r\n            _exists(PropertyId_TokenId),\r\n            \"Error: INVALID Property id or token id\"\r\n        );\r\n        require(\r\n            BuyerList[_buyerAddress].buyerAddress == _buyerAddress,\r\n            \"Error: INVALID buyer address \"\r\n        );\r\n        BuyerList[_buyerAddress].request = offerApproval.rejected;\r\n        return true;\r\n    }\r\n\r\n    function OfferAccept(uint256 PropertyId_TokenId, address _buyerAddress)\r\n        public\r\n        propertyOwner\r\n        returns (bool)\r\n    {\r\n        require(\r\n            _exists(PropertyId_TokenId),\r\n            \"Error: INVALID Property id or token id\"\r\n        );\r\n        require(\r\n            BuyerList[_buyerAddress].buyerAddress == _buyerAddress,\r\n            \"Error: INVALID buyer address \"\r\n        );\r\n        BuyerList[_buyerAddress].request = offerApproval.approved;\r\n        return true;\r\n    }\r\n\r\n    function BuyProperty(uint256 PropertyId_TokenId)\r\n        public\r\n        payable\r\n        returns (bool)\r\n    {\r\n        require(\r\n            _exists(PropertyId_TokenId),\r\n            \"Error: INVALID Property id or token id\"\r\n        );\r\n        require(\r\n            BuyerList[msg.sender].buyerAddress == msg.sender,\r\n            \"Error: INVALID buyer address \"\r\n        );\r\n        require(\r\n            BuyerList[msg.sender].request == offerApproval.approved,\r\n            \"Error: This Property not for sale (Offer request not approved)\"\r\n        );\r\n        require(msg.value > 0, \"Error: Ether(s) not provided \");\r\n        uint256 PropertyPrice = BuyerList[msg.sender].buyerOffer.mul(\r\n            1 * 10**18\r\n        );\r\n        require(\r\n            PropertyPrice == msg.value,\r\n            \"Error: Sorry, Pricing of property not matched with offer\"\r\n        );\r\n        address BuyerAddress = OnlyOwner[PropertyList[PropertyId_TokenId]]\r\n            .sellerAddress;\r\n        // _transfer(BuyerAddress, msg.sender, PropertyId_TokenId);\r\n        // emit Transfer(BuyerAddress, msg.sender, PropertyId_TokenId);\r\n        OnlyOwner[PropertyList[PropertyId_TokenId]].saleStatus = false;\r\n        emit TransferList(BuyerAddress, msg.sender, PropertyId_TokenId,PropertyPrice,false);\r\n        return true;\r\n        \r\n    }\r\n}\r\n",
  "sourcePath": "H:/Local D/SmartEstate_OwnershipTransfer/src/contracts/SmartEstate.sol",
  "compiler": {
    "name": "solc",
    "version": "0.6.2+commit.bacdbe57.Emscripten.clang"
  },
  "schemaVersion": "3.3.2",
  "updatedAt": "2021-01-08T18:12:07.185Z",
  "networkType": "ethereum",
  "devdoc": {
    "methods": {
      "approve(address,uint256)": {
        "details": "See {IERC721-approve}."
      },
      "balanceOf(address)": {
        "details": "See {IERC721-balanceOf}."
      },
      "baseURI()": {
        "details": "Returns the base URI set via {_setBaseURI}. This will be automatically added as a prefix in {tokenURI} to each token's URI, or to the token ID if no specific URI is set for that token ID."
      },
      "getApproved(uint256)": {
        "details": "See {IERC721-getApproved}."
      },
      "isApprovedForAll(address,address)": {
        "details": "See {IERC721-isApprovedForAll}."
      },
      "name()": {
        "details": "See {IERC721Metadata-name}."
      },
      "ownerOf(uint256)": {
        "details": "See {IERC721-ownerOf}."
      },
      "safeTransferFrom(address,address,uint256)": {
        "details": "See {IERC721-safeTransferFrom}."
      },
      "safeTransferFrom(address,address,uint256,bytes)": {
        "details": "See {IERC721-safeTransferFrom}."
      },
      "setApprovalForAll(address,bool)": {
        "details": "See {IERC721-setApprovalForAll}."
      },
      "supportsInterface(bytes4)": {
        "details": "See {IERC165-supportsInterface}.     * Time complexity O(1), guaranteed to always use less than 30 000 gas."
      },
      "symbol()": {
        "details": "See {IERC721Metadata-symbol}."
      },
      "tokenByIndex(uint256)": {
        "details": "See {IERC721Enumerable-tokenByIndex}."
      },
      "tokenOfOwnerByIndex(address,uint256)": {
        "details": "See {IERC721Enumerable-tokenOfOwnerByIndex}."
      },
      "tokenURI(uint256)": {
        "details": "See {IERC721Metadata-tokenURI}."
      },
      "totalSupply()": {
        "details": "See {IERC721Enumerable-totalSupply}."
      },
      "transferFrom(address,address,uint256)": {
        "details": "See {IERC721-transferFrom}."
      }
    }
  },
  "userdoc": {
    "methods": {}
  }
}