{
  "contractName": "SmartEstate",
  "abi": [
    {
      "inputs": [],
      "stateMutability": "nonpayable",
      "type": "constructor"
    },
    {
      "anonymous": false,
      "inputs": [
        {
          "indexed": true,
          "internalType": "address",
          "name": "owner",
          "type": "address"
        },
        {
          "indexed": true,
          "internalType": "address",
          "name": "approved",
          "type": "address"
        },
        {
          "indexed": true,
          "internalType": "uint256",
          "name": "tokenId",
          "type": "uint256"
        }
      ],
      "name": "Approval",
      "type": "event"
    },
    {
      "anonymous": false,
      "inputs": [
        {
          "indexed": true,
          "internalType": "address",
          "name": "owner",
          "type": "address"
        },
        {
          "indexed": true,
          "internalType": "address",
          "name": "operator",
          "type": "address"
        },
        {
          "indexed": false,
          "internalType": "bool",
          "name": "approved",
          "type": "bool"
        }
      ],
      "name": "ApprovalForAll",
      "type": "event"
    },
    {
      "anonymous": false,
      "inputs": [
        {
          "indexed": true,
          "internalType": "address",
          "name": "from",
          "type": "address"
        },
        {
          "indexed": true,
          "internalType": "address",
          "name": "to",
          "type": "address"
        },
        {
          "indexed": true,
          "internalType": "uint256",
          "name": "tokenId",
          "type": "uint256"
        }
      ],
      "name": "Transfer",
      "type": "event"
    },
    {
      "anonymous": false,
      "inputs": [
        {
          "indexed": false,
          "internalType": "uint256",
          "name": "buyerId",
          "type": "uint256"
        },
        {
          "indexed": false,
          "internalType": "address",
          "name": "buyerAddress",
          "type": "address"
        },
        {
          "indexed": false,
          "internalType": "uint256",
          "name": "buyerOffer",
          "type": "uint256"
        },
        {
          "indexed": false,
          "internalType": "enum SmartEstate.offerApproval",
          "name": "request",
          "type": "uint8"
        },
        {
          "indexed": false,
          "internalType": "uint256",
          "name": "PropertyId_TokenId",
          "type": "uint256"
        }
      ],
      "name": "buyer_Info",
      "type": "event"
    },
    {
      "anonymous": false,
      "inputs": [
        {
          "indexed": false,
          "internalType": "address",
          "name": "useraddress",
          "type": "address"
        },
        {
          "indexed": false,
          "internalType": "uint256",
          "name": "propertyId",
          "type": "uint256"
        },
        {
          "indexed": false,
          "internalType": "string",
          "name": "propertyAddress",
          "type": "string"
        },
        {
          "indexed": false,
          "internalType": "string",
          "name": "city",
          "type": "string"
        },
        {
          "indexed": false,
          "internalType": "uint256",
          "name": "room",
          "type": "uint256"
        },
        {
          "indexed": false,
          "internalType": "string",
          "name": "area",
          "type": "string"
        },
        {
          "indexed": false,
          "internalType": "string",
          "name": "propertyType",
          "type": "string"
        },
        {
          "indexed": false,
          "internalType": "uint256",
          "name": "price",
          "type": "uint256"
        },
        {
          "indexed": false,
          "internalType": "string",
          "name": "image",
          "type": "string"
        },
        {
          "indexed": false,
          "internalType": "bool",
          "name": "saleStatus",
          "type": "bool"
        }
      ],
      "name": "property_detail",
      "type": "event"
    },
    {
      "anonymous": false,
      "inputs": [
        {
          "indexed": false,
          "internalType": "bool",
          "name": "",
          "type": "bool"
        }
      ],
      "name": "saleStatus",
      "type": "event"
    },
    {
      "inputs": [
        {
          "internalType": "uint256",
          "name": "",
          "type": "uint256"
        },
        {
          "internalType": "uint256",
          "name": "",
          "type": "uint256"
        }
      ],
      "name": "AllBuyers",
      "outputs": [
        {
          "internalType": "uint256",
          "name": "bId",
          "type": "uint256"
        },
        {
          "internalType": "address",
          "name": "buyerAddress",
          "type": "address"
        },
        {
          "internalType": "uint256",
          "name": "buyerOffer",
          "type": "uint256"
        },
        {
          "internalType": "enum SmartEstate.offerApproval",
          "name": "request",
          "type": "uint8"
        },
        {
          "internalType": "uint256",
          "name": "ApplyForToken",
          "type": "uint256"
        }
      ],
      "stateMutability": "view",
      "type": "function",
      "constant": true
    },
    {
      "inputs": [
        {
          "internalType": "uint256",
          "name": "",
          "type": "uint256"
        }
      ],
      "name": "AllPropertyList",
      "outputs": [
        {
          "internalType": "address",
          "name": "sellerAddress",
          "type": "address"
        },
        {
          "internalType": "uint256",
          "name": "propertyId",
          "type": "uint256"
        },
        {
          "internalType": "string",
          "name": "propertyAddress",
          "type": "string"
        },
        {
          "internalType": "string",
          "name": "city",
          "type": "string"
        },
        {
          "internalType": "uint256",
          "name": "room",
          "type": "uint256"
        },
        {
          "internalType": "string",
          "name": "area",
          "type": "string"
        },
        {
          "internalType": "string",
          "name": "propertyType",
          "type": "string"
        },
        {
          "internalType": "uint256",
          "name": "price",
          "type": "uint256"
        },
        {
          "internalType": "string",
          "name": "image",
          "type": "string"
        },
        {
          "internalType": "bool",
          "name": "saleStatus",
          "type": "bool"
        }
      ],
      "stateMutability": "view",
      "type": "function",
      "constant": true
    },
    {
      "inputs": [
        {
          "internalType": "uint256",
          "name": "",
          "type": "uint256"
        }
      ],
      "name": "Offers",
      "outputs": [
        {
          "internalType": "bool",
          "name": "",
          "type": "bool"
        }
      ],
      "stateMutability": "view",
      "type": "function",
      "constant": true
    },
    {
      "inputs": [
        {
          "internalType": "address",
          "name": "",
          "type": "address"
        }
      ],
      "name": "OnlyOwner",
      "outputs": [
        {
          "internalType": "address",
          "name": "sellerAddress",
          "type": "address"
        },
        {
          "internalType": "uint256",
          "name": "propertyId",
          "type": "uint256"
        },
        {
          "internalType": "string",
          "name": "propertyAddress",
          "type": "string"
        },
        {
          "internalType": "string",
          "name": "city",
          "type": "string"
        },
        {
          "internalType": "uint256",
          "name": "room",
          "type": "uint256"
        },
        {
          "internalType": "string",
          "name": "area",
          "type": "string"
        },
        {
          "internalType": "string",
          "name": "propertyType",
          "type": "string"
        },
        {
          "internalType": "uint256",
          "name": "price",
          "type": "uint256"
        },
        {
          "internalType": "string",
          "name": "image",
          "type": "string"
        },
        {
          "internalType": "bool",
          "name": "saleStatus",
          "type": "bool"
        }
      ],
      "stateMutability": "view",
      "type": "function",
      "constant": true
    },
    {
      "inputs": [
        {
          "internalType": "uint256",
          "name": "",
          "type": "uint256"
        },
        {
          "internalType": "address",
          "name": "",
          "type": "address"
        }
      ],
      "name": "PropertyBuyerList",
      "outputs": [
        {
          "internalType": "uint256",
          "name": "bId",
          "type": "uint256"
        },
        {
          "internalType": "address",
          "name": "buyerAddress",
          "type": "address"
        },
        {
          "internalType": "uint256",
          "name": "buyerOffer",
          "type": "uint256"
        },
        {
          "internalType": "enum SmartEstate.offerApproval",
          "name": "request",
          "type": "uint8"
        },
        {
          "internalType": "uint256",
          "name": "ApplyForToken",
          "type": "uint256"
        }
      ],
      "stateMutability": "view",
      "type": "function",
      "constant": true
    },
    {
      "inputs": [
        {
          "internalType": "uint256",
          "name": "",
          "type": "uint256"
        }
      ],
      "name": "PropertyList",
      "outputs": [
        {
          "internalType": "address",
          "name": "",
          "type": "address"
        }
      ],
      "stateMutability": "view",
      "type": "function",
      "constant": true
    },
    {
      "inputs": [
        {
          "internalType": "address",
          "name": "to",
          "type": "address"
        },
        {
          "internalType": "uint256",
          "name": "tokenId",
          "type": "uint256"
        }
      ],
      "name": "approve",
      "outputs": [],
      "stateMutability": "nonpayable",
      "type": "function"
    },
    {
      "inputs": [
        {
          "internalType": "address",
          "name": "owner",
          "type": "address"
        }
      ],
      "name": "balanceOf",
      "outputs": [
        {
          "internalType": "uint256",
          "name": "",
          "type": "uint256"
        }
      ],
      "stateMutability": "view",
      "type": "function",
      "constant": true
    },
    {
      "inputs": [],
      "name": "baseURI",
      "outputs": [
        {
          "internalType": "string",
          "name": "",
          "type": "string"
        }
      ],
      "stateMutability": "view",
      "type": "function",
      "constant": true
    },
    {
      "inputs": [
        {
          "internalType": "uint256",
          "name": "tokenId",
          "type": "uint256"
        }
      ],
      "name": "getApproved",
      "outputs": [
        {
          "internalType": "address",
          "name": "",
          "type": "address"
        }
      ],
      "stateMutability": "view",
      "type": "function",
      "constant": true
    },
    {
      "inputs": [
        {
          "internalType": "address",
          "name": "owner",
          "type": "address"
        },
        {
          "internalType": "address",
          "name": "operator",
          "type": "address"
        }
      ],
      "name": "isApprovedForAll",
      "outputs": [
        {
          "internalType": "bool",
          "name": "",
          "type": "bool"
        }
      ],
      "stateMutability": "view",
      "type": "function",
      "constant": true
    },
    {
      "inputs": [],
      "name": "name",
      "outputs": [
        {
          "internalType": "string",
          "name": "",
          "type": "string"
        }
      ],
      "stateMutability": "view",
      "type": "function",
      "constant": true
    },
    {
      "inputs": [
        {
          "internalType": "uint256",
          "name": "tokenId",
          "type": "uint256"
        }
      ],
      "name": "ownerOf",
      "outputs": [
        {
          "internalType": "address",
          "name": "",
          "type": "address"
        }
      ],
      "stateMutability": "view",
      "type": "function",
      "constant": true
    },
    {
      "inputs": [
        {
          "internalType": "address",
          "name": "from",
          "type": "address"
        },
        {
          "internalType": "address",
          "name": "to",
          "type": "address"
        },
        {
          "internalType": "uint256",
          "name": "tokenId",
          "type": "uint256"
        }
      ],
      "name": "safeTransferFrom",
      "outputs": [],
      "stateMutability": "nonpayable",
      "type": "function"
    },
    {
      "inputs": [
        {
          "internalType": "address",
          "name": "from",
          "type": "address"
        },
        {
          "internalType": "address",
          "name": "to",
          "type": "address"
        },
        {
          "internalType": "uint256",
          "name": "tokenId",
          "type": "uint256"
        },
        {
          "internalType": "bytes",
          "name": "_data",
          "type": "bytes"
        }
      ],
      "name": "safeTransferFrom",
      "outputs": [],
      "stateMutability": "nonpayable",
      "type": "function"
    },
    {
      "inputs": [
        {
          "internalType": "address",
          "name": "operator",
          "type": "address"
        },
        {
          "internalType": "bool",
          "name": "approved",
          "type": "bool"
        }
      ],
      "name": "setApprovalForAll",
      "outputs": [],
      "stateMutability": "nonpayable",
      "type": "function"
    },
    {
      "inputs": [
        {
          "internalType": "bytes4",
          "name": "interfaceId",
          "type": "bytes4"
        }
      ],
      "name": "supportsInterface",
      "outputs": [
        {
          "internalType": "bool",
          "name": "",
          "type": "bool"
        }
      ],
      "stateMutability": "view",
      "type": "function",
      "constant": true
    },
    {
      "inputs": [],
      "name": "symbol",
      "outputs": [
        {
          "internalType": "string",
          "name": "",
          "type": "string"
        }
      ],
      "stateMutability": "view",
      "type": "function",
      "constant": true
    },
    {
      "inputs": [
        {
          "internalType": "uint256",
          "name": "index",
          "type": "uint256"
        }
      ],
      "name": "tokenByIndex",
      "outputs": [
        {
          "internalType": "uint256",
          "name": "",
          "type": "uint256"
        }
      ],
      "stateMutability": "view",
      "type": "function",
      "constant": true
    },
    {
      "inputs": [],
      "name": "tokenId",
      "outputs": [
        {
          "internalType": "uint256",
          "name": "",
          "type": "uint256"
        }
      ],
      "stateMutability": "view",
      "type": "function",
      "constant": true
    },
    {
      "inputs": [
        {
          "internalType": "address",
          "name": "owner",
          "type": "address"
        },
        {
          "internalType": "uint256",
          "name": "index",
          "type": "uint256"
        }
      ],
      "name": "tokenOfOwnerByIndex",
      "outputs": [
        {
          "internalType": "uint256",
          "name": "",
          "type": "uint256"
        }
      ],
      "stateMutability": "view",
      "type": "function",
      "constant": true
    },
    {
      "inputs": [
        {
          "internalType": "uint256",
          "name": "tokenId",
          "type": "uint256"
        }
      ],
      "name": "tokenURI",
      "outputs": [
        {
          "internalType": "string",
          "name": "",
          "type": "string"
        }
      ],
      "stateMutability": "view",
      "type": "function",
      "constant": true
    },
    {
      "inputs": [],
      "name": "totalSupply",
      "outputs": [
        {
          "internalType": "uint256",
          "name": "",
          "type": "uint256"
        }
      ],
      "stateMutability": "view",
      "type": "function",
      "constant": true
    },
    {
      "inputs": [
        {
          "internalType": "address",
          "name": "from",
          "type": "address"
        },
        {
          "internalType": "address",
          "name": "to",
          "type": "address"
        },
        {
          "internalType": "uint256",
          "name": "tokenId",
          "type": "uint256"
        }
      ],
      "name": "transferFrom",
      "outputs": [],
      "stateMutability": "nonpayable",
      "type": "function"
    },
    {
      "inputs": [
        {
          "internalType": "string",
          "name": "_propertyAddress",
          "type": "string"
        },
        {
          "internalType": "string",
          "name": "_city",
          "type": "string"
        },
        {
          "internalType": "uint256",
          "name": "_room",
          "type": "uint256"
        },
        {
          "internalType": "string",
          "name": "_area",
          "type": "string"
        },
        {
          "internalType": "uint256",
          "name": "_priceInEther",
          "type": "uint256"
        },
        {
          "internalType": "string",
          "name": "_propertyType",
          "type": "string"
        },
        {
          "internalType": "string",
          "name": "_image",
          "type": "string"
        },
        {
          "internalType": "bool",
          "name": "_saleStatus",
          "type": "bool"
        },
        {
          "internalType": "string",
          "name": "_tokenUri",
          "type": "string"
        }
      ],
      "name": "RegisterProperty",
      "outputs": [
        {
          "internalType": "bool",
          "name": "",
          "type": "bool"
        }
      ],
      "stateMutability": "nonpayable",
      "type": "function"
    },
    {
      "inputs": [
        {
          "internalType": "uint256",
          "name": "PropertyId_TokenId",
          "type": "uint256"
        }
      ],
      "name": "EnablePropertySale",
      "outputs": [
        {
          "internalType": "bool",
          "name": "",
          "type": "bool"
        }
      ],
      "stateMutability": "nonpayable",
      "type": "function"
    },
    {
      "inputs": [
        {
          "internalType": "uint256",
          "name": "PropertyId_TokenId",
          "type": "uint256"
        }
      ],
      "name": "PropertyPricing",
      "outputs": [
        {
          "internalType": "uint256",
          "name": "",
          "type": "uint256"
        }
      ],
      "stateMutability": "view",
      "type": "function",
      "constant": true
    },
    {
      "inputs": [
        {
          "internalType": "uint256",
          "name": "PropertyId_TokenId",
          "type": "uint256"
        },
        {
          "internalType": "uint256",
          "name": "offerInEthers",
          "type": "uint256"
        }
      ],
      "name": "BuyingRequest",
      "outputs": [
        {
          "internalType": "bool",
          "name": "",
          "type": "bool"
        }
      ],
      "stateMutability": "nonpayable",
      "type": "function"
    },
    {
      "inputs": [
        {
          "internalType": "uint256",
          "name": "PropertyId_TokenId",
          "type": "uint256"
        }
      ],
      "name": "OfferStatus",
      "outputs": [
        {
          "components": [
            {
              "internalType": "uint256",
              "name": "bId",
              "type": "uint256"
            },
            {
              "internalType": "address",
              "name": "buyerAddress",
              "type": "address"
            },
            {
              "internalType": "uint256",
              "name": "buyerOffer",
              "type": "uint256"
            },
            {
              "internalType": "enum SmartEstate.offerApproval",
              "name": "request",
              "type": "uint8"
            },
            {
              "internalType": "uint256",
              "name": "ApplyForToken",
              "type": "uint256"
            }
          ],
          "internalType": "struct SmartEstate.BuyerInfo[]",
          "name": "",
          "type": "tuple[]"
        }
      ],
      "stateMutability": "nonpayable",
      "type": "function"
    },
    {
      "inputs": [
        {
          "internalType": "uint256",
          "name": "PropertyId_TokenId",
          "type": "uint256"
        },
        {
          "internalType": "address",
          "name": "_buyerAddress",
          "type": "address"
        }
      ],
      "name": "OfferReject",
      "outputs": [
        {
          "internalType": "bool",
          "name": "",
          "type": "bool"
        }
      ],
      "stateMutability": "nonpayable",
      "type": "function"
    },
    {
      "inputs": [
        {
          "internalType": "uint256",
          "name": "PropertyId_TokenId",
          "type": "uint256"
        },
        {
          "internalType": "address",
          "name": "_buyerAddress",
          "type": "address"
        }
      ],
      "name": "OfferAccept",
      "outputs": [
        {
          "internalType": "bool",
          "name": "",
          "type": "bool"
        }
      ],
      "stateMutability": "nonpayable",
      "type": "function"
    },
    {
      "inputs": [
        {
          "internalType": "uint256",
          "name": "PropertyId_TokenId",
          "type": "uint256"
        }
      ],
      "name": "BuyProperty",
      "outputs": [
        {
          "internalType": "bool",
          "name": "",
          "type": "bool"
        }
      ],
      "stateMutability": "payable",
      "type": "function",
      "payable": true
    }
  ],
  "bytecode": "0x60806040523480156200001157600080fd5b506040518060400160405280601781526020017f536d617274204573746174652050726f706572746965730000000000000000008152506040518060400160405280600381526020017f4553500000000000000000000000000000000000000000000000000000000000815250620000966301ffc9a760e01b6200011860201b60201c565b8160069080519060200190620000ae929190620001f0565b508060079080519060200190620000c7929190620001f0565b50620000e06380ac58cd60e01b6200011860201b60201c565b620000f8635b5e139f60e01b6200011860201b60201c565b6200011063780e9d6360e01b6200011860201b60201c565b505062000314565b63ffffffff60e01b817bffffffffffffffffffffffffffffffffffffffffffffffffffffffff1916141562000184576040517f08c379a00000000000000000000000000000000000000000000000000000000081526004016200017b90620002e1565b60405180910390fd5b6001600080837bffffffffffffffffffffffffffffffffffffffffffffffffffffffff19167bffffffffffffffffffffffffffffffffffffffffffffffffffffffff1916815260200190815260200160002060006101000a81548160ff02191690831515021790555050565b828054600181600116156101000203166002900490600052602060002090601f016020900481019282601f106200023357805160ff191683800117855562000264565b8280016001018555821562000264579182015b828111156200026357825182559160200191906001019062000246565b5b50905062000273919062000277565b5090565b6200029c91905b80821115620002985760008160009055506001016200027e565b5090565b90565b6000620002ae601c8362000303565b91507f4552433136353a20696e76616c696420696e74657266616365206964000000006000830152602082019050919050565b60006020820190508181036000830152620002fc816200029f565b9050919050565b600082825260208201905092915050565b615db380620003246000396000f3fe6080604052600436106101e35760003560e01c806345482f421161010257806395d89b4111610095578063c87b56dd11610064578063c87b56dd146107e3578063d7c871d414610820578063e985e9c51461085d578063eeb2fd4b1461089a576101e3565b806395d89b4114610720578063a22cb4651461074b578063a7e1478714610774578063b88d4fde146107ba576101e3565b80636352211e116100d15780636352211e1461063e5780636c0360eb1461067b57806370a08231146106a6578063822dcd4b146106e3576101e3565b806345482f421461054a5780634a1452ab146105875780634f6ccce7146105c45780635a05a50614610601576101e3565b806323b872dd1161017a57806332783c4c1161014957806332783c4c1461046657806337c5ab1a146104a35780634266fa17146104e457806342842e0e14610521576101e3565b806323b872dd1461039357806325a59600146103bc5780632f71513f146103ec5780632f745c5914610429576101e3565b80630a86c02a116101b65780630a86c02a146102b657806317d70f7c146102fc57806318160ddd14610327578063225cf72e14610352576101e3565b806301ffc9a7146101e857806306fdde0314610225578063081812fc14610250578063095ea7b31461028d575b600080fd5b3480156101f457600080fd5b5061020f600480360361020a91908101906145c4565b6108d7565b60405161021c919061563b565b60405180910390f35b34801561023157600080fd5b5061023a61093e565b6040516102479190615656565b60405180910390f35b34801561025c57600080fd5b506102776004803603610272919081019061476c565b6109e0565b6040516102849190615434565b60405180910390f35b34801561029957600080fd5b506102b460048036036102af9190810190614588565b610a65565b005b3480156102c257600080fd5b506102dd60048036036102d8919081019061441d565b610b7d565b6040516102f39a9998979695949392919061555a565b60405180910390f35b34801561030857600080fd5b50610311610ef6565b60405161031e9190615998565b60405180910390f35b34801561033357600080fd5b5061033c610efc565b6040516103499190615998565b60405180910390f35b34801561035e57600080fd5b50610379600480360361037491908101906147d1565b610f0d565b60405161038a959493929190615a06565b60405180910390f35b34801561039f57600080fd5b506103ba60048036036103b59190810190614482565b610f8a565b005b6103d660048036036103d1919081019061476c565b610fea565b6040516103e3919061563b565b60405180910390f35b3480156103f857600080fd5b50610413600480360361040e9190810190614795565b611403565b604051610420919061563b565b60405180910390f35b34801561043557600080fd5b50610450600480360361044b9190810190614588565b61167d565b60405161045d9190615998565b60405180910390f35b34801561047257600080fd5b5061048d6004803603610488919081019061476c565b6116d8565b60405161049a9190615998565b60405180910390f35b3480156104af57600080fd5b506104ca60048036036104c59190810190614795565b61186f565b6040516104db959493929190615a06565b60405180910390f35b3480156104f057600080fd5b5061050b60048036036105069190810190614616565b6118df565b604051610518919061563b565b60405180910390f35b34801561052d57600080fd5b5061054860048036036105439190810190614482565b611caf565b005b34801561055657600080fd5b50610571600480360361056c91908101906147d1565b611ccf565b60405161057e919061563b565b60405180910390f35b34801561059357600080fd5b506105ae60048036036105a9919081019061476c565b6120b3565b6040516105bb9190615434565b60405180910390f35b3480156105d057600080fd5b506105eb60048036036105e6919081019061476c565b6120e6565b6040516105f89190615998565b60405180910390f35b34801561060d57600080fd5b506106286004803603610623919081019061476c565b612109565b6040516106359190615619565b60405180910390f35b34801561064a57600080fd5b506106656004803603610660919081019061476c565b61233a565b6040516106729190615434565b60405180910390f35b34801561068757600080fd5b50610690612371565b60405161069d9190615656565b60405180910390f35b3480156106b257600080fd5b506106cd60048036036106c8919081019061441d565b612413565b6040516106da9190615998565b60405180910390f35b3480156106ef57600080fd5b5061070a6004803603610705919081019061476c565b6124d2565b604051610717919061563b565b60405180910390f35b34801561072c57600080fd5b506107356126bb565b6040516107429190615656565b60405180910390f35b34801561075757600080fd5b50610772600480360361076d919081019061454c565b61275d565b005b34801561078057600080fd5b5061079b6004803603610796919081019061476c565b6128de565b6040516107b19a9998979695949392919061555a565b60405180910390f35b3480156107c657600080fd5b506107e160048036036107dc91908101906144d1565b612c57565b005b3480156107ef57600080fd5b5061080a6004803603610805919081019061476c565b612cb9565b6040516108179190615656565b60405180910390f35b34801561082c57600080fd5b506108476004803603610842919081019061476c565b612e44565b604051610854919061563b565b60405180910390f35b34801561086957600080fd5b50610884600480360361087f9190810190614446565b612e64565b604051610891919061563b565b60405180910390f35b3480156108a657600080fd5b506108c160048036036108bc9190810190614795565b612ef8565b6040516108ce919061563b565b60405180910390f35b6000806000837bffffffffffffffffffffffffffffffffffffffffffffffffffffffff19167bffffffffffffffffffffffffffffffffffffffffffffffffffffffff1916815260200190815260200160002060009054906101000a900460ff169050919050565b606060068054600181600116156101000203166002900480601f0160208091040260200160405190810160405280929190818152602001828054600181600116156101000203166002900480156109d65780601f106109ab576101008083540402835291602001916109d6565b820191906000526020600020905b8154815290600101906020018083116109b957829003601f168201915b5050505050905090565b60006109eb82613172565b610a2a576040517f08c379a0000000000000000000000000000000000000000000000000000000008152600401610a2190615878565b60405180910390fd5b6004600083815260200190815260200160002060009054906101000a900473ffffffffffffffffffffffffffffffffffffffff169050919050565b6000610a708261233a565b90508073ffffffffffffffffffffffffffffffffffffffff168373ffffffffffffffffffffffffffffffffffffffff161415610ae1576040517f08c379a0000000000000000000000000000000000000000000000000000000008152600401610ad890615918565b60405180910390fd5b8073ffffffffffffffffffffffffffffffffffffffff16610b0061318f565b73ffffffffffffffffffffffffffffffffffffffff161480610b2f5750610b2e81610b2961318f565b612e64565b5b610b6e576040517f08c379a0000000000000000000000000000000000000000000000000000000008152600401610b65906157b8565b60405180910390fd5b610b788383613197565b505050565b600d6020528060005260406000206000915090508060000160009054906101000a900473ffffffffffffffffffffffffffffffffffffffff1690806001015490806002018054600181600116156101000203166002900480601f016020809104026020016040519081016040528092919081815260200182805460018160011615610100020316600290048015610c555780601f10610c2a57610100808354040283529160200191610c55565b820191906000526020600020905b815481529060010190602001808311610c3857829003601f168201915b505050505090806003018054600181600116156101000203166002900480601f016020809104026020016040519081016040528092919081815260200182805460018160011615610100020316600290048015610cf35780601f10610cc857610100808354040283529160200191610cf3565b820191906000526020600020905b815481529060010190602001808311610cd657829003601f168201915b505050505090806004015490806005018054600181600116156101000203166002900480601f016020809104026020016040519081016040528092919081815260200182805460018160011615610100020316600290048015610d975780601f10610d6c57610100808354040283529160200191610d97565b820191906000526020600020905b815481529060010190602001808311610d7a57829003601f168201915b505050505090806006018054600181600116156101000203166002900480601f016020809104026020016040519081016040528092919081815260200182805460018160011615610100020316600290048015610e355780601f10610e0a57610100808354040283529160200191610e35565b820191906000526020600020905b815481529060010190602001808311610e1857829003601f168201915b505050505090806007015490806008018054600181600116156101000203166002900480601f016020809104026020016040519081016040528092919081815260200182805460018160011615610100020316600290048015610ed95780601f10610eae57610100808354040283529160200191610ed9565b820191906000526020600020905b815481529060010190602001808311610ebc57829003601f168201915b5050505050908060090160009054906101000a900460ff1690508a565b600b5481565b6000610f086002613250565b905090565b600f6020528160005260406000208181548110610f2657fe5b9060005260206000209060050201600091509150508060000154908060010160009054906101000a900473ffffffffffffffffffffffffffffffffffffffff16908060020154908060030160009054906101000a900460ff16908060040154905085565b610f9b610f9561318f565b82613265565b610fda576040517f08c379a0000000000000000000000000000000000000000000000000000000008152600401610fd190615958565b60405180910390fd5b610fe5838383613343565b505050565b6000610ff582613172565b611034576040517f08c379a000000000000000000000000000000000000000000000000000000000815260040161102b906156d8565b60405180910390fd5b3373ffffffffffffffffffffffffffffffffffffffff166011600084815260200190815260200160002060003373ffffffffffffffffffffffffffffffffffffffff1673ffffffffffffffffffffffffffffffffffffffff16815260200190815260200160002060010160009054906101000a900473ffffffffffffffffffffffffffffffffffffffff1673ffffffffffffffffffffffffffffffffffffffff1614611115576040517f08c379a000000000000000000000000000000000000000000000000000000000815260040161110c90615838565b60405180910390fd5b6001600281111561112257fe5b6011600084815260200190815260200160002060003373ffffffffffffffffffffffffffffffffffffffff1673ffffffffffffffffffffffffffffffffffffffff16815260200190815260200160002060030160009054906101000a900460ff16600281111561118e57fe5b146111ce576040517f08c379a00000000000000000000000000000000000000000000000000000000081526004016111c590615778565b60405180910390fd5b60003411611211576040517f08c379a0000000000000000000000000000000000000000000000000000000008152600401611208906158d8565b60405180910390fd5b6000611281670de0b6b3a76400006011600086815260200190815260200160002060003373ffffffffffffffffffffffffffffffffffffffff1673ffffffffffffffffffffffffffffffffffffffff1681526020019081526020016000206002015461355a90919063ffffffff16565b90503481146112c5576040517f08c379a00000000000000000000000000000000000000000000000000000000081526004016112bc90615758565b60405180910390fd5b6000600d6000600e600087815260200190815260200160002060009054906101000a900473ffffffffffffffffffffffffffffffffffffffff1673ffffffffffffffffffffffffffffffffffffffff1673ffffffffffffffffffffffffffffffffffffffff16815260200190815260200160002060000160009054906101000a900473ffffffffffffffffffffffffffffffffffffffff16905061136a813386613343565b6000600d6000600e600088815260200190815260200160002060009054906101000a900473ffffffffffffffffffffffffffffffffffffffff1673ffffffffffffffffffffffffffffffffffffffff1673ffffffffffffffffffffffffffffffffffffffff16815260200190815260200160002060090160006101000a81548160ff021916908315150217905550600192505050919050565b60003373ffffffffffffffffffffffffffffffffffffffff16600d60003373ffffffffffffffffffffffffffffffffffffffff1673ffffffffffffffffffffffffffffffffffffffff16815260200190815260200160002060000160009054906101000a900473ffffffffffffffffffffffffffffffffffffffff1673ffffffffffffffffffffffffffffffffffffffff16146114d5576040517f08c379a00000000000000000000000000000000000000000000000000000000081526004016114cc906156f8565b60405180910390fd5b6114de83613172565b61151d576040517f08c379a0000000000000000000000000000000000000000000000000000000008152600401611514906156d8565b60405180910390fd5b8173ffffffffffffffffffffffffffffffffffffffff166011600085815260200190815260200160002060008473ffffffffffffffffffffffffffffffffffffffff1673ffffffffffffffffffffffffffffffffffffffff16815260200190815260200160002060010160009054906101000a900473ffffffffffffffffffffffffffffffffffffffff1673ffffffffffffffffffffffffffffffffffffffff16146115fe576040517f08c379a00000000000000000000000000000000000000000000000000000000081526004016115f590615838565b60405180910390fd5b60016011600085815260200190815260200160002060008473ffffffffffffffffffffffffffffffffffffffff1673ffffffffffffffffffffffffffffffffffffffff16815260200190815260200160002060030160006101000a81548160ff0219169083600281111561166e57fe5b02179055506001905092915050565b60006116d082600160008673ffffffffffffffffffffffffffffffffffffffff1673ffffffffffffffffffffffffffffffffffffffff1681526020019081526020016000206135ca90919063ffffffff16565b905092915050565b60003373ffffffffffffffffffffffffffffffffffffffff16600d60003373ffffffffffffffffffffffffffffffffffffffff1673ffffffffffffffffffffffffffffffffffffffff16815260200190815260200160002060000160009054906101000a900473ffffffffffffffffffffffffffffffffffffffff1673ffffffffffffffffffffffffffffffffffffffff16146117aa576040517f08c379a00000000000000000000000000000000000000000000000000000000081526004016117a1906156f8565b60405180910390fd5b6117b382613172565b6117f2576040517f08c379a00000000000000000000000000000000000000000000000000000000081526004016117e9906156d8565b60405180910390fd5b600d6000600e600085815260200190815260200160002060009054906101000a900473ffffffffffffffffffffffffffffffffffffffff1673ffffffffffffffffffffffffffffffffffffffff1673ffffffffffffffffffffffffffffffffffffffff168152602001908152602001600020600701549050919050565b6011602052816000526040600020602052806000526040600020600091509150508060000154908060010160009054906101000a900473ffffffffffffffffffffffffffffffffffffffff16908060020154908060030160009054906101000a900460ff16908060040154905085565b6000600b600081548092919060010191905055506000600b54905061190433826135e4565b61190e8184613772565b61191661412c565b6040518061014001604052803373ffffffffffffffffffffffffffffffffffffffff1681526020018381526020018d81526020018c81526020018b81526020018a8152602001888152602001898152602001878152602001861515815250905080600d60003373ffffffffffffffffffffffffffffffffffffffff1673ffffffffffffffffffffffffffffffffffffffff16815260200190815260200160002060008201518160000160006101000a81548173ffffffffffffffffffffffffffffffffffffffff021916908373ffffffffffffffffffffffffffffffffffffffff160217905550602082015181600101556040820151816002019080519060200190611a23929190614197565b506060820151816003019080519060200190611a40929190614197565b506080820151816004015560a0820151816005019080519060200190611a67929190614197565b5060c0820151816006019080519060200190611a84929190614197565b5060e08201518160070155610100820151816008019080519060200190611aac929190614197565b506101208201518160090160006101000a81548160ff02191690831515021790555090505033600e600084815260200190815260200160002060006101000a81548173ffffffffffffffffffffffffffffffffffffffff021916908373ffffffffffffffffffffffffffffffffffffffff16021790555080600c600084815260200190815260200160002060008201518160000160006101000a81548173ffffffffffffffffffffffffffffffffffffffff021916908373ffffffffffffffffffffffffffffffffffffffff160217905550602082015181600101556040820151816002019080519060200190611ba4929190614197565b506060820151816003019080519060200190611bc1929190614197565b506080820151816004015560a0820151816005019080519060200190611be8929190614197565b5060c0820151816006019080519060200190611c05929190614197565b5060e08201518160070155610100820151816008019080519060200190611c2d929190614197565b506101208201518160090160006101000a81548160ff0219169083151502179055509050507f5baccd78aa26fd4d554e82a7b7cd78e216126f45cd329b96affd63b68bc55a5b33838e8e8e8e8d8f8e6001604051611c949a9998979695949392919061549b565b60405180910390a16001925050509998505050505050505050565b611cca83838360405180602001604052806000815250612c57565b505050565b6000611cda83613172565b611d19576040517f08c379a0000000000000000000000000000000000000000000000000000000008152600401611d10906156d8565b60405180910390fd5b600d6000600e600086815260200190815260200160002060009054906101000a900473ffffffffffffffffffffffffffffffffffffffff1673ffffffffffffffffffffffffffffffffffffffff1673ffffffffffffffffffffffffffffffffffffffff16815260200190815260200160002060090160009054906101000a900460ff16611ddb576040517f08c379a0000000000000000000000000000000000000000000000000000000008152600401611dd290615938565b60405180910390fd5b600a60008154809291906001019190505550611df5614217565b6040518060a00160405280600a5481526020013373ffffffffffffffffffffffffffffffffffffffff16815260200184815260200160006002811115611e3757fe5b8152602001858152509050600f60008581526020019081526020016000208190806001815401808255809150506001900390600052602060002090600502016000909190919091506000820151816000015560208201518160010160006101000a81548173ffffffffffffffffffffffffffffffffffffffff021916908373ffffffffffffffffffffffffffffffffffffffff1602179055506040820151816002015560608201518160030160006101000a81548160ff02191690836002811115611efe57fe5b0217905550608082015181600401555050806011600086815260200190815260200160002060003373ffffffffffffffffffffffffffffffffffffffff1673ffffffffffffffffffffffffffffffffffffffff1681526020019081526020016000206000820151816000015560208201518160010160006101000a81548173ffffffffffffffffffffffffffffffffffffffff021916908373ffffffffffffffffffffffffffffffffffffffff1602179055506040820151816002015560608201518160030160006101000a81548160ff02191690836002811115611fdf57fe5b02179055506080820151816004015590505060006011600086815260200190815260200160002060003373ffffffffffffffffffffffffffffffffffffffff1673ffffffffffffffffffffffffffffffffffffffff16815260200190815260200160002060030160006101000a81548160ff0219169083600281111561206157fe5b02179055507f5e32f8ede2b15e4764db8fa23372e645976247f93e7daeec1ed11cb061909947600a5433856000886040516120a09594939291906159b3565b60405180910390a1600191505092915050565b600e6020528060005260406000206000915054906101000a900473ffffffffffffffffffffffffffffffffffffffff1681565b6000806120fd8360026137e690919063ffffffff16565b50905080915050919050565b60603373ffffffffffffffffffffffffffffffffffffffff16600d60003373ffffffffffffffffffffffffffffffffffffffff1673ffffffffffffffffffffffffffffffffffffffff16815260200190815260200160002060000160009054906101000a900473ffffffffffffffffffffffffffffffffffffffff1673ffffffffffffffffffffffffffffffffffffffff16146121db576040517f08c379a00000000000000000000000000000000000000000000000000000000081526004016121d2906156f8565b60405180910390fd5b6121e482613172565b612223576040517f08c379a000000000000000000000000000000000000000000000000000000000815260040161221a906156d8565b60405180910390fd5b6060600f6000848152602001908152602001600020805480602002602001604051908101604052809291908181526020016000905b8282101561232b57838290600052602060002090600502016040518060a0016040529081600082015481526020016001820160009054906101000a900473ffffffffffffffffffffffffffffffffffffffff1673ffffffffffffffffffffffffffffffffffffffff1673ffffffffffffffffffffffffffffffffffffffff168152602001600282015481526020016003820160009054906101000a900460ff16600281111561230357fe5b600281111561230e57fe5b815260200160048201548152505081526020019060010190612258565b50505050905080915050919050565b600061236a82604051806060016040528060298152602001615d556029913960026138159092919063ffffffff16565b9050919050565b606060098054600181600116156101000203166002900480601f0160208091040260200160405190810160405280929190818152602001828054600181600116156101000203166002900480156124095780601f106123de57610100808354040283529160200191612409565b820191906000526020600020905b8154815290600101906020018083116123ec57829003601f168201915b5050505050905090565b60008073ffffffffffffffffffffffffffffffffffffffff168273ffffffffffffffffffffffffffffffffffffffff161415612484576040517f08c379a000000000000000000000000000000000000000000000000000000000815260040161247b906157d8565b60405180910390fd5b6124cb600160008473ffffffffffffffffffffffffffffffffffffffff1673ffffffffffffffffffffffffffffffffffffffff168152602001908152602001600020613834565b9050919050565b60003373ffffffffffffffffffffffffffffffffffffffff16600d60003373ffffffffffffffffffffffffffffffffffffffff1673ffffffffffffffffffffffffffffffffffffffff16815260200190815260200160002060000160009054906101000a900473ffffffffffffffffffffffffffffffffffffffff1673ffffffffffffffffffffffffffffffffffffffff16146125a4576040517f08c379a000000000000000000000000000000000000000000000000000000000815260040161259b906156f8565b60405180910390fd5b6125ad82613172565b6125ec576040517f08c379a00000000000000000000000000000000000000000000000000000000081526004016125e3906156d8565b60405180910390fd5b6001600d6000600e600086815260200190815260200160002060009054906101000a900473ffffffffffffffffffffffffffffffffffffffff1673ffffffffffffffffffffffffffffffffffffffff1673ffffffffffffffffffffffffffffffffffffffff16815260200190815260200160002060090160006101000a81548160ff0219169083151502179055507f8032abbce3e20f1f71d7656e10fa55d5ace8775b4f3137443a3ead7afa41f99d60016040516126aa919061563b565b60405180910390a160019050919050565b606060078054600181600116156101000203166002900480601f0160208091040260200160405190810160405280929190818152602001828054600181600116156101000203166002900480156127535780601f1061272857610100808354040283529160200191612753565b820191906000526020600020905b81548152906001019060200180831161273657829003601f168201915b5050505050905090565b61276561318f565b73ffffffffffffffffffffffffffffffffffffffff168273ffffffffffffffffffffffffffffffffffffffff1614156127d3576040517f08c379a00000000000000000000000000000000000000000000000000000000081526004016127ca90615738565b60405180910390fd5b80600560006127e061318f565b73ffffffffffffffffffffffffffffffffffffffff1673ffffffffffffffffffffffffffffffffffffffff16815260200190815260200160002060008473ffffffffffffffffffffffffffffffffffffffff1673ffffffffffffffffffffffffffffffffffffffff16815260200190815260200160002060006101000a81548160ff0219169083151502179055508173ffffffffffffffffffffffffffffffffffffffff1661288d61318f565b73ffffffffffffffffffffffffffffffffffffffff167f17307eab39ab6107e8899845ad3d59bd9653f200f220920489ca2b5937696c31836040516128d2919061563b565b60405180910390a35050565b600c6020528060005260406000206000915090508060000160009054906101000a900473ffffffffffffffffffffffffffffffffffffffff1690806001015490806002018054600181600116156101000203166002900480601f0160208091040260200160405190810160405280929190818152602001828054600181600116156101000203166002900480156129b65780601f1061298b576101008083540402835291602001916129b6565b820191906000526020600020905b81548152906001019060200180831161299957829003601f168201915b505050505090806003018054600181600116156101000203166002900480601f016020809104026020016040519081016040528092919081815260200182805460018160011615610100020316600290048015612a545780601f10612a2957610100808354040283529160200191612a54565b820191906000526020600020905b815481529060010190602001808311612a3757829003601f168201915b505050505090806004015490806005018054600181600116156101000203166002900480601f016020809104026020016040519081016040528092919081815260200182805460018160011615610100020316600290048015612af85780601f10612acd57610100808354040283529160200191612af8565b820191906000526020600020905b815481529060010190602001808311612adb57829003601f168201915b505050505090806006018054600181600116156101000203166002900480601f016020809104026020016040519081016040528092919081815260200182805460018160011615610100020316600290048015612b965780601f10612b6b57610100808354040283529160200191612b96565b820191906000526020600020905b815481529060010190602001808311612b7957829003601f168201915b505050505090806007015490806008018054600181600116156101000203166002900480601f016020809104026020016040519081016040528092919081815260200182805460018160011615610100020316600290048015612c3a5780601f10612c0f57610100808354040283529160200191612c3a565b820191906000526020600020905b815481529060010190602001808311612c1d57829003601f168201915b5050505050908060090160009054906101000a900460ff1690508a565b612c68612c6261318f565b83613265565b612ca7576040517f08c379a0000000000000000000000000000000000000000000000000000000008152600401612c9e90615958565b60405180910390fd5b612cb384848484613849565b50505050565b6060612cc482613172565b612d03576040517f08c379a0000000000000000000000000000000000000000000000000000000008152600401612cfa906158f8565b60405180910390fd5b6060600860008481526020019081526020016000208054600181600116156101000203166002900480601f016020809104026020016040519081016040528092919081815260200182805460018160011615610100020316600290048015612dac5780601f10612d8157610100808354040283529160200191612dac565b820191906000526020600020905b815481529060010190602001808311612d8f57829003601f168201915b50505050509050600060098054600181600116156101000203166002900490501415612ddb5780915050612e3f565b600081511115612e1057600981604051602001612df9929190615410565b604051602081830303815290604052915050612e3f565b6009612e1b846138a5565b604051602001612e2c929190615410565b6040516020818303038152906040529150505b919050565b60106020528060005260406000206000915054906101000a900460ff1681565b6000600560008473ffffffffffffffffffffffffffffffffffffffff1673ffffffffffffffffffffffffffffffffffffffff16815260200190815260200160002060008373ffffffffffffffffffffffffffffffffffffffff1673ffffffffffffffffffffffffffffffffffffffff16815260200190815260200160002060009054906101000a900460ff16905092915050565b60003373ffffffffffffffffffffffffffffffffffffffff16600d60003373ffffffffffffffffffffffffffffffffffffffff1673ffffffffffffffffffffffffffffffffffffffff16815260200190815260200160002060000160009054906101000a900473ffffffffffffffffffffffffffffffffffffffff1673ffffffffffffffffffffffffffffffffffffffff1614612fca576040517f08c379a0000000000000000000000000000000000000000000000000000000008152600401612fc1906156f8565b60405180910390fd5b612fd383613172565b613012576040517f08c379a0000000000000000000000000000000000000000000000000000000008152600401613009906156d8565b60405180910390fd5b8173ffffffffffffffffffffffffffffffffffffffff166011600085815260200190815260200160002060008473ffffffffffffffffffffffffffffffffffffffff1673ffffffffffffffffffffffffffffffffffffffff16815260200190815260200160002060010160009054906101000a900473ffffffffffffffffffffffffffffffffffffffff1673ffffffffffffffffffffffffffffffffffffffff16146130f3576040517f08c379a00000000000000000000000000000000000000000000000000000000081526004016130ea90615838565b60405180910390fd5b60026011600085815260200190815260200160002060008473ffffffffffffffffffffffffffffffffffffffff1673ffffffffffffffffffffffffffffffffffffffff16815260200190815260200160002060030160006101000a81548160ff0219169083600281111561316357fe5b02179055506001905092915050565b60006131888260026139d590919063ffffffff16565b9050919050565b600033905090565b816004600083815260200190815260200160002060006101000a81548173ffffffffffffffffffffffffffffffffffffffff021916908373ffffffffffffffffffffffffffffffffffffffff160217905550808273ffffffffffffffffffffffffffffffffffffffff1661320a8361233a565b73ffffffffffffffffffffffffffffffffffffffff167f8c5be1e5ebec7d5bd14f71427d1e84f3dd0314c0f7b2291e5b200ac8c7c3b92560405160405180910390a45050565b600061325e826000016139ef565b9050919050565b600061327082613172565b6132af576040517f08c379a00000000000000000000000000000000000000000000000000000000081526004016132a690615798565b60405180910390fd5b60006132ba8361233a565b90508073ffffffffffffffffffffffffffffffffffffffff168473ffffffffffffffffffffffffffffffffffffffff16148061332957508373ffffffffffffffffffffffffffffffffffffffff16613311846109e0565b73ffffffffffffffffffffffffffffffffffffffff16145b8061333a57506133398185612e64565b5b91505092915050565b8273ffffffffffffffffffffffffffffffffffffffff166133638261233a565b73ffffffffffffffffffffffffffffffffffffffff16146133b9576040517f08c379a00000000000000000000000000000000000000000000000000000000081526004016133b0906158b8565b60405180910390fd5b600073ffffffffffffffffffffffffffffffffffffffff168273ffffffffffffffffffffffffffffffffffffffff161415613429576040517f08c379a000000000000000000000000000000000000000000000000000000000815260040161342090615718565b60405180910390fd5b613434838383613a00565b61343f600082613197565b61349081600160008673ffffffffffffffffffffffffffffffffffffffff1673ffffffffffffffffffffffffffffffffffffffff168152602001908152602001600020613a0590919063ffffffff16565b506134e281600160008573ffffffffffffffffffffffffffffffffffffffff1673ffffffffffffffffffffffffffffffffffffffff168152602001908152602001600020613a1f90919063ffffffff16565b506134f981836002613a399092919063ffffffff16565b50808273ffffffffffffffffffffffffffffffffffffffff168473ffffffffffffffffffffffffffffffffffffffff167fddf252ad1be2c89b69c2b068fc378daa952ba7f163c4a11628f55a4df523b3ef60405160405180910390a4505050565b60008083141561356d57600090506135c4565b600082840290508284828161357e57fe5b04146135bf576040517f08c379a00000000000000000000000000000000000000000000000000000000081526004016135b690615858565b60405180910390fd5b809150505b92915050565b60006135d98360000183613a6e565b60001c905092915050565b600073ffffffffffffffffffffffffffffffffffffffff168273ffffffffffffffffffffffffffffffffffffffff161415613654576040517f08c379a000000000000000000000000000000000000000000000000000000000815260040161364b90615818565b60405180910390fd5b61365d81613172565b1561369d576040517f08c379a0000000000000000000000000000000000000000000000000000000008152600401613694906156b8565b60405180910390fd5b6136a960008383613a00565b6136fa81600160008573ffffffffffffffffffffffffffffffffffffffff1673ffffffffffffffffffffffffffffffffffffffff168152602001908152602001600020613a1f90919063ffffffff16565b5061371181836002613a399092919063ffffffff16565b50808273ffffffffffffffffffffffffffffffffffffffff16600073ffffffffffffffffffffffffffffffffffffffff167fddf252ad1be2c89b69c2b068fc378daa952ba7f163c4a11628f55a4df523b3ef60405160405180910390a45050565b61377b82613172565b6137ba576040517f08c379a00000000000000000000000000000000000000000000000000000000081526004016137b190615898565b60405180910390fd5b806008600084815260200190815260200160002090805190602001906137e1929190614267565b505050565b6000806000806137f98660000186613adb565b915091508160001c8160001c8090509350935050509250929050565b6000613828846000018460001b84613b5e565b60001c90509392505050565b600061384282600001613bef565b9050919050565b613854848484613343565b61386084848484613c00565b61389f576040517f08c379a000000000000000000000000000000000000000000000000000000000815260040161389690615698565b60405180910390fd5b50505050565b606060008214156138ed576040518060400160405280600181526020017f300000000000000000000000000000000000000000000000000000000000000081525090506139d0565b600082905060005b60008214613917578080600101915050600a828161390f57fe5b0491506138f5565b6060816040519080825280601f01601f19166020018201604052801561394c5781602001600182028038833980820191505090505b50905060006001830390508593505b600084146139c857600a848161396d57fe5b0660300160f81b8282806001900393508151811061398757fe5b60200101907effffffffffffffffffffffffffffffffffffffffffffffffffffffffffffff1916908160001a905350600a84816139c057fe5b04935061395b565b819450505050505b919050565b60006139e7836000018360001b613d64565b905092915050565b600081600001805490509050919050565b505050565b6000613a17836000018360001b613d87565b905092915050565b6000613a31836000018360001b613e6f565b905092915050565b6000613a65846000018460001b8473ffffffffffffffffffffffffffffffffffffffff1660001b613edf565b90509392505050565b600081836000018054905011613ab9576040517f08c379a0000000000000000000000000000000000000000000000000000000008152600401613ab090615678565b60405180910390fd5b826000018281548110613ac857fe5b9060005260206000200154905092915050565b60008082846000018054905011613b27576040517f08c379a0000000000000000000000000000000000000000000000000000000008152600401613b1e906157f8565b60405180910390fd5b6000846000018481548110613b3857fe5b906000526020600020906002020190508060000154816001015492509250509250929050565b60008084600101600085815260200190815260200160002054905060008114158390613bc0576040517f08c379a0000000000000000000000000000000000000000000000000000000008152600401613bb79190615656565b60405180910390fd5b50846000016001820381548110613bd357fe5b9060005260206000209060020201600101549150509392505050565b600081600001805490509050919050565b6000613c218473ffffffffffffffffffffffffffffffffffffffff16613fbb565b613c2e5760019050613d5c565b6060613cf563150b7a0260e01b613c4361318f565b888787604051602401613c59949392919061544f565b604051602081830303815290604052907bffffffffffffffffffffffffffffffffffffffffffffffffffffffff19166020820180517bffffffffffffffffffffffffffffffffffffffffffffffffffffffff8381831617835250505050604051806060016040528060328152602001615d23603291398773ffffffffffffffffffffffffffffffffffffffff16613fce9092919063ffffffff16565b9050600081806020019051613d0d91908101906145ed565b905063150b7a0260e01b7bffffffffffffffffffffffffffffffffffffffffffffffffffffffff1916817bffffffffffffffffffffffffffffffffffffffffffffffffffffffff191614925050505b949350505050565b600080836001016000848152602001908152602001600020541415905092915050565b60008083600101600084815260200190815260200160002054905060008114613e635760006001820390506000600186600001805490500390506000866000018281548110613dd257fe5b9060005260206000200154905080876000018481548110613def57fe5b9060005260206000200181905550600183018760010160008381526020019081526020016000208190555086600001805480613e2757fe5b60019003818190600052602060002001600090559055866001016000878152602001908152602001600020600090556001945050505050613e69565b60009150505b92915050565b6000613e7b8383613fe6565b613ed4578260000182908060018154018082558091505060019003906000526020600020016000909190919091505582600001805490508360010160008481526020019081526020016000208190555060019050613ed9565b600090505b92915050565b6000808460010160008581526020019081526020016000205490506000811415613f8657846000016040518060400160405280868152602001858152509080600181540180825580915050600190039060005260206000209060020201600090919091909150600082015181600001556020820151816001015550508460000180549050856001016000868152602001908152602001600020819055506001915050613fb4565b82856000016001830381548110613f9957fe5b90600052602060002090600202016001018190555060009150505b9392505050565b600080823b905060008111915050919050565b6060613fdd8484600085614009565b90509392505050565b600080836001016000848152602001908152602001600020541415905092915050565b606061401485613fbb565b614053576040517f08c379a000000000000000000000000000000000000000000000000000000000815260040161404a90615978565b60405180910390fd5b600060608673ffffffffffffffffffffffffffffffffffffffff16858760405161407d91906153f9565b60006040518083038185875af1925050503d80600081146140ba576040519150601f19603f3d011682016040523d82523d6000602084013e6140bf565b606091505b509150915081156140d4578092505050614124565b6000815111156140e75780518082602001fd5b836040517f08c379a000000000000000000000000000000000000000000000000000000000815260040161411b9190615656565b60405180910390fd5b949350505050565b604051806101400160405280600073ffffffffffffffffffffffffffffffffffffffff16815260200160008152602001606081526020016060815260200160008152602001606081526020016060815260200160008152602001606081526020016000151581525090565b828054600181600116156101000203166002900490600052602060002090601f016020900481019282601f106141d857805160ff1916838001178555614206565b82800160010185558215614206579182015b828111156142055782518255916020019190600101906141ea565b5b50905061421391906142e7565b5090565b6040518060a0016040528060008152602001600073ffffffffffffffffffffffffffffffffffffffff168152602001600081526020016000600281111561425a57fe5b8152602001600081525090565b828054600181600116156101000203166002900490600052602060002090601f016020900481019282601f106142a857805160ff19168380011785556142d6565b828001600101855582156142d6579182015b828111156142d55782518255916020019190600101906142ba565b5b5090506142e391906142e7565b5090565b61430991905b808211156143055760008160009055506001016142ed565b5090565b90565b60008135905061431b81615cc6565b92915050565b60008135905061433081615cdd565b92915050565b60008135905061434581615cf4565b92915050565b60008151905061435a81615cf4565b92915050565b600082601f83011261437157600080fd5b813561438461437f82615a86565b615a59565b915080825260208301602083018583830111156143a057600080fd5b6143ab838284615c66565b50505092915050565b600082601f8301126143c557600080fd5b81356143d86143d382615ab2565b615a59565b915080825260208301602083018583830111156143f457600080fd5b6143ff838284615c66565b50505092915050565b60008135905061441781615d0b565b92915050565b60006020828403121561442f57600080fd5b600061443d8482850161430c565b91505092915050565b6000806040838503121561445957600080fd5b60006144678582860161430c565b92505060206144788582860161430c565b9150509250929050565b60008060006060848603121561449757600080fd5b60006144a58682870161430c565b93505060206144b68682870161430c565b92505060406144c786828701614408565b9150509250925092565b600080600080608085870312156144e757600080fd5b60006144f58782880161430c565b94505060206145068782880161430c565b935050604061451787828801614408565b925050606085013567ffffffffffffffff81111561453457600080fd5b61454087828801614360565b91505092959194509250565b6000806040838503121561455f57600080fd5b600061456d8582860161430c565b925050602061457e85828601614321565b9150509250929050565b6000806040838503121561459b57600080fd5b60006145a98582860161430c565b92505060206145ba85828601614408565b9150509250929050565b6000602082840312156145d657600080fd5b60006145e484828501614336565b91505092915050565b6000602082840312156145ff57600080fd5b600061460d8482850161434b565b91505092915050565b60008060008060008060008060006101208a8c03121561463557600080fd5b60008a013567ffffffffffffffff81111561464f57600080fd5b61465b8c828d016143b4565b99505060208a013567ffffffffffffffff81111561467857600080fd5b6146848c828d016143b4565b98505060406146958c828d01614408565b97505060608a013567ffffffffffffffff8111156146b257600080fd5b6146be8c828d016143b4565b96505060806146cf8c828d01614408565b95505060a08a013567ffffffffffffffff8111156146ec57600080fd5b6146f88c828d016143b4565b94505060c08a013567ffffffffffffffff81111561471557600080fd5b6147218c828d016143b4565b93505060e06147328c828d01614321565b9250506101008a013567ffffffffffffffff81111561475057600080fd5b61475c8c828d016143b4565b9150509295985092959850929598565b60006020828403121561477e57600080fd5b600061478c84828501614408565b91505092915050565b600080604083850312156147a857600080fd5b60006147b685828601614408565b92505060206147c78582860161430c565b9150509250929050565b600080604083850312156147e457600080fd5b60006147f285828601614408565b925050602061480385828601614408565b9150509250929050565b60006148198383615373565b60a08301905092915050565b61482e81615c1e565b82525050565b61483d81615b97565b82525050565b61484c81615b85565b82525050565b61485b81615b85565b82525050565b600061486c82615b03565b6148768185615b3c565b935061488183615ade565b8060005b838110156148b2578151614899888261480d565b97506148a483615b2f565b925050600181019050614885565b5085935050505092915050565b6148c881615ba9565b82525050565b60006148d982615b0e565b6148e38185615b4d565b93506148f3818560208601615c75565b6148fc81615ca8565b840191505092915050565b600061491282615b0e565b61491c8185615b5e565b935061492c818560208601615c75565b80840191505092915050565b61494181615c30565b82525050565b61495081615c30565b82525050565b600061496182615b24565b61496b8185615b69565b935061497b818560208601615c75565b61498481615ca8565b840191505092915050565b600061499a82615b24565b6149a48185615b7a565b93506149b4818560208601615c75565b80840191505092915050565b60006149cb82615b19565b6149d58185615b69565b93506149e5818560208601615c75565b6149ee81615ca8565b840191505092915050565b600081546001811660008114614a165760018114614a3b57614a7f565b607f6002830416614a278187615b7a565b955060ff1983168652808601935050614a7f565b60028204614a498187615b7a565b9550614a5485615aee565b60005b82811015614a7657815481890152600182019150602081019050614a57565b82880195505050505b505092915050565b6000614a94602283615b69565b91507f456e756d657261626c655365743a20696e646578206f7574206f6620626f756e60008301527f64730000000000000000000000000000000000000000000000000000000000006020830152604082019050919050565b6000614afa603283615b69565b91507f4552433732313a207472616e7366657220746f206e6f6e20455243373231526560008301527f63656976657220696d706c656d656e74657200000000000000000000000000006020830152604082019050919050565b6000614b60601c83615b69565b91507f4552433732313a20746f6b656e20616c7265616479206d696e746564000000006000830152602082019050919050565b6000614ba0602683615b69565b91507f4572726f723a20494e56414c49442050726f7065727479206964206f7220746f60008301527f6b656e20696400000000000000000000000000000000000000000000000000006020830152604082019050919050565b6000614c06602383615b69565b91507f4572726f723a204f6e6c792050726f7065727479204f776e65722072756e207460008301527f68697300000000000000000000000000000000000000000000000000000000006020830152604082019050919050565b6000614c6c602483615b69565b91507f4552433732313a207472616e7366657220746f20746865207a65726f2061646460008301527f72657373000000000000000000000000000000000000000000000000000000006020830152604082019050919050565b6000614cd2601983615b69565b91507f4552433732313a20617070726f766520746f2063616c6c6572000000000000006000830152602082019050919050565b6000614d12603883615b69565b91507f4572726f723a20536f7272792c2050726963696e67206f662070726f7065727460008301527f79206e6f74206d6174636865642077697468206f6666657200000000000000006020830152604082019050919050565b6000614d78603e83615b69565b91507f4572726f723a20546869732050726f7065727479206e6f7420666f722073616c60008301527f6520284f666665722072657175657374206e6f7420617070726f7665642900006020830152604082019050919050565b6000614dde602c83615b69565b91507f4552433732313a206f70657261746f7220717565727920666f72206e6f6e657860008301527f697374656e7420746f6b656e00000000000000000000000000000000000000006020830152604082019050919050565b6000614e44603883615b69565b91507f4552433732313a20617070726f76652063616c6c6572206973206e6f74206f7760008301527f6e6572206e6f7220617070726f76656420666f7220616c6c00000000000000006020830152604082019050919050565b6000614eaa602a83615b69565b91507f4552433732313a2062616c616e636520717565727920666f7220746865207a6560008301527f726f2061646472657373000000000000000000000000000000000000000000006020830152604082019050919050565b6000614f10602283615b69565b91507f456e756d657261626c654d61703a20696e646578206f7574206f6620626f756e60008301527f64730000000000000000000000000000000000000000000000000000000000006020830152604082019050919050565b6000614f76602083615b69565b91507f4552433732313a206d696e7420746f20746865207a65726f20616464726573736000830152602082019050919050565b6000614fb6601d83615b69565b91507f4572726f723a20494e56414c49442062757965722061646472657373200000006000830152602082019050919050565b6000614ff6602183615b69565b91507f536166654d6174683a206d756c7469706c69636174696f6e206f766572666c6f60008301527f77000000000000000000000000000000000000000000000000000000000000006020830152604082019050919050565b600061505c602c83615b69565b91507f4552433732313a20617070726f76656420717565727920666f72206e6f6e657860008301527f697374656e7420746f6b656e00000000000000000000000000000000000000006020830152604082019050919050565b60006150c2602c83615b69565b91507f4552433732314d657461646174613a2055524920736574206f66206e6f6e657860008301527f697374656e7420746f6b656e00000000000000000000000000000000000000006020830152604082019050919050565b6000615128602983615b69565b91507f4552433732313a207472616e73666572206f6620746f6b656e2074686174206960008301527f73206e6f74206f776e00000000000000000000000000000000000000000000006020830152604082019050919050565b600061518e601d83615b69565b91507f4572726f723a204574686572287329206e6f742070726f7669646564200000006000830152602082019050919050565b60006151ce602f83615b69565b91507f4552433732314d657461646174613a2055524920717565727920666f72206e6f60008301527f6e6578697374656e7420746f6b656e00000000000000000000000000000000006020830152604082019050919050565b6000615234602183615b69565b91507f4552433732313a20617070726f76616c20746f2063757272656e74206f776e6560008301527f72000000000000000000000000000000000000000000000000000000000000006020830152604082019050919050565b600061529a601f83615b69565b91507f4572726f723a546869732050726f7065727479206e6f74206f6e2053616c65006000830152602082019050919050565b60006152da603183615b69565b91507f4552433732313a207472616e736665722063616c6c6572206973206e6f74206f60008301527f776e6572206e6f7220617070726f7665640000000000000000000000000000006020830152604082019050919050565b6000615340601d83615b69565b91507f416464726573733a2063616c6c20746f206e6f6e2d636f6e74726163740000006000830152602082019050919050565b60a08201600082015161538960008501826153db565b50602082015161539c6020850182614843565b5060408201516153af60408501826153db565b5060608201516153c26060850182614938565b5060808201516153d560808501826153db565b50505050565b6153e481615c14565b82525050565b6153f381615c14565b82525050565b60006154058284614907565b915081905092915050565b600061541c82856149f9565b9150615428828461498f565b91508190509392505050565b60006020820190506154496000830184614852565b92915050565b60006080820190506154646000830187614834565b6154716020830186614852565b61547e60408301856153ea565b818103606083015261549081846148ce565b905095945050505050565b6000610140820190506154b1600083018d614825565b6154be602083018c6153ea565b81810360408301526154d0818b614956565b905081810360608301526154e4818a614956565b90506154f360808301896153ea565b81810360a08301526155058188614956565b905081810360c08301526155198187614956565b905061552860e08301866153ea565b81810361010083015261553b8185614956565b905061554b6101208301846148bf565b9b9a5050505050505050505050565b600061014082019050615570600083018d614852565b61557d602083018c6153ea565b818103604083015261558f818b6149c0565b905081810360608301526155a3818a6149c0565b90506155b260808301896153ea565b81810360a08301526155c481886149c0565b905081810360c08301526155d881876149c0565b90506155e760e08301866153ea565b8181036101008301526155fa81856149c0565b905061560a6101208301846148bf565b9b9a5050505050505050505050565b600060208201905081810360008301526156338184614861565b905092915050565b600060208201905061565060008301846148bf565b92915050565b600060208201905081810360008301526156708184614956565b905092915050565b6000602082019050818103600083015261569181614a87565b9050919050565b600060208201905081810360008301526156b181614aed565b9050919050565b600060208201905081810360008301526156d181614b53565b9050919050565b600060208201905081810360008301526156f181614b93565b9050919050565b6000602082019050818103600083015261571181614bf9565b9050919050565b6000602082019050818103600083015261573181614c5f565b9050919050565b6000602082019050818103600083015261575181614cc5565b9050919050565b6000602082019050818103600083015261577181614d05565b9050919050565b6000602082019050818103600083015261579181614d6b565b9050919050565b600060208201905081810360008301526157b181614dd1565b9050919050565b600060208201905081810360008301526157d181614e37565b9050919050565b600060208201905081810360008301526157f181614e9d565b9050919050565b6000602082019050818103600083015261581181614f03565b9050919050565b6000602082019050818103600083015261583181614f69565b9050919050565b6000602082019050818103600083015261585181614fa9565b9050919050565b6000602082019050818103600083015261587181614fe9565b9050919050565b600060208201905081810360008301526158918161504f565b9050919050565b600060208201905081810360008301526158b1816150b5565b9050919050565b600060208201905081810360008301526158d18161511b565b9050919050565b600060208201905081810360008301526158f181615181565b9050919050565b60006020820190508181036000830152615911816151c1565b9050919050565b6000602082019050818103600083015261593181615227565b9050919050565b600060208201905081810360008301526159518161528d565b9050919050565b60006020820190508181036000830152615971816152cd565b9050919050565b6000602082019050818103600083015261599181615333565b9050919050565b60006020820190506159ad60008301846153ea565b92915050565b600060a0820190506159c860008301886153ea565b6159d56020830187614825565b6159e260408301866153ea565b6159ef6060830185614947565b6159fc60808301846153ea565b9695505050505050565b600060a082019050615a1b60008301886153ea565b615a286020830187614852565b615a3560408301866153ea565b615a426060830185614947565b615a4f60808301846153ea565b9695505050505050565b6000604051905081810181811067ffffffffffffffff82111715615a7c57600080fd5b8060405250919050565b600067ffffffffffffffff821115615a9d57600080fd5b601f19601f8301169050602081019050919050565b600067ffffffffffffffff821115615ac957600080fd5b601f19601f8301169050602081019050919050565b6000819050602082019050919050565b60008190508160005260206000209050919050565b600081519050919050565b600081519050919050565b600081519050919050565b600081519050919050565b6000602082019050919050565b600082825260208201905092915050565b600082825260208201905092915050565b600081905092915050565b600082825260208201905092915050565b600081905092915050565b6000615b9082615bf4565b9050919050565b6000615ba282615bf4565b9050919050565b60008115159050919050565b60007fffffffff0000000000000000000000000000000000000000000000000000000082169050919050565b6000819050615bef82615cb9565b919050565b600073ffffffffffffffffffffffffffffffffffffffff82169050919050565b6000819050919050565b6000615c2982615c42565b9050919050565b6000615c3b82615be1565b9050919050565b6000615c4d82615c54565b9050919050565b6000615c5f82615bf4565b9050919050565b82818337600083830152505050565b60005b83811015615c93578082015181840152602081019050615c78565b83811115615ca2576000848401525b50505050565b6000601f19601f8301169050919050565b60038110615cc357fe5b50565b615ccf81615b85565b8114615cda57600080fd5b50565b615ce681615ba9565b8114615cf157600080fd5b50565b615cfd81615bb5565b8114615d0857600080fd5b50565b615d1481615c14565b8114615d1f57600080fd5b5056fe4552433732313a207472616e7366657220746f206e6f6e20455243373231526563656976657220696d706c656d656e7465724552433732313a206f776e657220717565727920666f72206e6f6e6578697374656e7420746f6b656ea26469706673582212202fac1380c6c78d6cdefab02ee82caaa40d6efddad2e40b8b07a295478d4dacfb64736f6c63430006020033",
  "source": "pragma solidity ^0.6.0;\r\npragma experimental ABIEncoderV2;\r\n\r\nimport \"@openzeppelin/contracts/token/ERC721/ERC721.sol\";\r\n\r\ncontract SmartEstate is ERC721 {\r\n   uint256 private buyerId;\r\n    uint256 public tokenId;\r\n   // uint256 public sellerAddress;\r\n    enum offerApproval {pending, approved, rejected}\r\n    event saleStatus(bool);\r\n\r\n    struct PropertyDetails {\r\n        address sellerAddress;\r\n        uint256 propertyId;\r\n        string propertyAddress;\r\n        string city;\r\n        uint256 room;\r\n        string area;\r\n        string propertyType;\r\n        uint256 price;\r\n        string image;\r\n        bool saleStatus;\r\n    }\r\n    \r\n    event property_detail(address useraddress,\r\n        uint256 propertyId ,\r\n        string propertyAddress,\r\n        string city,\r\n        uint256 room,\r\n        string area,\r\n        string propertyType,\r\n        uint256 price,\r\n        string image,\r\n        bool saleStatus);\r\n\r\n    struct BuyerInfo {\r\n        uint256 bId;\r\n        address buyerAddress;\r\n        uint256 buyerOffer;\r\n        offerApproval request;\r\n        uint256 ApplyForToken;\r\n    }\r\n\r\n    event buyer_Info(uint256 buyerId,\r\n    address buyerAddress,\r\n    uint256 buyerOffer,offerApproval request,\r\n    uint256 PropertyId_TokenId);\r\n    \r\n    modifier propertyOwner() {\r\n        require(\r\n            OnlyOwner[msg.sender].sellerAddress == msg.sender,\r\n            \"Error: Only Property Owner run this\"\r\n        );\r\n        _;\r\n    }\r\n    mapping(uint256 => PropertyDetails) public AllPropertyList;\r\n\r\n    mapping(address => PropertyDetails) public OnlyOwner;\r\n    mapping(uint256 => address) public PropertyList;\r\n\r\n   // mapping(address => BuyerInfo) public BuyerList;\r\n    mapping(uint256 => BuyerInfo[]) public AllBuyers;\r\n    mapping(uint256 => bool) public Offers;\r\n\r\n    // mapping(uint256 => BuyerInfo) public PropertyBuyerList;\r\n    mapping(uint256 => mapping(address => BuyerInfo)) public PropertyBuyerList;\r\n\r\n    constructor() public ERC721(\"Smart Estate Properties\", \"ESP\") {}\r\n\r\n    function RegisterProperty(\r\n        string memory _propertyAddress,\r\n        string memory _city,\r\n        uint256 _room,\r\n        string memory _area,\r\n        uint256 _priceInEther,\r\n        string memory _propertyType,\r\n        string memory _image,\r\n        bool _saleStatus,\r\n        string memory _tokenUri\r\n    ) public returns (bool) {\r\n        tokenId++;\r\n        uint256 thisId = tokenId;\r\n        _mint(msg.sender, thisId);\r\n        _setTokenURI(thisId, _tokenUri);\r\n\r\n        PropertyDetails memory tempDetails;\r\n\r\n        tempDetails = PropertyDetails({\r\n            sellerAddress: msg.sender,\r\n            propertyId: thisId,\r\n            propertyAddress: _propertyAddress,\r\n            city: _city,\r\n            room: _room,\r\n            area: _area,\r\n            propertyType: _propertyType,\r\n            price: _priceInEther,\r\n            image: _image,\r\n            saleStatus: _saleStatus\r\n        });\r\n        OnlyOwner[msg.sender] = tempDetails;\r\n        PropertyList[thisId] = msg.sender;\r\n        AllPropertyList[thisId] = tempDetails;\r\n        emit property_detail( msg.sender,\r\n            thisId,\r\n            _propertyAddress,\r\n            _city,_room, _area,\r\n            _propertyType,\r\n            _priceInEther,\r\n            _image,\r\n            true);\r\n        return true;\r\n    }\r\n\r\n    function EnablePropertySale(uint256 PropertyId_TokenId)\r\n        public\r\n        propertyOwner\r\n        returns (bool)\r\n    {\r\n        require(\r\n            _exists(PropertyId_TokenId),\r\n            \"Error: INVALID Property id or token id\"\r\n        );\r\n        OnlyOwner[PropertyList[PropertyId_TokenId]].saleStatus = true;\r\n        emit saleStatus(true);\r\n        return true;\r\n    }\r\n\r\n    function PropertyPricing(uint256 PropertyId_TokenId)view\r\n        public\r\n        propertyOwner\r\n        returns (uint256)\r\n    {\r\n        require(\r\n            _exists(PropertyId_TokenId),\r\n            \"Error: INVALID Property id or token id\"\r\n        );\r\n          \r\n        return OnlyOwner[PropertyList[PropertyId_TokenId]].price;\r\n    }\r\n\r\n    function BuyingRequest(uint256 PropertyId_TokenId, uint256 offerInEthers)\r\n        public\r\n        returns (bool)\r\n    {\r\n        require(\r\n            _exists(PropertyId_TokenId),\r\n            \"Error: INVALID Property id or token id\"\r\n        );\r\n        require(\r\n            OnlyOwner[PropertyList[PropertyId_TokenId]].saleStatus,\r\n            \"Error:This Property not on Sale\"\r\n        );\r\n\r\n        buyerId++;\r\n\r\n        BuyerInfo memory tempDetails;\r\n        tempDetails = BuyerInfo({\r\n            bId: buyerId,\r\n            buyerAddress: msg.sender,\r\n            buyerOffer: offerInEthers,\r\n            request: offerApproval.pending,\r\n            ApplyForToken: PropertyId_TokenId\r\n        });\r\n        AllBuyers[PropertyId_TokenId].push(tempDetails);\r\n       // BuyerList[msg.sender] = tempDetails;\r\n        PropertyBuyerList[PropertyId_TokenId][msg.sender] = tempDetails;\r\n        PropertyBuyerList[PropertyId_TokenId][msg.sender].request = offerApproval.pending;\r\n       // BuyerList[msg.sender].request = offerApproval.pending;\r\n        emit buyer_Info(buyerId, msg.sender,offerInEthers,offerApproval.pending,PropertyId_TokenId);\r\n        return true;\r\n    }\r\n\r\n    function OfferStatus(uint256 PropertyId_TokenId)\r\n        public\r\n        propertyOwner\r\n        returns (BuyerInfo[] memory)\r\n    {\r\n        require(\r\n            _exists(PropertyId_TokenId),\r\n            \"Error: INVALID Property id or token id\"\r\n        );\r\n        BuyerInfo[] memory tempDetails;\r\n        tempDetails = AllBuyers[PropertyId_TokenId];\r\n        return tempDetails;\r\n    }\r\n\r\n    function OfferReject(uint256 PropertyId_TokenId, address _buyerAddress)\r\n        public\r\n        propertyOwner\r\n        returns (bool)\r\n    {\r\n        require(\r\n            _exists(PropertyId_TokenId),\r\n            \"Error: INVALID Property id or token id\"\r\n        );\r\n        require(\r\n          //  BuyerList[_buyerAddress].buyerAddress == _buyerAddress,\r\n             PropertyBuyerList[PropertyId_TokenId][_buyerAddress].buyerAddress == _buyerAddress,\r\n            \"Error: INVALID buyer address \"\r\n        );\r\n       // BuyerList[_buyerAddress].request = offerApproval.rejected;\r\n        PropertyBuyerList[PropertyId_TokenId][_buyerAddress].request = offerApproval.rejected;\r\n        return true;\r\n    }\r\n\r\n    function OfferAccept(uint256 PropertyId_TokenId, address _buyerAddress)\r\n        public\r\n        propertyOwner\r\n        returns (bool)\r\n    {\r\n        require(\r\n            _exists(PropertyId_TokenId),\r\n            \"Error: INVALID Property id or token id\"\r\n        );\r\n        require(\r\n          //  BuyerList[_buyerAddress].buyerAddress == _buyerAddress,\r\n           PropertyBuyerList[PropertyId_TokenId][_buyerAddress].buyerAddress == _buyerAddress,\r\n            \"Error: INVALID buyer address \"\r\n        );\r\n       // BuyerList[_buyerAddress].request = offerApproval.approved;\r\n        PropertyBuyerList[PropertyId_TokenId][_buyerAddress].request = offerApproval.approved;\r\n        return true;\r\n    }\r\n\r\n    function BuyProperty(uint256 PropertyId_TokenId)\r\n        public\r\n        payable\r\n        returns (bool)\r\n    {\r\n        require(\r\n            _exists(PropertyId_TokenId),\r\n            \"Error: INVALID Property id or token id\"\r\n        );\r\n        require(\r\n           // BuyerList[msg.sender].buyerAddress == msg.sender,\r\n            PropertyBuyerList[PropertyId_TokenId][msg.sender].buyerAddress == msg.sender,\r\n            \"Error: INVALID buyer address \"\r\n        );\r\n        require(\r\n           // BuyerList[msg.sender].request == offerApproval.approved,\r\n            PropertyBuyerList[PropertyId_TokenId][msg.sender].request == offerApproval.approved,\r\n            \"Error: This Property not for sale (Offer request not approved)\"\r\n        );\r\n        require(msg.value > 0, \"Error: Ether(s) not provided \");\r\n        // uint256 PropertyPrice = BuyerList[msg.sender].buyerOffer.mul(\r\n        //     1 * 10**18\r\n        // );\r\n        uint256 PropertyPrice = PropertyBuyerList[PropertyId_TokenId][msg.sender].buyerOffer.mul(\r\n            1 * 10**18\r\n        );\r\n        require(\r\n            PropertyPrice == msg.value,\r\n            \"Error: Sorry, Pricing of property not matched with offer\"\r\n        );\r\n        address BuyerAddress = OnlyOwner[PropertyList[PropertyId_TokenId]].sellerAddress;\r\n         _transfer(BuyerAddress, msg.sender, PropertyId_TokenId);\r\n         OnlyOwner[PropertyList[PropertyId_TokenId]].saleStatus = false;\r\n        //  OnlyOwner[PropertyList[PropertyId_TokenId]].sold = true;\r\n        return true;\r\n    }\r\n}\r\n",
  "sourcePath": "C:/Users/hp/Desktop/New/SmartEstate_OwnershipTransfer-Master/src/contracts/SmartEstate.sol",
  "compiler": {
    "name": "solc",
    "version": "0.6.2+commit.bacdbe57.Emscripten.clang"
  },
  "schemaVersion": "3.3.2",
  "updatedAt": "2021-02-03T21:43:29.868Z",
  "networkType": "ethereum",
  "devdoc": {
    "methods": {
      "approve(address,uint256)": {
        "details": "See {IERC721-approve}."
      },
      "balanceOf(address)": {
        "details": "See {IERC721-balanceOf}."
      },
      "baseURI()": {
        "details": "Returns the base URI set via {_setBaseURI}. This will be automatically added as a prefix in {tokenURI} to each token's URI, or to the token ID if no specific URI is set for that token ID."
      },
      "getApproved(uint256)": {
        "details": "See {IERC721-getApproved}."
      },
      "isApprovedForAll(address,address)": {
        "details": "See {IERC721-isApprovedForAll}."
      },
      "name()": {
        "details": "See {IERC721Metadata-name}."
      },
      "ownerOf(uint256)": {
        "details": "See {IERC721-ownerOf}."
      },
      "safeTransferFrom(address,address,uint256)": {
        "details": "See {IERC721-safeTransferFrom}."
      },
      "safeTransferFrom(address,address,uint256,bytes)": {
        "details": "See {IERC721-safeTransferFrom}."
      },
      "setApprovalForAll(address,bool)": {
        "details": "See {IERC721-setApprovalForAll}."
      },
      "supportsInterface(bytes4)": {
        "details": "See {IERC165-supportsInterface}.     * Time complexity O(1), guaranteed to always use less than 30 000 gas."
      },
      "symbol()": {
        "details": "See {IERC721Metadata-symbol}."
      },
      "tokenByIndex(uint256)": {
        "details": "See {IERC721Enumerable-tokenByIndex}."
      },
      "tokenOfOwnerByIndex(address,uint256)": {
        "details": "See {IERC721Enumerable-tokenOfOwnerByIndex}."
      },
      "tokenURI(uint256)": {
        "details": "See {IERC721Metadata-tokenURI}."
      },
      "totalSupply()": {
        "details": "See {IERC721Enumerable-totalSupply}."
      },
      "transferFrom(address,address,uint256)": {
        "details": "See {IERC721-transferFrom}."
      }
    }
  },
  "userdoc": {
    "methods": {}
  }
}