{
  "contractName": "SmartEstate",
  "abi": [
    {
      "inputs": [],
      "stateMutability": "nonpayable",
      "type": "constructor"
    },
    {
      "anonymous": false,
      "inputs": [
        {
          "indexed": true,
          "internalType": "address",
          "name": "owner",
          "type": "address"
        },
        {
          "indexed": true,
          "internalType": "address",
          "name": "approved",
          "type": "address"
        },
        {
          "indexed": true,
          "internalType": "uint256",
          "name": "tokenId",
          "type": "uint256"
        }
      ],
      "name": "Approval",
      "type": "event"
    },
    {
      "anonymous": false,
      "inputs": [
        {
          "indexed": true,
          "internalType": "address",
          "name": "owner",
          "type": "address"
        },
        {
          "indexed": true,
          "internalType": "address",
          "name": "operator",
          "type": "address"
        },
        {
          "indexed": false,
          "internalType": "bool",
          "name": "approved",
          "type": "bool"
        }
      ],
      "name": "ApprovalForAll",
      "type": "event"
    },
    {
      "anonymous": false,
      "inputs": [
        {
          "indexed": true,
          "internalType": "address",
          "name": "from",
          "type": "address"
        },
        {
          "indexed": true,
          "internalType": "address",
          "name": "to",
          "type": "address"
        },
        {
          "indexed": true,
          "internalType": "uint256",
          "name": "tokenId",
          "type": "uint256"
        }
      ],
      "name": "Transfer",
      "type": "event"
    },
    {
      "anonymous": false,
      "inputs": [
        {
          "indexed": false,
          "internalType": "address",
          "name": "BuyerAddress",
          "type": "address"
        },
        {
          "indexed": false,
          "internalType": "address",
          "name": "OwnerAddress",
          "type": "address"
        },
        {
          "indexed": false,
          "internalType": "uint256",
          "name": "PropertyId_TokenId",
          "type": "uint256"
        },
        {
          "indexed": false,
          "internalType": "uint256",
          "name": "Value",
          "type": "uint256"
        },
        {
          "indexed": false,
          "internalType": "bool",
          "name": "saleStatus",
          "type": "bool"
        },
        {
          "indexed": false,
          "internalType": "bool",
          "name": "WinStatus",
          "type": "bool"
        }
      ],
      "name": "TransferList",
      "type": "event"
    },
    {
      "anonymous": false,
      "inputs": [
        {
          "indexed": false,
          "internalType": "uint256",
          "name": "buyerId",
          "type": "uint256"
        },
        {
          "indexed": false,
          "internalType": "address",
          "name": "buyerAddress",
          "type": "address"
        },
        {
          "indexed": false,
          "internalType": "uint256",
          "name": "buyerOffer",
          "type": "uint256"
        },
        {
          "indexed": false,
          "internalType": "enum SmartEstate.offerApproval",
          "name": "request",
          "type": "uint8"
        },
        {
          "indexed": false,
          "internalType": "uint256",
          "name": "PropertyId_TokenId",
          "type": "uint256"
        },
        {
          "indexed": false,
          "internalType": "bool",
          "name": "WinStatus",
          "type": "bool"
        }
      ],
      "name": "buyer_Info",
      "type": "event"
    },
    {
      "anonymous": false,
      "inputs": [
        {
          "indexed": false,
          "internalType": "uint256",
          "name": "",
          "type": "uint256"
        }
      ],
      "name": "property_Pricing",
      "type": "event"
    },
    {
      "anonymous": false,
      "inputs": [
        {
          "indexed": false,
          "internalType": "address",
          "name": "useraddress",
          "type": "address"
        },
        {
          "indexed": false,
          "internalType": "uint256",
          "name": "propertyId",
          "type": "uint256"
        },
        {
          "indexed": false,
          "internalType": "string",
          "name": "propertyAddress",
          "type": "string"
        },
        {
          "indexed": false,
          "internalType": "string",
          "name": "city",
          "type": "string"
        },
        {
          "indexed": false,
          "internalType": "uint256",
          "name": "room",
          "type": "uint256"
        },
        {
          "indexed": false,
          "internalType": "string",
          "name": "area",
          "type": "string"
        },
        {
          "indexed": false,
          "internalType": "string",
          "name": "propertyType",
          "type": "string"
        },
        {
          "indexed": false,
          "internalType": "uint256",
          "name": "price",
          "type": "uint256"
        },
        {
          "indexed": false,
          "internalType": "string",
          "name": "image",
          "type": "string"
        },
        {
          "indexed": false,
          "internalType": "bool",
          "name": "saleStatus",
          "type": "bool"
        }
      ],
      "name": "property_detail",
      "type": "event"
    },
    {
      "anonymous": false,
      "inputs": [
        {
          "indexed": false,
          "internalType": "bool",
          "name": "",
          "type": "bool"
        }
      ],
      "name": "saleStatus",
      "type": "event"
    },
    {
      "inputs": [
        {
          "internalType": "uint256",
          "name": "",
          "type": "uint256"
        },
        {
          "internalType": "uint256",
          "name": "",
          "type": "uint256"
        }
      ],
      "name": "AllBuyers",
      "outputs": [
        {
          "internalType": "uint256",
          "name": "bId",
          "type": "uint256"
        },
        {
          "internalType": "address",
          "name": "buyerAddress",
          "type": "address"
        },
        {
          "internalType": "uint256",
          "name": "buyerOffer",
          "type": "uint256"
        },
        {
          "internalType": "enum SmartEstate.offerApproval",
          "name": "request",
          "type": "uint8"
        },
        {
          "internalType": "uint256",
          "name": "ApplyForToken",
          "type": "uint256"
        },
        {
          "internalType": "bool",
          "name": "WinStatus",
          "type": "bool"
        }
      ],
      "stateMutability": "view",
      "type": "function",
      "constant": true
    },
    {
      "inputs": [
        {
          "internalType": "address",
          "name": "",
          "type": "address"
        }
      ],
      "name": "BuyerList",
      "outputs": [
        {
          "internalType": "uint256",
          "name": "bId",
          "type": "uint256"
        },
        {
          "internalType": "address",
          "name": "buyerAddress",
          "type": "address"
        },
        {
          "internalType": "uint256",
          "name": "buyerOffer",
          "type": "uint256"
        },
        {
          "internalType": "enum SmartEstate.offerApproval",
          "name": "request",
          "type": "uint8"
        },
        {
          "internalType": "uint256",
          "name": "ApplyForToken",
          "type": "uint256"
        },
        {
          "internalType": "bool",
          "name": "WinStatus",
          "type": "bool"
        }
      ],
      "stateMutability": "view",
      "type": "function",
      "constant": true
    },
    {
      "inputs": [
        {
          "internalType": "uint256",
          "name": "",
          "type": "uint256"
        }
      ],
      "name": "Offers",
      "outputs": [
        {
          "internalType": "bool",
          "name": "",
          "type": "bool"
        }
      ],
      "stateMutability": "view",
      "type": "function",
      "constant": true
    },
    {
      "inputs": [
        {
          "internalType": "address",
          "name": "",
          "type": "address"
        }
      ],
      "name": "OnlyOwner",
      "outputs": [
        {
          "internalType": "address",
          "name": "sellerAddress",
          "type": "address"
        },
        {
          "internalType": "uint256",
          "name": "propertyId",
          "type": "uint256"
        },
        {
          "internalType": "string",
          "name": "propertyAddress",
          "type": "string"
        },
        {
          "internalType": "string",
          "name": "city",
          "type": "string"
        },
        {
          "internalType": "uint256",
          "name": "room",
          "type": "uint256"
        },
        {
          "internalType": "string",
          "name": "area",
          "type": "string"
        },
        {
          "internalType": "string",
          "name": "propertyType",
          "type": "string"
        },
        {
          "internalType": "uint256",
          "name": "price",
          "type": "uint256"
        },
        {
          "internalType": "string",
          "name": "image",
          "type": "string"
        },
        {
          "internalType": "bool",
          "name": "saleStatus",
          "type": "bool"
        }
      ],
      "stateMutability": "view",
      "type": "function",
      "constant": true
    },
    {
      "inputs": [
        {
          "internalType": "uint256",
          "name": "",
          "type": "uint256"
        }
      ],
      "name": "PropertyList",
      "outputs": [
        {
          "internalType": "address",
          "name": "",
          "type": "address"
        }
      ],
      "stateMutability": "view",
      "type": "function",
      "constant": true
    },
    {
      "inputs": [
        {
          "internalType": "address",
          "name": "to",
          "type": "address"
        },
        {
          "internalType": "uint256",
          "name": "tokenId",
          "type": "uint256"
        }
      ],
      "name": "approve",
      "outputs": [],
      "stateMutability": "nonpayable",
      "type": "function"
    },
    {
      "inputs": [
        {
          "internalType": "address",
          "name": "owner",
          "type": "address"
        }
      ],
      "name": "balanceOf",
      "outputs": [
        {
          "internalType": "uint256",
          "name": "",
          "type": "uint256"
        }
      ],
      "stateMutability": "view",
      "type": "function",
      "constant": true
    },
    {
      "inputs": [],
      "name": "baseURI",
      "outputs": [
        {
          "internalType": "string",
          "name": "",
          "type": "string"
        }
      ],
      "stateMutability": "view",
      "type": "function",
      "constant": true
    },
    {
      "inputs": [
        {
          "internalType": "uint256",
          "name": "tokenId",
          "type": "uint256"
        }
      ],
      "name": "getApproved",
      "outputs": [
        {
          "internalType": "address",
          "name": "",
          "type": "address"
        }
      ],
      "stateMutability": "view",
      "type": "function",
      "constant": true
    },
    {
      "inputs": [
        {
          "internalType": "address",
          "name": "owner",
          "type": "address"
        },
        {
          "internalType": "address",
          "name": "operator",
          "type": "address"
        }
      ],
      "name": "isApprovedForAll",
      "outputs": [
        {
          "internalType": "bool",
          "name": "",
          "type": "bool"
        }
      ],
      "stateMutability": "view",
      "type": "function",
      "constant": true
    },
    {
      "inputs": [],
      "name": "name",
      "outputs": [
        {
          "internalType": "string",
          "name": "",
          "type": "string"
        }
      ],
      "stateMutability": "view",
      "type": "function",
      "constant": true
    },
    {
      "inputs": [
        {
          "internalType": "uint256",
          "name": "tokenId",
          "type": "uint256"
        }
      ],
      "name": "ownerOf",
      "outputs": [
        {
          "internalType": "address",
          "name": "",
          "type": "address"
        }
      ],
      "stateMutability": "view",
      "type": "function",
      "constant": true
    },
    {
      "inputs": [
        {
          "internalType": "address",
          "name": "from",
          "type": "address"
        },
        {
          "internalType": "address",
          "name": "to",
          "type": "address"
        },
        {
          "internalType": "uint256",
          "name": "tokenId",
          "type": "uint256"
        }
      ],
      "name": "safeTransferFrom",
      "outputs": [],
      "stateMutability": "nonpayable",
      "type": "function"
    },
    {
      "inputs": [
        {
          "internalType": "address",
          "name": "from",
          "type": "address"
        },
        {
          "internalType": "address",
          "name": "to",
          "type": "address"
        },
        {
          "internalType": "uint256",
          "name": "tokenId",
          "type": "uint256"
        },
        {
          "internalType": "bytes",
          "name": "_data",
          "type": "bytes"
        }
      ],
      "name": "safeTransferFrom",
      "outputs": [],
      "stateMutability": "nonpayable",
      "type": "function"
    },
    {
      "inputs": [
        {
          "internalType": "address",
          "name": "operator",
          "type": "address"
        },
        {
          "internalType": "bool",
          "name": "approved",
          "type": "bool"
        }
      ],
      "name": "setApprovalForAll",
      "outputs": [],
      "stateMutability": "nonpayable",
      "type": "function"
    },
    {
      "inputs": [
        {
          "internalType": "bytes4",
          "name": "interfaceId",
          "type": "bytes4"
        }
      ],
      "name": "supportsInterface",
      "outputs": [
        {
          "internalType": "bool",
          "name": "",
          "type": "bool"
        }
      ],
      "stateMutability": "view",
      "type": "function",
      "constant": true
    },
    {
      "inputs": [],
      "name": "symbol",
      "outputs": [
        {
          "internalType": "string",
          "name": "",
          "type": "string"
        }
      ],
      "stateMutability": "view",
      "type": "function",
      "constant": true
    },
    {
      "inputs": [
        {
          "internalType": "uint256",
          "name": "index",
          "type": "uint256"
        }
      ],
      "name": "tokenByIndex",
      "outputs": [
        {
          "internalType": "uint256",
          "name": "",
          "type": "uint256"
        }
      ],
      "stateMutability": "view",
      "type": "function",
      "constant": true
    },
    {
      "inputs": [
        {
          "internalType": "address",
          "name": "owner",
          "type": "address"
        },
        {
          "internalType": "uint256",
          "name": "index",
          "type": "uint256"
        }
      ],
      "name": "tokenOfOwnerByIndex",
      "outputs": [
        {
          "internalType": "uint256",
          "name": "",
          "type": "uint256"
        }
      ],
      "stateMutability": "view",
      "type": "function",
      "constant": true
    },
    {
      "inputs": [
        {
          "internalType": "uint256",
          "name": "tokenId",
          "type": "uint256"
        }
      ],
      "name": "tokenURI",
      "outputs": [
        {
          "internalType": "string",
          "name": "",
          "type": "string"
        }
      ],
      "stateMutability": "view",
      "type": "function",
      "constant": true
    },
    {
      "inputs": [],
      "name": "totalSupply",
      "outputs": [
        {
          "internalType": "uint256",
          "name": "",
          "type": "uint256"
        }
      ],
      "stateMutability": "view",
      "type": "function",
      "constant": true
    },
    {
      "inputs": [
        {
          "internalType": "address",
          "name": "from",
          "type": "address"
        },
        {
          "internalType": "address",
          "name": "to",
          "type": "address"
        },
        {
          "internalType": "uint256",
          "name": "tokenId",
          "type": "uint256"
        }
      ],
      "name": "transferFrom",
      "outputs": [],
      "stateMutability": "nonpayable",
      "type": "function"
    },
    {
      "inputs": [
        {
          "internalType": "string",
          "name": "_propertyAddress",
          "type": "string"
        },
        {
          "internalType": "string",
          "name": "_city",
          "type": "string"
        },
        {
          "internalType": "uint256",
          "name": "_room",
          "type": "uint256"
        },
        {
          "internalType": "string",
          "name": "_area",
          "type": "string"
        },
        {
          "internalType": "uint256",
          "name": "_priceInEther",
          "type": "uint256"
        },
        {
          "internalType": "string",
          "name": "_propertyType",
          "type": "string"
        },
        {
          "internalType": "string",
          "name": "_image",
          "type": "string"
        },
        {
          "internalType": "bool",
          "name": "_saleStatus",
          "type": "bool"
        },
        {
          "internalType": "string",
          "name": "_tokenUri",
          "type": "string"
        }
      ],
      "name": "RegisterProperty",
      "outputs": [
        {
          "internalType": "bool",
          "name": "",
          "type": "bool"
        }
      ],
      "stateMutability": "nonpayable",
      "type": "function"
    },
    {
      "inputs": [
        {
          "internalType": "uint256",
          "name": "PropertyId_TokenId",
          "type": "uint256"
        }
      ],
      "name": "EnablePropertySale",
      "outputs": [
        {
          "internalType": "bool",
          "name": "",
          "type": "bool"
        }
      ],
      "stateMutability": "nonpayable",
      "type": "function"
    },
    {
      "inputs": [
        {
          "internalType": "uint256",
          "name": "PropertyId_TokenId",
          "type": "uint256"
        }
      ],
      "name": "PropertyPricing",
      "outputs": [
        {
          "internalType": "uint256",
          "name": "",
          "type": "uint256"
        }
      ],
      "stateMutability": "view",
      "type": "function",
      "constant": true
    },
    {
      "inputs": [
        {
          "internalType": "uint256",
          "name": "PropertyId_TokenId",
          "type": "uint256"
        },
        {
          "internalType": "uint256",
          "name": "offerInEthers",
          "type": "uint256"
        }
      ],
      "name": "BuyingRequest",
      "outputs": [
        {
          "internalType": "bool",
          "name": "",
          "type": "bool"
        }
      ],
      "stateMutability": "nonpayable",
      "type": "function"
    },
    {
      "inputs": [
        {
          "internalType": "uint256",
          "name": "PropertyId_TokenId",
          "type": "uint256"
        }
      ],
      "name": "OfferStatus",
      "outputs": [
        {
          "components": [
            {
              "internalType": "uint256",
              "name": "bId",
              "type": "uint256"
            },
            {
              "internalType": "address",
              "name": "buyerAddress",
              "type": "address"
            },
            {
              "internalType": "uint256",
              "name": "buyerOffer",
              "type": "uint256"
            },
            {
              "internalType": "enum SmartEstate.offerApproval",
              "name": "request",
              "type": "uint8"
            },
            {
              "internalType": "uint256",
              "name": "ApplyForToken",
              "type": "uint256"
            },
            {
              "internalType": "bool",
              "name": "WinStatus",
              "type": "bool"
            }
          ],
          "internalType": "struct SmartEstate.BuyerInfo[]",
          "name": "",
          "type": "tuple[]"
        }
      ],
      "stateMutability": "nonpayable",
      "type": "function"
    },
    {
      "inputs": [
        {
          "internalType": "uint256",
          "name": "PropertyId_TokenId",
          "type": "uint256"
        },
        {
          "internalType": "address",
          "name": "_buyerAddress",
          "type": "address"
        }
      ],
      "name": "OfferReject",
      "outputs": [
        {
          "internalType": "bool",
          "name": "",
          "type": "bool"
        }
      ],
      "stateMutability": "nonpayable",
      "type": "function"
    },
    {
      "inputs": [
        {
          "internalType": "uint256",
          "name": "PropertyId_TokenId",
          "type": "uint256"
        },
        {
          "internalType": "address",
          "name": "_buyerAddress",
          "type": "address"
        }
      ],
      "name": "OfferAccept",
      "outputs": [
        {
          "internalType": "bool",
          "name": "",
          "type": "bool"
        }
      ],
      "stateMutability": "nonpayable",
      "type": "function"
    },
    {
      "inputs": [
        {
          "internalType": "uint256",
          "name": "PropertyId_TokenId",
          "type": "uint256"
        }
      ],
      "name": "BuyProperty",
      "outputs": [
        {
          "internalType": "bool",
          "name": "",
          "type": "bool"
        }
      ],
      "stateMutability": "payable",
      "type": "function",
      "payable": true
    }
  ],
  "bytecode": "0x60806040523480156200001157600080fd5b506040518060400160405280601781526020017f536d617274204573746174652050726f706572746965730000000000000000008152506040518060400160405280600381526020017f4553500000000000000000000000000000000000000000000000000000000000815250620000966301ffc9a760e01b6200011860201b60201c565b8160069080519060200190620000ae929190620001f0565b508060079080519060200190620000c7929190620001f0565b50620000e06380ac58cd60e01b6200011860201b60201c565b620000f8635b5e139f60e01b6200011860201b60201c565b6200011063780e9d6360e01b6200011860201b60201c565b505062000314565b63ffffffff60e01b817bffffffffffffffffffffffffffffffffffffffffffffffffffffffff1916141562000184576040517f08c379a00000000000000000000000000000000000000000000000000000000081526004016200017b90620002e1565b60405180910390fd5b6001600080837bffffffffffffffffffffffffffffffffffffffffffffffffffffffff19167bffffffffffffffffffffffffffffffffffffffffffffffffffffffff1916815260200190815260200160002060006101000a81548160ff02191690831515021790555050565b828054600181600116156101000203166002900490600052602060002090601f016020900481019282601f106200023357805160ff191683800117855562000264565b8280016001018555821562000264579182015b828111156200026357825182559160200191906001019062000246565b5b50905062000273919062000277565b5090565b6200029c91905b80821115620002985760008160009055506001016200027e565b5090565b90565b6000620002ae601c8362000303565b91507f4552433136353a20696e76616c696420696e74657266616365206964000000006000830152602082019050919050565b60006020820190508181036000830152620002fc816200029f565b9050919050565b600082825260208201905092915050565b6159f080620003246000396000f3fe6080604052600436106101cd5760003560e01c80634a1452ab116100f757806385d5785811610095578063c87b56dd11610064578063c87b56dd1461075e578063d7c871d41461079b578063e985e9c5146107d8578063eeb2fd4b14610815576101cd565b806385d578581461069f57806395d89b41146106e1578063a22cb4651461070c578063b88d4fde14610735576101cd565b80636352211e116100d15780636352211e146105bd5780636c0360eb146105fa57806370a0823114610625578063822dcd4b14610662576101cd565b80634a1452ab146105065780634f6ccce7146105435780635a05a50614610580576101cd565b806323b872dd1161016f57806332783c4c1161013e57806332783c4c146104265780634266fa171461046357806342842e0e146104a057806345482f42146104c9576101cd565b806323b872dd1461035357806325a596001461037c5780632f71513f146103ac5780632f745c59146103e9576101cd565b8063095ea7b3116101ab578063095ea7b3146102775780630a86c02a146102a057806318160ddd146102e6578063225cf72e14610311576101cd565b806301ffc9a7146101d257806306fdde031461020f578063081812fc1461023a575b600080fd5b3480156101de57600080fd5b506101f960048036036101f49190810190614162565b610852565b604051610206919061525c565b60405180910390f35b34801561021b57600080fd5b506102246108b9565b6040516102319190615277565b60405180910390f35b34801561024657600080fd5b50610261600480360361025c919081019061430a565b61095b565b60405161026e9190614ff4565b60405180910390f35b34801561028357600080fd5b5061029e60048036036102999190810190614126565b6109e0565b005b3480156102ac57600080fd5b506102c760048036036102c29190810190613fbb565b610af8565b6040516102dd9a9998979695949392919061517b565b60405180910390f35b3480156102f257600080fd5b506102fb610e71565b60405161030891906155b9565b60405180910390f35b34801561031d57600080fd5b506103386004803603610333919081019061436f565b610e82565b60405161034a96959493929190615635565b60405180910390f35b34801561035f57600080fd5b5061037a60048036036103759190810190614020565b610f12565b005b6103966004803603610391919081019061430a565b610f72565b6040516103a3919061525c565b60405180910390f35b3480156103b857600080fd5b506103d360048036036103ce9190810190614333565b611439565b6040516103e0919061525c565b60405180910390f35b3480156103f557600080fd5b50610410600480360361040b9190810190614126565b611691565b60405161041d91906155b9565b60405180910390f35b34801561043257600080fd5b5061044d6004803603610448919081019061430a565b6116ec565b60405161045a91906155b9565b60405180910390f35b34801561046f57600080fd5b5061048a600480360361048591908101906141b4565b611883565b604051610497919061525c565b60405180910390f35b3480156104ac57600080fd5b506104c760048036036104c29190810190614020565b611b24565b005b3480156104d557600080fd5b506104f060048036036104eb919081019061436f565b611b44565b6040516104fd919061525c565b60405180910390f35b34801561051257600080fd5b5061052d6004803603610528919081019061430a565b611f52565b60405161053a9190614ff4565b60405180910390f35b34801561054f57600080fd5b5061056a6004803603610565919081019061430a565b611f85565b60405161057791906155b9565b60405180910390f35b34801561058c57600080fd5b506105a760048036036105a2919081019061430a565b611fa8565b6040516105b4919061523a565b60405180910390f35b3480156105c957600080fd5b506105e460048036036105df919081019061430a565b6121f4565b6040516105f19190614ff4565b60405180910390f35b34801561060657600080fd5b5061060f61222b565b60405161061c9190615277565b60405180910390f35b34801561063157600080fd5b5061064c60048036036106479190810190613fbb565b6122cd565b60405161065991906155b9565b60405180910390f35b34801561066e57600080fd5b506106896004803603610684919081019061430a565b61238c565b604051610696919061525c565b60405180910390f35b3480156106ab57600080fd5b506106c660048036036106c19190810190613fbb565b612575565b6040516106d896959493929190615635565b60405180910390f35b3480156106ed57600080fd5b506106f66125eb565b6040516107039190615277565b60405180910390f35b34801561071857600080fd5b50610733600480360361072e91908101906140ea565b61268d565b005b34801561074157600080fd5b5061075c6004803603610757919081019061406f565b61280e565b005b34801561076a57600080fd5b506107856004803603610780919081019061430a565b612870565b6040516107929190615277565b60405180910390f35b3480156107a757600080fd5b506107c260048036036107bd919081019061430a565b6129fb565b6040516107cf919061525c565b60405180910390f35b3480156107e457600080fd5b506107ff60048036036107fa9190810190613fe4565b612a1b565b60405161080c919061525c565b60405180910390f35b34801561082157600080fd5b5061083c60048036036108379190810190614333565b612aaf565b604051610849919061525c565b60405180910390f35b6000806000837bffffffffffffffffffffffffffffffffffffffffffffffffffffffff19167bffffffffffffffffffffffffffffffffffffffffffffffffffffffff1916815260200190815260200160002060009054906101000a900460ff169050919050565b606060068054600181600116156101000203166002900480601f0160208091040260200160405190810160405280929190818152602001828054600181600116156101000203166002900480156109515780601f1061092657610100808354040283529160200191610951565b820191906000526020600020905b81548152906001019060200180831161093457829003601f168201915b5050505050905090565b600061096682612d07565b6109a5576040517f08c379a000000000000000000000000000000000000000000000000000000000815260040161099c90615499565b60405180910390fd5b6004600083815260200190815260200160002060009054906101000a900473ffffffffffffffffffffffffffffffffffffffff169050919050565b60006109eb826121f4565b90508073ffffffffffffffffffffffffffffffffffffffff168373ffffffffffffffffffffffffffffffffffffffff161415610a5c576040517f08c379a0000000000000000000000000000000000000000000000000000000008152600401610a5390615539565b60405180910390fd5b8073ffffffffffffffffffffffffffffffffffffffff16610a7b612d24565b73ffffffffffffffffffffffffffffffffffffffff161480610aaa5750610aa981610aa4612d24565b612a1b565b5b610ae9576040517f08c379a0000000000000000000000000000000000000000000000000000000008152600401610ae0906153d9565b60405180910390fd5b610af38383612d2c565b505050565b600c6020528060005260406000206000915090508060000160009054906101000a900473ffffffffffffffffffffffffffffffffffffffff1690806001015490806002018054600181600116156101000203166002900480601f016020809104026020016040519081016040528092919081815260200182805460018160011615610100020316600290048015610bd05780601f10610ba557610100808354040283529160200191610bd0565b820191906000526020600020905b815481529060010190602001808311610bb357829003601f168201915b505050505090806003018054600181600116156101000203166002900480601f016020809104026020016040519081016040528092919081815260200182805460018160011615610100020316600290048015610c6e5780601f10610c4357610100808354040283529160200191610c6e565b820191906000526020600020905b815481529060010190602001808311610c5157829003601f168201915b505050505090806004015490806005018054600181600116156101000203166002900480601f016020809104026020016040519081016040528092919081815260200182805460018160011615610100020316600290048015610d125780601f10610ce757610100808354040283529160200191610d12565b820191906000526020600020905b815481529060010190602001808311610cf557829003601f168201915b505050505090806006018054600181600116156101000203166002900480601f016020809104026020016040519081016040528092919081815260200182805460018160011615610100020316600290048015610db05780601f10610d8557610100808354040283529160200191610db0565b820191906000526020600020905b815481529060010190602001808311610d9357829003601f168201915b505050505090806007015490806008018054600181600116156101000203166002900480601f016020809104026020016040519081016040528092919081815260200182805460018160011615610100020316600290048015610e545780601f10610e2957610100808354040283529160200191610e54565b820191906000526020600020905b815481529060010190602001808311610e3757829003601f168201915b5050505050908060090160009054906101000a900460ff1690508a565b6000610e7d6002612de5565b905090565b600f6020528160005260406000208181548110610e9b57fe5b9060005260206000209060060201600091509150508060000154908060010160009054906101000a900473ffffffffffffffffffffffffffffffffffffffff16908060020154908060030160009054906101000a900460ff16908060040154908060050160009054906101000a900460ff16905086565b610f23610f1d612d24565b82612dfa565b610f62576040517f08c379a0000000000000000000000000000000000000000000000000000000008152600401610f5990615579565b60405180910390fd5b610f6d838383612ed8565b505050565b6000610f7d82612d07565b610fbc576040517f08c379a0000000000000000000000000000000000000000000000000000000008152600401610fb3906152f9565b60405180910390fd5b3373ffffffffffffffffffffffffffffffffffffffff16600e60003373ffffffffffffffffffffffffffffffffffffffff1673ffffffffffffffffffffffffffffffffffffffff16815260200190815260200160002060010160009054906101000a900473ffffffffffffffffffffffffffffffffffffffff1673ffffffffffffffffffffffffffffffffffffffff161461108c576040517f08c379a000000000000000000000000000000000000000000000000000000000815260040161108390615459565b60405180910390fd5b6001600281111561109957fe5b600e60003373ffffffffffffffffffffffffffffffffffffffff1673ffffffffffffffffffffffffffffffffffffffff16815260200190815260200160002060030160009054906101000a900460ff1660028111156110f457fe5b14611134576040517f08c379a000000000000000000000000000000000000000000000000000000000815260040161112b90615399565b60405180910390fd5b60003411611177576040517f08c379a000000000000000000000000000000000000000000000000000000000815260040161116e906154f9565b60405180910390fd5b60006111d6670de0b6b3a7640000600e60003373ffffffffffffffffffffffffffffffffffffffff1673ffffffffffffffffffffffffffffffffffffffff168152602001908152602001600020600201546130ef90919063ffffffff16565b905034811461121a576040517f08c379a000000000000000000000000000000000000000000000000000000000815260040161121190615379565b60405180910390fd5b6000600c6000600d600087815260200190815260200160002060009054906101000a900473ffffffffffffffffffffffffffffffffffffffff1673ffffffffffffffffffffffffffffffffffffffff1673ffffffffffffffffffffffffffffffffffffffff16815260200190815260200160002060000160009054906101000a900473ffffffffffffffffffffffffffffffffffffffff1690506000600c6000600d600088815260200190815260200160002060009054906101000a900473ffffffffffffffffffffffffffffffffffffffff1673ffffffffffffffffffffffffffffffffffffffff1673ffffffffffffffffffffffffffffffffffffffff16815260200190815260200160002060090160006101000a81548160ff0219169083151502179055506001600e60008373ffffffffffffffffffffffffffffffffffffffff1673ffffffffffffffffffffffffffffffffffffffff16815260200190815260200160002060050160006101000a81548160ff0219169083151502179055507fd5917d0668d815f4889482ed1877273d8ad2a01e38b73e5791673869e2a7e904813386856000600e60008873ffffffffffffffffffffffffffffffffffffffff1673ffffffffffffffffffffffffffffffffffffffff16815260200190815260200160002060050160009054906101000a900460ff166040516114269695949392919061511a565b60405180910390a1600192505050919050565b60003373ffffffffffffffffffffffffffffffffffffffff16600c60003373ffffffffffffffffffffffffffffffffffffffff1673ffffffffffffffffffffffffffffffffffffffff16815260200190815260200160002060000160009054906101000a900473ffffffffffffffffffffffffffffffffffffffff1673ffffffffffffffffffffffffffffffffffffffff161461150b576040517f08c379a000000000000000000000000000000000000000000000000000000000815260040161150290615319565b60405180910390fd5b61151483612d07565b611553576040517f08c379a000000000000000000000000000000000000000000000000000000000815260040161154a906152f9565b60405180910390fd5b8173ffffffffffffffffffffffffffffffffffffffff16600e60008473ffffffffffffffffffffffffffffffffffffffff1673ffffffffffffffffffffffffffffffffffffffff16815260200190815260200160002060010160009054906101000a900473ffffffffffffffffffffffffffffffffffffffff1673ffffffffffffffffffffffffffffffffffffffff1614611623576040517f08c379a000000000000000000000000000000000000000000000000000000000815260040161161a90615459565b60405180910390fd5b6001600e60008473ffffffffffffffffffffffffffffffffffffffff1673ffffffffffffffffffffffffffffffffffffffff16815260200190815260200160002060030160006101000a81548160ff0219169083600281111561168257fe5b02179055506001905092915050565b60006116e482600160008673ffffffffffffffffffffffffffffffffffffffff1673ffffffffffffffffffffffffffffffffffffffff16815260200190815260200160002061315f90919063ffffffff16565b905092915050565b60003373ffffffffffffffffffffffffffffffffffffffff16600c60003373ffffffffffffffffffffffffffffffffffffffff1673ffffffffffffffffffffffffffffffffffffffff16815260200190815260200160002060000160009054906101000a900473ffffffffffffffffffffffffffffffffffffffff1673ffffffffffffffffffffffffffffffffffffffff16146117be576040517f08c379a00000000000000000000000000000000000000000000000000000000081526004016117b590615319565b60405180910390fd5b6117c782612d07565b611806576040517f08c379a00000000000000000000000000000000000000000000000000000000081526004016117fd906152f9565b60405180910390fd5b600c6000600d600085815260200190815260200160002060009054906101000a900473ffffffffffffffffffffffffffffffffffffffff1673ffffffffffffffffffffffffffffffffffffffff1673ffffffffffffffffffffffffffffffffffffffff168152602001908152602001600020600701549050919050565b6000600b600081548092919060010191905055506000600b5490506118a83382613179565b6118b28184613307565b6118ba613cc1565b6040518061014001604052803373ffffffffffffffffffffffffffffffffffffffff1681526020018381526020018d81526020018c81526020018b81526020018a8152602001888152602001898152602001878152602001861515815250905080600c60003373ffffffffffffffffffffffffffffffffffffffff1673ffffffffffffffffffffffffffffffffffffffff16815260200190815260200160002060008201518160000160006101000a81548173ffffffffffffffffffffffffffffffffffffffff021916908373ffffffffffffffffffffffffffffffffffffffff1602179055506020820151816001015560408201518160020190805190602001906119c7929190613d2c565b5060608201518160030190805190602001906119e4929190613d2c565b506080820151816004015560a0820151816005019080519060200190611a0b929190613d2c565b5060c0820151816006019080519060200190611a28929190613d2c565b5060e08201518160070155610100820151816008019080519060200190611a50929190613d2c565b506101208201518160090160006101000a81548160ff02191690831515021790555090505033600d600084815260200190815260200160002060006101000a81548173ffffffffffffffffffffffffffffffffffffffff021916908373ffffffffffffffffffffffffffffffffffffffff1602179055507f5baccd78aa26fd4d554e82a7b7cd78e216126f45cd329b96affd63b68bc55a5b33838e8e8e8e8d8f8e6000604051611b099a9998979695949392919061505b565b60405180910390a16001925050509998505050505050505050565b611b3f8383836040518060200160405280600081525061280e565b505050565b6000611b4f83612d07565b611b8e576040517f08c379a0000000000000000000000000000000000000000000000000000000008152600401611b85906152f9565b60405180910390fd5b600c6000600d600086815260200190815260200160002060009054906101000a900473ffffffffffffffffffffffffffffffffffffffff1673ffffffffffffffffffffffffffffffffffffffff1673ffffffffffffffffffffffffffffffffffffffff16815260200190815260200160002060090160009054906101000a900460ff16611c50576040517f08c379a0000000000000000000000000000000000000000000000000000000008152600401611c4790615559565b60405180910390fd5b600a60008154809291906001019190505550611c6a613dac565b6040518060c00160405280600a5481526020013373ffffffffffffffffffffffffffffffffffffffff16815260200184815260200160006002811115611cac57fe5b8152602001858152602001600015158152509050600f60008581526020019081526020016000208190806001815401808255809150506001900390600052602060002090600602016000909190919091506000820151816000015560208201518160010160006101000a81548173ffffffffffffffffffffffffffffffffffffffff021916908373ffffffffffffffffffffffffffffffffffffffff1602179055506040820151816002015560608201518160030160006101000a81548160ff02191690836002811115611d7c57fe5b02179055506080820151816004015560a08201518160050160006101000a81548160ff021916908315150217905550505080600e60003373ffffffffffffffffffffffffffffffffffffffff1673ffffffffffffffffffffffffffffffffffffffff1681526020019081526020016000206000820151816000015560208201518160010160006101000a81548173ffffffffffffffffffffffffffffffffffffffff021916908373ffffffffffffffffffffffffffffffffffffffff1602179055506040820151816002015560608201518160030160006101000a81548160ff02191690836002811115611e6c57fe5b02179055506080820151816004015560a08201518160050160006101000a81548160ff0219169083151502179055509050506000600e60003373ffffffffffffffffffffffffffffffffffffffff1673ffffffffffffffffffffffffffffffffffffffff16815260200190815260200160002060030160006101000a81548160ff02191690836002811115611efd57fe5b02179055507fb7c3959eaaa6065bb371d052218b0435f18042bbe300803715f9c0e385a214ca600a5433856000886000604051611f3f969594939291906155d4565b60405180910390a1600191505092915050565b600d6020528060005260406000206000915054906101000a900473ffffffffffffffffffffffffffffffffffffffff1681565b600080611f9c83600261337b90919063ffffffff16565b50905080915050919050565b60603373ffffffffffffffffffffffffffffffffffffffff16600c60003373ffffffffffffffffffffffffffffffffffffffff1673ffffffffffffffffffffffffffffffffffffffff16815260200190815260200160002060000160009054906101000a900473ffffffffffffffffffffffffffffffffffffffff1673ffffffffffffffffffffffffffffffffffffffff161461207a576040517f08c379a000000000000000000000000000000000000000000000000000000000815260040161207190615319565b60405180910390fd5b61208382612d07565b6120c2576040517f08c379a00000000000000000000000000000000000000000000000000000000081526004016120b9906152f9565b60405180910390fd5b6060600f6000848152602001908152602001600020805480602002602001604051908101604052809291908181526020016000905b828210156121e557838290600052602060002090600602016040518060c0016040529081600082015481526020016001820160009054906101000a900473ffffffffffffffffffffffffffffffffffffffff1673ffffffffffffffffffffffffffffffffffffffff1673ffffffffffffffffffffffffffffffffffffffff168152602001600282015481526020016003820160009054906101000a900460ff1660028111156121a257fe5b60028111156121ad57fe5b8152602001600482015481526020016005820160009054906101000a900460ff161515151581525050815260200190600101906120f7565b50505050905080915050919050565b6000612224826040518060600160405280602981526020016159926029913960026133aa9092919063ffffffff16565b9050919050565b606060098054600181600116156101000203166002900480601f0160208091040260200160405190810160405280929190818152602001828054600181600116156101000203166002900480156122c35780601f10612298576101008083540402835291602001916122c3565b820191906000526020600020905b8154815290600101906020018083116122a657829003601f168201915b5050505050905090565b60008073ffffffffffffffffffffffffffffffffffffffff168273ffffffffffffffffffffffffffffffffffffffff16141561233e576040517f08c379a0000000000000000000000000000000000000000000000000000000008152600401612335906153f9565b60405180910390fd5b612385600160008473ffffffffffffffffffffffffffffffffffffffff1673ffffffffffffffffffffffffffffffffffffffff1681526020019081526020016000206133c9565b9050919050565b60003373ffffffffffffffffffffffffffffffffffffffff16600c60003373ffffffffffffffffffffffffffffffffffffffff1673ffffffffffffffffffffffffffffffffffffffff16815260200190815260200160002060000160009054906101000a900473ffffffffffffffffffffffffffffffffffffffff1673ffffffffffffffffffffffffffffffffffffffff161461245e576040517f08c379a000000000000000000000000000000000000000000000000000000000815260040161245590615319565b60405180910390fd5b61246782612d07565b6124a6576040517f08c379a000000000000000000000000000000000000000000000000000000000815260040161249d906152f9565b60405180910390fd5b6001600c6000600d600086815260200190815260200160002060009054906101000a900473ffffffffffffffffffffffffffffffffffffffff1673ffffffffffffffffffffffffffffffffffffffff1673ffffffffffffffffffffffffffffffffffffffff16815260200190815260200160002060090160006101000a81548160ff0219169083151502179055507f8032abbce3e20f1f71d7656e10fa55d5ace8775b4f3137443a3ead7afa41f99d6001604051612564919061525c565b60405180910390a160019050919050565b600e6020528060005260406000206000915090508060000154908060010160009054906101000a900473ffffffffffffffffffffffffffffffffffffffff16908060020154908060030160009054906101000a900460ff16908060040154908060050160009054906101000a900460ff16905086565b606060078054600181600116156101000203166002900480601f0160208091040260200160405190810160405280929190818152602001828054600181600116156101000203166002900480156126835780601f1061265857610100808354040283529160200191612683565b820191906000526020600020905b81548152906001019060200180831161266657829003601f168201915b5050505050905090565b612695612d24565b73ffffffffffffffffffffffffffffffffffffffff168273ffffffffffffffffffffffffffffffffffffffff161415612703576040517f08c379a00000000000000000000000000000000000000000000000000000000081526004016126fa90615359565b60405180910390fd5b8060056000612710612d24565b73ffffffffffffffffffffffffffffffffffffffff1673ffffffffffffffffffffffffffffffffffffffff16815260200190815260200160002060008473ffffffffffffffffffffffffffffffffffffffff1673ffffffffffffffffffffffffffffffffffffffff16815260200190815260200160002060006101000a81548160ff0219169083151502179055508173ffffffffffffffffffffffffffffffffffffffff166127bd612d24565b73ffffffffffffffffffffffffffffffffffffffff167f17307eab39ab6107e8899845ad3d59bd9653f200f220920489ca2b5937696c3183604051612802919061525c565b60405180910390a35050565b61281f612819612d24565b83612dfa565b61285e576040517f08c379a000000000000000000000000000000000000000000000000000000000815260040161285590615579565b60405180910390fd5b61286a848484846133de565b50505050565b606061287b82612d07565b6128ba576040517f08c379a00000000000000000000000000000000000000000000000000000000081526004016128b190615519565b60405180910390fd5b6060600860008481526020019081526020016000208054600181600116156101000203166002900480601f0160208091040260200160405190810160405280929190818152602001828054600181600116156101000203166002900480156129635780601f1061293857610100808354040283529160200191612963565b820191906000526020600020905b81548152906001019060200180831161294657829003601f168201915b5050505050905060006009805460018160011615610100020316600290049050141561299257809150506129f6565b6000815111156129c7576009816040516020016129b0929190614fd0565b6040516020818303038152906040529150506129f6565b60096129d28461343a565b6040516020016129e3929190614fd0565b6040516020818303038152906040529150505b919050565b60106020528060005260406000206000915054906101000a900460ff1681565b6000600560008473ffffffffffffffffffffffffffffffffffffffff1673ffffffffffffffffffffffffffffffffffffffff16815260200190815260200160002060008373ffffffffffffffffffffffffffffffffffffffff1673ffffffffffffffffffffffffffffffffffffffff16815260200190815260200160002060009054906101000a900460ff16905092915050565b60003373ffffffffffffffffffffffffffffffffffffffff16600c60003373ffffffffffffffffffffffffffffffffffffffff1673ffffffffffffffffffffffffffffffffffffffff16815260200190815260200160002060000160009054906101000a900473ffffffffffffffffffffffffffffffffffffffff1673ffffffffffffffffffffffffffffffffffffffff1614612b81576040517f08c379a0000000000000000000000000000000000000000000000000000000008152600401612b7890615319565b60405180910390fd5b612b8a83612d07565b612bc9576040517f08c379a0000000000000000000000000000000000000000000000000000000008152600401612bc0906152f9565b60405180910390fd5b8173ffffffffffffffffffffffffffffffffffffffff16600e60008473ffffffffffffffffffffffffffffffffffffffff1673ffffffffffffffffffffffffffffffffffffffff16815260200190815260200160002060010160009054906101000a900473ffffffffffffffffffffffffffffffffffffffff1673ffffffffffffffffffffffffffffffffffffffff1614612c99576040517f08c379a0000000000000000000000000000000000000000000000000000000008152600401612c9090615459565b60405180910390fd5b6002600e60008473ffffffffffffffffffffffffffffffffffffffff1673ffffffffffffffffffffffffffffffffffffffff16815260200190815260200160002060030160006101000a81548160ff02191690836002811115612cf857fe5b02179055506001905092915050565b6000612d1d82600261356a90919063ffffffff16565b9050919050565b600033905090565b816004600083815260200190815260200160002060006101000a81548173ffffffffffffffffffffffffffffffffffffffff021916908373ffffffffffffffffffffffffffffffffffffffff160217905550808273ffffffffffffffffffffffffffffffffffffffff16612d9f836121f4565b73ffffffffffffffffffffffffffffffffffffffff167f8c5be1e5ebec7d5bd14f71427d1e84f3dd0314c0f7b2291e5b200ac8c7c3b92560405160405180910390a45050565b6000612df382600001613584565b9050919050565b6000612e0582612d07565b612e44576040517f08c379a0000000000000000000000000000000000000000000000000000000008152600401612e3b906153b9565b60405180910390fd5b6000612e4f836121f4565b90508073ffffffffffffffffffffffffffffffffffffffff168473ffffffffffffffffffffffffffffffffffffffff161480612ebe57508373ffffffffffffffffffffffffffffffffffffffff16612ea68461095b565b73ffffffffffffffffffffffffffffffffffffffff16145b80612ecf5750612ece8185612a1b565b5b91505092915050565b8273ffffffffffffffffffffffffffffffffffffffff16612ef8826121f4565b73ffffffffffffffffffffffffffffffffffffffff1614612f4e576040517f08c379a0000000000000000000000000000000000000000000000000000000008152600401612f45906154d9565b60405180910390fd5b600073ffffffffffffffffffffffffffffffffffffffff168273ffffffffffffffffffffffffffffffffffffffff161415612fbe576040517f08c379a0000000000000000000000000000000000000000000000000000000008152600401612fb590615339565b60405180910390fd5b612fc9838383613595565b612fd4600082612d2c565b61302581600160008673ffffffffffffffffffffffffffffffffffffffff1673ffffffffffffffffffffffffffffffffffffffff16815260200190815260200160002061359a90919063ffffffff16565b5061307781600160008573ffffffffffffffffffffffffffffffffffffffff1673ffffffffffffffffffffffffffffffffffffffff1681526020019081526020016000206135b490919063ffffffff16565b5061308e818360026135ce9092919063ffffffff16565b50808273ffffffffffffffffffffffffffffffffffffffff168473ffffffffffffffffffffffffffffffffffffffff167fddf252ad1be2c89b69c2b068fc378daa952ba7f163c4a11628f55a4df523b3ef60405160405180910390a4505050565b6000808314156131025760009050613159565b600082840290508284828161311357fe5b0414613154576040517f08c379a000000000000000000000000000000000000000000000000000000000815260040161314b90615479565b60405180910390fd5b809150505b92915050565b600061316e8360000183613603565b60001c905092915050565b600073ffffffffffffffffffffffffffffffffffffffff168273ffffffffffffffffffffffffffffffffffffffff1614156131e9576040517f08c379a00000000000000000000000000000000000000000000000000000000081526004016131e090615439565b60405180910390fd5b6131f281612d07565b15613232576040517f08c379a0000000000000000000000000000000000000000000000000000000008152600401613229906152d9565b60405180910390fd5b61323e60008383613595565b61328f81600160008573ffffffffffffffffffffffffffffffffffffffff1673ffffffffffffffffffffffffffffffffffffffff1681526020019081526020016000206135b490919063ffffffff16565b506132a6818360026135ce9092919063ffffffff16565b50808273ffffffffffffffffffffffffffffffffffffffff16600073ffffffffffffffffffffffffffffffffffffffff167fddf252ad1be2c89b69c2b068fc378daa952ba7f163c4a11628f55a4df523b3ef60405160405180910390a45050565b61331082612d07565b61334f576040517f08c379a0000000000000000000000000000000000000000000000000000000008152600401613346906154b9565b60405180910390fd5b80600860008481526020019081526020016000209080519060200190613376929190613e05565b505050565b60008060008061338e8660000186613670565b915091508160001c8160001c8090509350935050509250929050565b60006133bd846000018460001b846136f3565b60001c90509392505050565b60006133d782600001613784565b9050919050565b6133e9848484612ed8565b6133f584848484613795565b613434576040517f08c379a000000000000000000000000000000000000000000000000000000000815260040161342b906152b9565b60405180910390fd5b50505050565b60606000821415613482576040518060400160405280600181526020017f30000000000000000000000000000000000000000000000000000000000000008152509050613565565b600082905060005b600082146134ac578080600101915050600a82816134a457fe5b04915061348a565b6060816040519080825280601f01601f1916602001820160405280156134e15781602001600182028038833980820191505090505b50905060006001830390508593505b6000841461355d57600a848161350257fe5b0660300160f81b8282806001900393508151811061351c57fe5b60200101907effffffffffffffffffffffffffffffffffffffffffffffffffffffffffffff1916908160001a905350600a848161355557fe5b0493506134f0565b819450505050505b919050565b600061357c836000018360001b6138f9565b905092915050565b600081600001805490509050919050565b505050565b60006135ac836000018360001b61391c565b905092915050565b60006135c6836000018360001b613a04565b905092915050565b60006135fa846000018460001b8473ffffffffffffffffffffffffffffffffffffffff1660001b613a74565b90509392505050565b60008183600001805490501161364e576040517f08c379a000000000000000000000000000000000000000000000000000000000815260040161364590615299565b60405180910390fd5b82600001828154811061365d57fe5b9060005260206000200154905092915050565b600080828460000180549050116136bc576040517f08c379a00000000000000000000000000000000000000000000000000000000081526004016136b390615419565b60405180910390fd5b60008460000184815481106136cd57fe5b906000526020600020906002020190508060000154816001015492509250509250929050565b60008084600101600085815260200190815260200160002054905060008114158390613755576040517f08c379a000000000000000000000000000000000000000000000000000000000815260040161374c9190615277565b60405180910390fd5b5084600001600182038154811061376857fe5b9060005260206000209060020201600101549150509392505050565b600081600001805490509050919050565b60006137b68473ffffffffffffffffffffffffffffffffffffffff16613b50565b6137c357600190506138f1565b606061388a63150b7a0260e01b6137d8612d24565b8887876040516024016137ee949392919061500f565b604051602081830303815290604052907bffffffffffffffffffffffffffffffffffffffffffffffffffffffff19166020820180517bffffffffffffffffffffffffffffffffffffffffffffffffffffffff8381831617835250505050604051806060016040528060328152602001615960603291398773ffffffffffffffffffffffffffffffffffffffff16613b639092919063ffffffff16565b90506000818060200190516138a2919081019061418b565b905063150b7a0260e01b7bffffffffffffffffffffffffffffffffffffffffffffffffffffffff1916817bffffffffffffffffffffffffffffffffffffffffffffffffffffffff191614925050505b949350505050565b600080836001016000848152602001908152602001600020541415905092915050565b600080836001016000848152602001908152602001600020549050600081146139f8576000600182039050600060018660000180549050039050600086600001828154811061396757fe5b906000526020600020015490508087600001848154811061398457fe5b90600052602060002001819055506001830187600101600083815260200190815260200160002081905550866000018054806139bc57fe5b600190038181906000526020600020016000905590558660010160008781526020019081526020016000206000905560019450505050506139fe565b60009150505b92915050565b6000613a108383613b7b565b613a69578260000182908060018154018082558091505060019003906000526020600020016000909190919091505582600001805490508360010160008481526020019081526020016000208190555060019050613a6e565b600090505b92915050565b6000808460010160008581526020019081526020016000205490506000811415613b1b57846000016040518060400160405280868152602001858152509080600181540180825580915050600190039060005260206000209060020201600090919091909150600082015181600001556020820151816001015550508460000180549050856001016000868152602001908152602001600020819055506001915050613b49565b82856000016001830381548110613b2e57fe5b90600052602060002090600202016001018190555060009150505b9392505050565b600080823b905060008111915050919050565b6060613b728484600085613b9e565b90509392505050565b600080836001016000848152602001908152602001600020541415905092915050565b6060613ba985613b50565b613be8576040517f08c379a0000000000000000000000000000000000000000000000000000000008152600401613bdf90615599565b60405180910390fd5b600060608673ffffffffffffffffffffffffffffffffffffffff168587604051613c129190614fb9565b60006040518083038185875af1925050503d8060008114613c4f576040519150601f19603f3d011682016040523d82523d6000602084013e613c54565b606091505b50915091508115613c69578092505050613cb9565b600081511115613c7c5780518082602001fd5b836040517f08c379a0000000000000000000000000000000000000000000000000000000008152600401613cb09190615277565b60405180910390fd5b949350505050565b604051806101400160405280600073ffffffffffffffffffffffffffffffffffffffff16815260200160008152602001606081526020016060815260200160008152602001606081526020016060815260200160008152602001606081526020016000151581525090565b828054600181600116156101000203166002900490600052602060002090601f016020900481019282601f10613d6d57805160ff1916838001178555613d9b565b82800160010185558215613d9b579182015b82811115613d9a578251825591602001919060010190613d7f565b5b509050613da89190613e85565b5090565b6040518060c0016040528060008152602001600073ffffffffffffffffffffffffffffffffffffffff1681526020016000815260200160006002811115613def57fe5b8152602001600081526020016000151581525090565b828054600181600116156101000203166002900490600052602060002090601f016020900481019282601f10613e4657805160ff1916838001178555613e74565b82800160010185558215613e74579182015b82811115613e73578251825591602001919060010190613e58565b5b509050613e819190613e85565b5090565b613ea791905b80821115613ea3576000816000905550600101613e8b565b5090565b90565b600081359050613eb981615903565b92915050565b600081359050613ece8161591a565b92915050565b600081359050613ee381615931565b92915050565b600081519050613ef881615931565b92915050565b600082601f830112613f0f57600080fd5b8135613f22613f1d826156c3565b615696565b91508082526020830160208301858383011115613f3e57600080fd5b613f498382846158a3565b50505092915050565b600082601f830112613f6357600080fd5b8135613f76613f71826156ef565b615696565b91508082526020830160208301858383011115613f9257600080fd5b613f9d8382846158a3565b50505092915050565b600081359050613fb581615948565b92915050565b600060208284031215613fcd57600080fd5b6000613fdb84828501613eaa565b91505092915050565b60008060408385031215613ff757600080fd5b600061400585828601613eaa565b925050602061401685828601613eaa565b9150509250929050565b60008060006060848603121561403557600080fd5b600061404386828701613eaa565b935050602061405486828701613eaa565b925050604061406586828701613fa6565b9150509250925092565b6000806000806080858703121561408557600080fd5b600061409387828801613eaa565b94505060206140a487828801613eaa565b93505060406140b587828801613fa6565b925050606085013567ffffffffffffffff8111156140d257600080fd5b6140de87828801613efe565b91505092959194509250565b600080604083850312156140fd57600080fd5b600061410b85828601613eaa565b925050602061411c85828601613ebf565b9150509250929050565b6000806040838503121561413957600080fd5b600061414785828601613eaa565b925050602061415885828601613fa6565b9150509250929050565b60006020828403121561417457600080fd5b600061418284828501613ed4565b91505092915050565b60006020828403121561419d57600080fd5b60006141ab84828501613ee9565b91505092915050565b60008060008060008060008060006101208a8c0312156141d357600080fd5b60008a013567ffffffffffffffff8111156141ed57600080fd5b6141f98c828d01613f52565b99505060208a013567ffffffffffffffff81111561421657600080fd5b6142228c828d01613f52565b98505060406142338c828d01613fa6565b97505060608a013567ffffffffffffffff81111561425057600080fd5b61425c8c828d01613f52565b965050608061426d8c828d01613fa6565b95505060a08a013567ffffffffffffffff81111561428a57600080fd5b6142968c828d01613f52565b94505060c08a013567ffffffffffffffff8111156142b357600080fd5b6142bf8c828d01613f52565b93505060e06142d08c828d01613ebf565b9250506101008a013567ffffffffffffffff8111156142ee57600080fd5b6142fa8c828d01613f52565b9150509295985092959850929598565b60006020828403121561431c57600080fd5b600061432a84828501613fa6565b91505092915050565b6000806040838503121561434657600080fd5b600061435485828601613fa6565b925050602061436585828601613eaa565b9150509250929050565b6000806040838503121561438257600080fd5b600061439085828601613fa6565b92505060206143a185828601613fa6565b9150509250929050565b60006143b78383614f20565b60c08301905092915050565b6143cc8161585b565b82525050565b6143db816157d4565b82525050565b6143ea816157c2565b82525050565b6143f9816157c2565b82525050565b600061440a82615740565b6144148185615779565b935061441f8361571b565b8060005b8381101561445057815161443788826143ab565b97506144428361576c565b925050600181019050614423565b5085935050505092915050565b614466816157e6565b82525050565b614475816157e6565b82525050565b60006144868261574b565b614490818561578a565b93506144a08185602086016158b2565b6144a9816158e5565b840191505092915050565b60006144bf8261574b565b6144c9818561579b565b93506144d98185602086016158b2565b80840191505092915050565b6144ee8161586d565b82525050565b6144fd8161586d565b82525050565b600061450e82615761565b61451881856157a6565b93506145288185602086016158b2565b614531816158e5565b840191505092915050565b600061454782615761565b61455181856157b7565b93506145618185602086016158b2565b80840191505092915050565b600061457882615756565b61458281856157a6565b93506145928185602086016158b2565b61459b816158e5565b840191505092915050565b6000815460018116600081146145c357600181146145e85761462c565b607f60028304166145d481876157b7565b955060ff198316865280860193505061462c565b600282046145f681876157b7565b95506146018561572b565b60005b8281101561462357815481890152600182019150602081019050614604565b82880195505050505b505092915050565b60006146416022836157a6565b91507f456e756d657261626c655365743a20696e646578206f7574206f6620626f756e60008301527f64730000000000000000000000000000000000000000000000000000000000006020830152604082019050919050565b60006146a76032836157a6565b91507f4552433732313a207472616e7366657220746f206e6f6e20455243373231526560008301527f63656976657220696d706c656d656e74657200000000000000000000000000006020830152604082019050919050565b600061470d601c836157a6565b91507f4552433732313a20746f6b656e20616c7265616479206d696e746564000000006000830152602082019050919050565b600061474d6026836157a6565b91507f4572726f723a20494e56414c49442050726f7065727479206964206f7220746f60008301527f6b656e20696400000000000000000000000000000000000000000000000000006020830152604082019050919050565b60006147b36023836157a6565b91507f4572726f723a204f6e6c792050726f7065727479204f776e65722072756e207460008301527f68697300000000000000000000000000000000000000000000000000000000006020830152604082019050919050565b60006148196024836157a6565b91507f4552433732313a207472616e7366657220746f20746865207a65726f2061646460008301527f72657373000000000000000000000000000000000000000000000000000000006020830152604082019050919050565b600061487f6019836157a6565b91507f4552433732313a20617070726f766520746f2063616c6c6572000000000000006000830152602082019050919050565b60006148bf6038836157a6565b91507f4572726f723a20536f7272792c2050726963696e67206f662070726f7065727460008301527f79206e6f74206d6174636865642077697468206f6666657200000000000000006020830152604082019050919050565b6000614925603e836157a6565b91507f4572726f723a20546869732050726f7065727479206e6f7420666f722073616c60008301527f6520284f666665722072657175657374206e6f7420617070726f7665642900006020830152604082019050919050565b600061498b602c836157a6565b91507f4552433732313a206f70657261746f7220717565727920666f72206e6f6e657860008301527f697374656e7420746f6b656e00000000000000000000000000000000000000006020830152604082019050919050565b60006149f16038836157a6565b91507f4552433732313a20617070726f76652063616c6c6572206973206e6f74206f7760008301527f6e6572206e6f7220617070726f76656420666f7220616c6c00000000000000006020830152604082019050919050565b6000614a57602a836157a6565b91507f4552433732313a2062616c616e636520717565727920666f7220746865207a6560008301527f726f2061646472657373000000000000000000000000000000000000000000006020830152604082019050919050565b6000614abd6022836157a6565b91507f456e756d657261626c654d61703a20696e646578206f7574206f6620626f756e60008301527f64730000000000000000000000000000000000000000000000000000000000006020830152604082019050919050565b6000614b236020836157a6565b91507f4552433732313a206d696e7420746f20746865207a65726f20616464726573736000830152602082019050919050565b6000614b63601d836157a6565b91507f4572726f723a20494e56414c49442062757965722061646472657373200000006000830152602082019050919050565b6000614ba36021836157a6565b91507f536166654d6174683a206d756c7469706c69636174696f6e206f766572666c6f60008301527f77000000000000000000000000000000000000000000000000000000000000006020830152604082019050919050565b6000614c09602c836157a6565b91507f4552433732313a20617070726f76656420717565727920666f72206e6f6e657860008301527f697374656e7420746f6b656e00000000000000000000000000000000000000006020830152604082019050919050565b6000614c6f602c836157a6565b91507f4552433732314d657461646174613a2055524920736574206f66206e6f6e657860008301527f697374656e7420746f6b656e00000000000000000000000000000000000000006020830152604082019050919050565b6000614cd56029836157a6565b91507f4552433732313a207472616e73666572206f6620746f6b656e2074686174206960008301527f73206e6f74206f776e00000000000000000000000000000000000000000000006020830152604082019050919050565b6000614d3b601d836157a6565b91507f4572726f723a204574686572287329206e6f742070726f7669646564200000006000830152602082019050919050565b6000614d7b602f836157a6565b91507f4552433732314d657461646174613a2055524920717565727920666f72206e6f60008301527f6e6578697374656e7420746f6b656e00000000000000000000000000000000006020830152604082019050919050565b6000614de16021836157a6565b91507f4552433732313a20617070726f76616c20746f2063757272656e74206f776e6560008301527f72000000000000000000000000000000000000000000000000000000000000006020830152604082019050919050565b6000614e47601f836157a6565b91507f4572726f723a546869732050726f7065727479206e6f74206f6e2053616c65006000830152602082019050919050565b6000614e876031836157a6565b91507f4552433732313a207472616e736665722063616c6c6572206973206e6f74206f60008301527f776e6572206e6f7220617070726f7665640000000000000000000000000000006020830152604082019050919050565b6000614eed601d836157a6565b91507f416464726573733a2063616c6c20746f206e6f6e2d636f6e74726163740000006000830152602082019050919050565b60c082016000820151614f366000850182614f9b565b506020820151614f4960208501826143e1565b506040820151614f5c6040850182614f9b565b506060820151614f6f60608501826144e5565b506080820151614f826080850182614f9b565b5060a0820151614f9560a085018261445d565b50505050565b614fa481615851565b82525050565b614fb381615851565b82525050565b6000614fc582846144b4565b915081905092915050565b6000614fdc82856145a6565b9150614fe8828461453c565b91508190509392505050565b600060208201905061500960008301846143f0565b92915050565b600060808201905061502460008301876143d2565b61503160208301866143f0565b61503e6040830185614faa565b8181036060830152615050818461447b565b905095945050505050565b600061014082019050615071600083018d6143c3565b61507e602083018c614faa565b8181036040830152615090818b614503565b905081810360608301526150a4818a614503565b90506150b36080830189614faa565b81810360a08301526150c58188614503565b905081810360c08301526150d98187614503565b90506150e860e0830186614faa565b8181036101008301526150fb8185614503565b905061510b61012083018461446c565b9b9a5050505050505050505050565b600060c08201905061512f60008301896143f0565b61513c60208301886143c3565b6151496040830187614faa565b6151566060830186614faa565b615163608083018561446c565b61517060a083018461446c565b979650505050505050565b600061014082019050615191600083018d6143f0565b61519e602083018c614faa565b81810360408301526151b0818b61456d565b905081810360608301526151c4818a61456d565b90506151d36080830189614faa565b81810360a08301526151e5818861456d565b905081810360c08301526151f9818761456d565b905061520860e0830186614faa565b81810361010083015261521b818561456d565b905061522b61012083018461446c565b9b9a5050505050505050505050565b6000602082019050818103600083015261525481846143ff565b905092915050565b6000602082019050615271600083018461446c565b92915050565b600060208201905081810360008301526152918184614503565b905092915050565b600060208201905081810360008301526152b281614634565b9050919050565b600060208201905081810360008301526152d28161469a565b9050919050565b600060208201905081810360008301526152f281614700565b9050919050565b6000602082019050818103600083015261531281614740565b9050919050565b60006020820190508181036000830152615332816147a6565b9050919050565b600060208201905081810360008301526153528161480c565b9050919050565b6000602082019050818103600083015261537281614872565b9050919050565b60006020820190508181036000830152615392816148b2565b9050919050565b600060208201905081810360008301526153b281614918565b9050919050565b600060208201905081810360008301526153d28161497e565b9050919050565b600060208201905081810360008301526153f2816149e4565b9050919050565b6000602082019050818103600083015261541281614a4a565b9050919050565b6000602082019050818103600083015261543281614ab0565b9050919050565b6000602082019050818103600083015261545281614b16565b9050919050565b6000602082019050818103600083015261547281614b56565b9050919050565b6000602082019050818103600083015261549281614b96565b9050919050565b600060208201905081810360008301526154b281614bfc565b9050919050565b600060208201905081810360008301526154d281614c62565b9050919050565b600060208201905081810360008301526154f281614cc8565b9050919050565b6000602082019050818103600083015261551281614d2e565b9050919050565b6000602082019050818103600083015261553281614d6e565b9050919050565b6000602082019050818103600083015261555281614dd4565b9050919050565b6000602082019050818103600083015261557281614e3a565b9050919050565b6000602082019050818103600083015261559281614e7a565b9050919050565b600060208201905081810360008301526155b281614ee0565b9050919050565b60006020820190506155ce6000830184614faa565b92915050565b600060c0820190506155e96000830189614faa565b6155f660208301886143c3565b6156036040830187614faa565b61561060608301866144f4565b61561d6080830185614faa565b61562a60a083018461446c565b979650505050505050565b600060c08201905061564a6000830189614faa565b61565760208301886143f0565b6156646040830187614faa565b61567160608301866144f4565b61567e6080830185614faa565b61568b60a083018461446c565b979650505050505050565b6000604051905081810181811067ffffffffffffffff821117156156b957600080fd5b8060405250919050565b600067ffffffffffffffff8211156156da57600080fd5b601f19601f8301169050602081019050919050565b600067ffffffffffffffff82111561570657600080fd5b601f19601f8301169050602081019050919050565b6000819050602082019050919050565b60008190508160005260206000209050919050565b600081519050919050565b600081519050919050565b600081519050919050565b600081519050919050565b6000602082019050919050565b600082825260208201905092915050565b600082825260208201905092915050565b600081905092915050565b600082825260208201905092915050565b600081905092915050565b60006157cd82615831565b9050919050565b60006157df82615831565b9050919050565b60008115159050919050565b60007fffffffff0000000000000000000000000000000000000000000000000000000082169050919050565b600081905061582c826158f6565b919050565b600073ffffffffffffffffffffffffffffffffffffffff82169050919050565b6000819050919050565b60006158668261587f565b9050919050565b60006158788261581e565b9050919050565b600061588a82615891565b9050919050565b600061589c82615831565b9050919050565b82818337600083830152505050565b60005b838110156158d05780820151818401526020810190506158b5565b838111156158df576000848401525b50505050565b6000601f19601f8301169050919050565b6003811061590057fe5b50565b61590c816157c2565b811461591757600080fd5b50565b615923816157e6565b811461592e57600080fd5b50565b61593a816157f2565b811461594557600080fd5b50565b61595181615851565b811461595c57600080fd5b5056fe4552433732313a207472616e7366657220746f206e6f6e20455243373231526563656976657220696d706c656d656e7465724552433732313a206f776e657220717565727920666f72206e6f6e6578697374656e7420746f6b656ea26469706673582212205b46ba91db16afb6cc2b48a84cf624d4a06eac53143f03d37847be4699de74a564736f6c63430006020033",
  "source": "pragma solidity ^0.6.0;\r\npragma experimental ABIEncoderV2;\r\n\r\nimport \"@openzeppelin/contracts/token/ERC721/ERC721.sol\";\r\n\r\ncontract SmartEstate is ERC721 {\r\n   uint256 private buyerId;\r\n    uint256 private tokenId;\r\n   // uint256 public sellerAddress;\r\n    //event Transfer(address BuyerAddress,address OwnerAddress,address Value);\r\n    event TransferList(address BuyerAddress,address OwnerAddress,uint256 PropertyId_TokenId,uint256 Value,bool saleStatus,bool WinStatus);\r\n    event property_Pricing(uint256);\r\n    enum offerApproval {pending, approved, rejected}\r\n    event saleStatus(bool);\r\n\r\n    struct PropertyDetails {\r\n        address sellerAddress;\r\n        uint256 propertyId;\r\n        string propertyAddress;\r\n        string city;\r\n        uint256 room;\r\n        string area;\r\n        string propertyType;\r\n        uint256 price;\r\n        string image;\r\n        bool saleStatus;\r\n    }\r\n    \r\n    event property_detail(address useraddress,\r\n        uint256 propertyId ,\r\n        string propertyAddress,\r\n        string city,\r\n        uint256 room,\r\n        string area,\r\n        string propertyType,\r\n        uint256 price,\r\n        string image,\r\n        bool saleStatus);\r\n\r\n    struct BuyerInfo {\r\n        uint256 bId;\r\n        address buyerAddress;\r\n        uint256 buyerOffer;\r\n        offerApproval request;\r\n        uint256 ApplyForToken;\r\n        bool WinStatus;\r\n    }\r\n    event buyer_Info(uint256 buyerId,address buyerAddress,uint256 buyerOffer,offerApproval request,uint256 PropertyId_TokenId,bool WinStatus);\r\n    \r\n    modifier propertyOwner() {\r\n        require(\r\n            OnlyOwner[msg.sender].sellerAddress == msg.sender,\r\n            \"Error: Only Property Owner run this\"\r\n        );\r\n        _;\r\n    }\r\n\r\n    mapping(address => PropertyDetails) public OnlyOwner;\r\n    mapping(uint256 => address) public PropertyList;\r\n    mapping(address => BuyerInfo) public BuyerList;\r\n    mapping(uint256 => BuyerInfo[]) public AllBuyers;\r\n    mapping(uint256 => bool) public Offers;\r\n\r\n    constructor() public ERC721(\"Smart Estate Properties\", \"ESP\") {}\r\n\r\n    function RegisterProperty(\r\n        string memory _propertyAddress,\r\n        string memory _city,\r\n        uint256 _room,\r\n        string memory _area,\r\n        uint256 _priceInEther,\r\n        string memory _propertyType,\r\n        string memory _image,\r\n        bool _saleStatus,\r\n        string memory _tokenUri\r\n    ) public returns (bool) {\r\n        tokenId++;\r\n        uint256 thisId = tokenId;\r\n        _mint(msg.sender, thisId);\r\n        _setTokenURI(thisId, _tokenUri);\r\n\r\n        PropertyDetails memory tempDetails;\r\n\r\n        tempDetails = PropertyDetails({\r\n            sellerAddress: msg.sender,\r\n            propertyId: thisId,\r\n            propertyAddress: _propertyAddress,\r\n            city: _city,\r\n            room: _room,\r\n            area: _area,\r\n            propertyType: _propertyType,\r\n            price: _priceInEther,\r\n            image: _image,\r\n            saleStatus: _saleStatus\r\n        });\r\n        OnlyOwner[msg.sender] = tempDetails;\r\n        PropertyList[thisId] = msg.sender;\r\n        emit property_detail( msg.sender, thisId, _propertyAddress, _city,_room, _area, _propertyType, _priceInEther, _image,false);\r\n        return true;\r\n    }\r\n\r\n    function EnablePropertySale(uint256 PropertyId_TokenId)\r\n        public\r\n        propertyOwner\r\n        returns (bool)\r\n    {\r\n        require(\r\n            _exists(PropertyId_TokenId),\r\n            \"Error: INVALID Property id or token id\"\r\n        );\r\n        OnlyOwner[PropertyList[PropertyId_TokenId]].saleStatus = true;\r\n        emit saleStatus(true);\r\n        return true;\r\n    }\r\n\r\n    function PropertyPricing(uint256 PropertyId_TokenId)view\r\n        public\r\n        propertyOwner\r\n        returns (uint256)\r\n    {\r\n        require(\r\n            _exists(PropertyId_TokenId),\r\n            \"Error: INVALID Property id or token id\"\r\n        );\r\n          \r\n        return OnlyOwner[PropertyList[PropertyId_TokenId]].price;\r\n    }\r\n\r\n    function BuyingRequest(uint256 PropertyId_TokenId, uint256 offerInEthers)\r\n        public\r\n        returns (bool)\r\n    {\r\n        require(\r\n            _exists(PropertyId_TokenId),\r\n            \"Error: INVALID Property id or token id\"\r\n        );\r\n        require(\r\n            OnlyOwner[PropertyList[PropertyId_TokenId]].saleStatus,\r\n            \"Error:This Property not on Sale\"\r\n        );\r\n\r\n        buyerId++;\r\n\r\n        BuyerInfo memory tempDetails;\r\n        tempDetails = BuyerInfo({\r\n            bId: buyerId,\r\n            buyerAddress: msg.sender,\r\n            buyerOffer: offerInEthers,\r\n            request: offerApproval.pending,\r\n            ApplyForToken: PropertyId_TokenId,\r\n            WinStatus: false\r\n        });\r\n        AllBuyers[PropertyId_TokenId].push(tempDetails);\r\n        BuyerList[msg.sender] = tempDetails;\r\n        BuyerList[msg.sender].request = offerApproval.pending;\r\n        emit buyer_Info(buyerId, msg.sender,offerInEthers,offerApproval.pending,PropertyId_TokenId,false);\r\n        return true;\r\n    }\r\n\r\n    function OfferStatus(uint256 PropertyId_TokenId)\r\n        public\r\n        propertyOwner\r\n        returns (BuyerInfo[] memory)\r\n    {\r\n        require(\r\n            _exists(PropertyId_TokenId),\r\n            \"Error: INVALID Property id or token id\"\r\n        );\r\n        BuyerInfo[] memory tempDetails;\r\n        tempDetails = AllBuyers[PropertyId_TokenId];\r\n        return tempDetails;\r\n    }\r\n\r\n    function OfferReject(uint256 PropertyId_TokenId, address _buyerAddress)\r\n        public\r\n        propertyOwner\r\n        returns (bool)\r\n    {\r\n        require(\r\n            _exists(PropertyId_TokenId),\r\n            \"Error: INVALID Property id or token id\"\r\n        );\r\n        require(\r\n            BuyerList[_buyerAddress].buyerAddress == _buyerAddress,\r\n            \"Error: INVALID buyer address \"\r\n        );\r\n        BuyerList[_buyerAddress].request = offerApproval.rejected;\r\n        return true;\r\n    }\r\n\r\n    function OfferAccept(uint256 PropertyId_TokenId, address _buyerAddress)\r\n        public\r\n        propertyOwner\r\n        returns (bool)\r\n    {\r\n        require(\r\n            _exists(PropertyId_TokenId),\r\n            \"Error: INVALID Property id or token id\"\r\n        );\r\n        require(\r\n            BuyerList[_buyerAddress].buyerAddress == _buyerAddress,\r\n            \"Error: INVALID buyer address \"\r\n        );\r\n        BuyerList[_buyerAddress].request = offerApproval.approved;\r\n        return true;\r\n    }\r\n\r\n    function BuyProperty(uint256 PropertyId_TokenId)\r\n        public\r\n        payable\r\n        returns (bool)\r\n    {\r\n        require(\r\n            _exists(PropertyId_TokenId),\r\n            \"Error: INVALID Property id or token id\"\r\n        );\r\n        require(\r\n            BuyerList[msg.sender].buyerAddress == msg.sender,\r\n            \"Error: INVALID buyer address \"\r\n        );\r\n        require(\r\n            BuyerList[msg.sender].request == offerApproval.approved,\r\n            \"Error: This Property not for sale (Offer request not approved)\"\r\n        );\r\n        require(msg.value > 0, \"Error: Ether(s) not provided \");\r\n        uint256 PropertyPrice = BuyerList[msg.sender].buyerOffer.mul(\r\n            1 * 10**18\r\n        );\r\n        require(\r\n            PropertyPrice == msg.value,\r\n            \"Error: Sorry, Pricing of property not matched with offer\"\r\n        );\r\n        address BuyerAddress = OnlyOwner[PropertyList[PropertyId_TokenId]]\r\n            .sellerAddress;\r\n        // _transfer(BuyerAddress, msg.sender, PropertyId_TokenId);\r\n        // emit Transfer(BuyerAddress, msg.sender, PropertyId_TokenId);\r\n        OnlyOwner[PropertyList[PropertyId_TokenId]].saleStatus = false;\r\n         BuyerList[BuyerAddress].WinStatus = true;\r\n        emit TransferList(BuyerAddress, msg.sender, PropertyId_TokenId,PropertyPrice,false,BuyerList[BuyerAddress].WinStatus);\r\n        return true;\r\n        \r\n    }\r\n}\r\n",
  "sourcePath": "H:/Local D/SmartEstate_OwnershipTransfer/src/contracts/SmartEstate.sol",
  "compiler": {
    "name": "solc",
    "version": "0.6.2+commit.bacdbe57.Emscripten.clang"
  },
  "schemaVersion": "3.3.2",
  "updatedAt": "2021-01-13T09:56:22.658Z",
  "networkType": "ethereum",
  "devdoc": {
    "methods": {
      "approve(address,uint256)": {
        "details": "See {IERC721-approve}."
      },
      "balanceOf(address)": {
        "details": "See {IERC721-balanceOf}."
      },
      "baseURI()": {
        "details": "Returns the base URI set via {_setBaseURI}. This will be automatically added as a prefix in {tokenURI} to each token's URI, or to the token ID if no specific URI is set for that token ID."
      },
      "getApproved(uint256)": {
        "details": "See {IERC721-getApproved}."
      },
      "isApprovedForAll(address,address)": {
        "details": "See {IERC721-isApprovedForAll}."
      },
      "name()": {
        "details": "See {IERC721Metadata-name}."
      },
      "ownerOf(uint256)": {
        "details": "See {IERC721-ownerOf}."
      },
      "safeTransferFrom(address,address,uint256)": {
        "details": "See {IERC721-safeTransferFrom}."
      },
      "safeTransferFrom(address,address,uint256,bytes)": {
        "details": "See {IERC721-safeTransferFrom}."
      },
      "setApprovalForAll(address,bool)": {
        "details": "See {IERC721-setApprovalForAll}."
      },
      "supportsInterface(bytes4)": {
        "details": "See {IERC165-supportsInterface}.     * Time complexity O(1), guaranteed to always use less than 30 000 gas."
      },
      "symbol()": {
        "details": "See {IERC721Metadata-symbol}."
      },
      "tokenByIndex(uint256)": {
        "details": "See {IERC721Enumerable-tokenByIndex}."
      },
      "tokenOfOwnerByIndex(address,uint256)": {
        "details": "See {IERC721Enumerable-tokenOfOwnerByIndex}."
      },
      "tokenURI(uint256)": {
        "details": "See {IERC721Metadata-tokenURI}."
      },
      "totalSupply()": {
        "details": "See {IERC721Enumerable-totalSupply}."
      },
      "transferFrom(address,address,uint256)": {
        "details": "See {IERC721-transferFrom}."
      }
    }
  },
  "userdoc": {
    "methods": {}
  }
}