{
  "contractName": "SmartEstate",
  "abi": [
    {
      "inputs": [],
      "stateMutability": "nonpayable",
      "type": "constructor"
    },
    {
      "anonymous": false,
      "inputs": [
        {
          "indexed": true,
          "internalType": "address",
          "name": "owner",
          "type": "address"
        },
        {
          "indexed": true,
          "internalType": "address",
          "name": "approved",
          "type": "address"
        },
        {
          "indexed": true,
          "internalType": "uint256",
          "name": "tokenId",
          "type": "uint256"
        }
      ],
      "name": "Approval",
      "type": "event"
    },
    {
      "anonymous": false,
      "inputs": [
        {
          "indexed": true,
          "internalType": "address",
          "name": "owner",
          "type": "address"
        },
        {
          "indexed": true,
          "internalType": "address",
          "name": "operator",
          "type": "address"
        },
        {
          "indexed": false,
          "internalType": "bool",
          "name": "approved",
          "type": "bool"
        }
      ],
      "name": "ApprovalForAll",
      "type": "event"
    },
    {
      "anonymous": false,
      "inputs": [
        {
          "indexed": true,
          "internalType": "address",
          "name": "from",
          "type": "address"
        },
        {
          "indexed": true,
          "internalType": "address",
          "name": "to",
          "type": "address"
        },
        {
          "indexed": true,
          "internalType": "uint256",
          "name": "tokenId",
          "type": "uint256"
        }
      ],
      "name": "Transfer",
      "type": "event"
    },
    {
      "anonymous": false,
      "inputs": [
        {
          "indexed": false,
          "internalType": "uint256",
          "name": "buyerId",
          "type": "uint256"
        },
        {
          "indexed": false,
          "internalType": "address",
          "name": "buyerAddress",
          "type": "address"
        },
        {
          "indexed": false,
          "internalType": "uint256",
          "name": "buyerOffer",
          "type": "uint256"
        },
        {
          "indexed": false,
          "internalType": "enum SmartEstate.offerApproval",
          "name": "request",
          "type": "uint8"
        },
        {
          "indexed": false,
          "internalType": "uint256",
          "name": "PropertyId_TokenId",
          "type": "uint256"
        }
      ],
      "name": "buyer_Info",
      "type": "event"
    },
    {
      "anonymous": false,
      "inputs": [
        {
          "indexed": false,
          "internalType": "address",
          "name": "useraddress",
          "type": "address"
        },
        {
          "indexed": false,
          "internalType": "uint256",
          "name": "propertyId",
          "type": "uint256"
        },
        {
          "indexed": false,
          "internalType": "string",
          "name": "propertyAddress",
          "type": "string"
        },
        {
          "indexed": false,
          "internalType": "string",
          "name": "city",
          "type": "string"
        },
        {
          "indexed": false,
          "internalType": "uint256",
          "name": "room",
          "type": "uint256"
        },
        {
          "indexed": false,
          "internalType": "string",
          "name": "area",
          "type": "string"
        },
        {
          "indexed": false,
          "internalType": "string",
          "name": "propertyType",
          "type": "string"
        },
        {
          "indexed": false,
          "internalType": "uint256",
          "name": "price",
          "type": "uint256"
        },
        {
          "indexed": false,
          "internalType": "string",
          "name": "image",
          "type": "string"
        },
        {
          "indexed": false,
          "internalType": "bool",
          "name": "saleStatus",
          "type": "bool"
        }
      ],
      "name": "property_detail",
      "type": "event"
    },
    {
      "anonymous": false,
      "inputs": [
        {
          "indexed": false,
          "internalType": "bool",
          "name": "",
          "type": "bool"
        }
      ],
      "name": "saleStatus",
      "type": "event"
    },
    {
      "inputs": [
        {
          "internalType": "uint256",
          "name": "",
          "type": "uint256"
        },
        {
          "internalType": "uint256",
          "name": "",
          "type": "uint256"
        }
      ],
      "name": "AllBuyers",
      "outputs": [
        {
          "internalType": "uint256",
          "name": "bId",
          "type": "uint256"
        },
        {
          "internalType": "address",
          "name": "buyerAddress",
          "type": "address"
        },
        {
          "internalType": "uint256",
          "name": "buyerOffer",
          "type": "uint256"
        },
        {
          "internalType": "enum SmartEstate.offerApproval",
          "name": "request",
          "type": "uint8"
        },
        {
          "internalType": "uint256",
          "name": "ApplyForToken",
          "type": "uint256"
        }
      ],
      "stateMutability": "view",
      "type": "function",
      "constant": true
    },
    {
      "inputs": [
        {
          "internalType": "uint256",
          "name": "",
          "type": "uint256"
        }
      ],
      "name": "AllPropertyList",
      "outputs": [
        {
          "internalType": "address payable",
          "name": "sellerAddress",
          "type": "address"
        },
        {
          "internalType": "uint256",
          "name": "propertyId",
          "type": "uint256"
        },
        {
          "internalType": "string",
          "name": "propertyAddress",
          "type": "string"
        },
        {
          "internalType": "string",
          "name": "city",
          "type": "string"
        },
        {
          "internalType": "uint256",
          "name": "room",
          "type": "uint256"
        },
        {
          "internalType": "string",
          "name": "area",
          "type": "string"
        },
        {
          "internalType": "string",
          "name": "propertyType",
          "type": "string"
        },
        {
          "internalType": "uint256",
          "name": "price",
          "type": "uint256"
        },
        {
          "internalType": "string",
          "name": "image",
          "type": "string"
        },
        {
          "internalType": "bool",
          "name": "saleStatus",
          "type": "bool"
        }
      ],
      "stateMutability": "view",
      "type": "function",
      "constant": true
    },
    {
      "inputs": [
        {
          "internalType": "uint256",
          "name": "",
          "type": "uint256"
        }
      ],
      "name": "Offers",
      "outputs": [
        {
          "internalType": "bool",
          "name": "",
          "type": "bool"
        }
      ],
      "stateMutability": "view",
      "type": "function",
      "constant": true
    },
    {
      "inputs": [
        {
          "internalType": "address",
          "name": "",
          "type": "address"
        }
      ],
      "name": "OnlyOwner",
      "outputs": [
        {
          "internalType": "address payable",
          "name": "sellerAddress",
          "type": "address"
        },
        {
          "internalType": "uint256",
          "name": "propertyId",
          "type": "uint256"
        },
        {
          "internalType": "string",
          "name": "propertyAddress",
          "type": "string"
        },
        {
          "internalType": "string",
          "name": "city",
          "type": "string"
        },
        {
          "internalType": "uint256",
          "name": "room",
          "type": "uint256"
        },
        {
          "internalType": "string",
          "name": "area",
          "type": "string"
        },
        {
          "internalType": "string",
          "name": "propertyType",
          "type": "string"
        },
        {
          "internalType": "uint256",
          "name": "price",
          "type": "uint256"
        },
        {
          "internalType": "string",
          "name": "image",
          "type": "string"
        },
        {
          "internalType": "bool",
          "name": "saleStatus",
          "type": "bool"
        }
      ],
      "stateMutability": "view",
      "type": "function",
      "constant": true
    },
    {
      "inputs": [
        {
          "internalType": "uint256",
          "name": "",
          "type": "uint256"
        },
        {
          "internalType": "address",
          "name": "",
          "type": "address"
        }
      ],
      "name": "PropertyBuyerList",
      "outputs": [
        {
          "internalType": "uint256",
          "name": "bId",
          "type": "uint256"
        },
        {
          "internalType": "address",
          "name": "buyerAddress",
          "type": "address"
        },
        {
          "internalType": "uint256",
          "name": "buyerOffer",
          "type": "uint256"
        },
        {
          "internalType": "enum SmartEstate.offerApproval",
          "name": "request",
          "type": "uint8"
        },
        {
          "internalType": "uint256",
          "name": "ApplyForToken",
          "type": "uint256"
        }
      ],
      "stateMutability": "view",
      "type": "function",
      "constant": true
    },
    {
      "inputs": [
        {
          "internalType": "uint256",
          "name": "",
          "type": "uint256"
        }
      ],
      "name": "PropertyList",
      "outputs": [
        {
          "internalType": "address",
          "name": "",
          "type": "address"
        }
      ],
      "stateMutability": "view",
      "type": "function",
      "constant": true
    },
    {
      "inputs": [
        {
          "internalType": "address",
          "name": "to",
          "type": "address"
        },
        {
          "internalType": "uint256",
          "name": "tokenId",
          "type": "uint256"
        }
      ],
      "name": "approve",
      "outputs": [],
      "stateMutability": "nonpayable",
      "type": "function"
    },
    {
      "inputs": [
        {
          "internalType": "address",
          "name": "owner",
          "type": "address"
        }
      ],
      "name": "balanceOf",
      "outputs": [
        {
          "internalType": "uint256",
          "name": "",
          "type": "uint256"
        }
      ],
      "stateMutability": "view",
      "type": "function",
      "constant": true
    },
    {
      "inputs": [],
      "name": "baseURI",
      "outputs": [
        {
          "internalType": "string",
          "name": "",
          "type": "string"
        }
      ],
      "stateMutability": "view",
      "type": "function",
      "constant": true
    },
    {
      "inputs": [
        {
          "internalType": "uint256",
          "name": "tokenId",
          "type": "uint256"
        }
      ],
      "name": "getApproved",
      "outputs": [
        {
          "internalType": "address",
          "name": "",
          "type": "address"
        }
      ],
      "stateMutability": "view",
      "type": "function",
      "constant": true
    },
    {
      "inputs": [
        {
          "internalType": "address",
          "name": "owner",
          "type": "address"
        },
        {
          "internalType": "address",
          "name": "operator",
          "type": "address"
        }
      ],
      "name": "isApprovedForAll",
      "outputs": [
        {
          "internalType": "bool",
          "name": "",
          "type": "bool"
        }
      ],
      "stateMutability": "view",
      "type": "function",
      "constant": true
    },
    {
      "inputs": [],
      "name": "name",
      "outputs": [
        {
          "internalType": "string",
          "name": "",
          "type": "string"
        }
      ],
      "stateMutability": "view",
      "type": "function",
      "constant": true
    },
    {
      "inputs": [
        {
          "internalType": "uint256",
          "name": "tokenId",
          "type": "uint256"
        }
      ],
      "name": "ownerOf",
      "outputs": [
        {
          "internalType": "address",
          "name": "",
          "type": "address"
        }
      ],
      "stateMutability": "view",
      "type": "function",
      "constant": true
    },
    {
      "inputs": [
        {
          "internalType": "address",
          "name": "from",
          "type": "address"
        },
        {
          "internalType": "address",
          "name": "to",
          "type": "address"
        },
        {
          "internalType": "uint256",
          "name": "tokenId",
          "type": "uint256"
        }
      ],
      "name": "safeTransferFrom",
      "outputs": [],
      "stateMutability": "nonpayable",
      "type": "function"
    },
    {
      "inputs": [
        {
          "internalType": "address",
          "name": "from",
          "type": "address"
        },
        {
          "internalType": "address",
          "name": "to",
          "type": "address"
        },
        {
          "internalType": "uint256",
          "name": "tokenId",
          "type": "uint256"
        },
        {
          "internalType": "bytes",
          "name": "_data",
          "type": "bytes"
        }
      ],
      "name": "safeTransferFrom",
      "outputs": [],
      "stateMutability": "nonpayable",
      "type": "function"
    },
    {
      "inputs": [
        {
          "internalType": "address",
          "name": "operator",
          "type": "address"
        },
        {
          "internalType": "bool",
          "name": "approved",
          "type": "bool"
        }
      ],
      "name": "setApprovalForAll",
      "outputs": [],
      "stateMutability": "nonpayable",
      "type": "function"
    },
    {
      "inputs": [
        {
          "internalType": "bytes4",
          "name": "interfaceId",
          "type": "bytes4"
        }
      ],
      "name": "supportsInterface",
      "outputs": [
        {
          "internalType": "bool",
          "name": "",
          "type": "bool"
        }
      ],
      "stateMutability": "view",
      "type": "function",
      "constant": true
    },
    {
      "inputs": [],
      "name": "symbol",
      "outputs": [
        {
          "internalType": "string",
          "name": "",
          "type": "string"
        }
      ],
      "stateMutability": "view",
      "type": "function",
      "constant": true
    },
    {
      "inputs": [
        {
          "internalType": "uint256",
          "name": "index",
          "type": "uint256"
        }
      ],
      "name": "tokenByIndex",
      "outputs": [
        {
          "internalType": "uint256",
          "name": "",
          "type": "uint256"
        }
      ],
      "stateMutability": "view",
      "type": "function",
      "constant": true
    },
    {
      "inputs": [],
      "name": "tokenId",
      "outputs": [
        {
          "internalType": "uint256",
          "name": "",
          "type": "uint256"
        }
      ],
      "stateMutability": "view",
      "type": "function",
      "constant": true
    },
    {
      "inputs": [
        {
          "internalType": "address",
          "name": "owner",
          "type": "address"
        },
        {
          "internalType": "uint256",
          "name": "index",
          "type": "uint256"
        }
      ],
      "name": "tokenOfOwnerByIndex",
      "outputs": [
        {
          "internalType": "uint256",
          "name": "",
          "type": "uint256"
        }
      ],
      "stateMutability": "view",
      "type": "function",
      "constant": true
    },
    {
      "inputs": [
        {
          "internalType": "uint256",
          "name": "tokenId",
          "type": "uint256"
        }
      ],
      "name": "tokenURI",
      "outputs": [
        {
          "internalType": "string",
          "name": "",
          "type": "string"
        }
      ],
      "stateMutability": "view",
      "type": "function",
      "constant": true
    },
    {
      "inputs": [],
      "name": "totalSupply",
      "outputs": [
        {
          "internalType": "uint256",
          "name": "",
          "type": "uint256"
        }
      ],
      "stateMutability": "view",
      "type": "function",
      "constant": true
    },
    {
      "inputs": [
        {
          "internalType": "address",
          "name": "from",
          "type": "address"
        },
        {
          "internalType": "address",
          "name": "to",
          "type": "address"
        },
        {
          "internalType": "uint256",
          "name": "tokenId",
          "type": "uint256"
        }
      ],
      "name": "transferFrom",
      "outputs": [],
      "stateMutability": "nonpayable",
      "type": "function"
    },
    {
      "inputs": [
        {
          "internalType": "string",
          "name": "_propertyAddress",
          "type": "string"
        },
        {
          "internalType": "string",
          "name": "_city",
          "type": "string"
        },
        {
          "internalType": "uint256",
          "name": "_room",
          "type": "uint256"
        },
        {
          "internalType": "string",
          "name": "_area",
          "type": "string"
        },
        {
          "internalType": "uint256",
          "name": "_priceInEther",
          "type": "uint256"
        },
        {
          "internalType": "string",
          "name": "_propertyType",
          "type": "string"
        },
        {
          "internalType": "string",
          "name": "_image",
          "type": "string"
        },
        {
          "internalType": "bool",
          "name": "_saleStatus",
          "type": "bool"
        },
        {
          "internalType": "string",
          "name": "_tokenUri",
          "type": "string"
        }
      ],
      "name": "RegisterProperty",
      "outputs": [
        {
          "internalType": "bool",
          "name": "",
          "type": "bool"
        }
      ],
      "stateMutability": "nonpayable",
      "type": "function"
    },
    {
      "inputs": [
        {
          "internalType": "uint256",
          "name": "PropertyId_TokenId",
          "type": "uint256"
        }
      ],
      "name": "EnablePropertySale",
      "outputs": [
        {
          "internalType": "bool",
          "name": "",
          "type": "bool"
        }
      ],
      "stateMutability": "nonpayable",
      "type": "function"
    },
    {
      "inputs": [
        {
          "internalType": "uint256",
          "name": "PropertyId_TokenId",
          "type": "uint256"
        }
      ],
      "name": "PropertyPricing",
      "outputs": [
        {
          "internalType": "uint256",
          "name": "",
          "type": "uint256"
        }
      ],
      "stateMutability": "view",
      "type": "function",
      "constant": true
    },
    {
      "inputs": [
        {
          "internalType": "uint256",
          "name": "PropertyId_TokenId",
          "type": "uint256"
        },
        {
          "internalType": "uint256",
          "name": "offerInEthers",
          "type": "uint256"
        }
      ],
      "name": "BuyingRequest",
      "outputs": [
        {
          "internalType": "bool",
          "name": "",
          "type": "bool"
        }
      ],
      "stateMutability": "nonpayable",
      "type": "function"
    },
    {
      "inputs": [
        {
          "internalType": "uint256",
          "name": "PropertyId_TokenId",
          "type": "uint256"
        }
      ],
      "name": "OfferStatus",
      "outputs": [
        {
          "components": [
            {
              "internalType": "uint256",
              "name": "bId",
              "type": "uint256"
            },
            {
              "internalType": "address",
              "name": "buyerAddress",
              "type": "address"
            },
            {
              "internalType": "uint256",
              "name": "buyerOffer",
              "type": "uint256"
            },
            {
              "internalType": "enum SmartEstate.offerApproval",
              "name": "request",
              "type": "uint8"
            },
            {
              "internalType": "uint256",
              "name": "ApplyForToken",
              "type": "uint256"
            }
          ],
          "internalType": "struct SmartEstate.BuyerInfo[]",
          "name": "",
          "type": "tuple[]"
        }
      ],
      "stateMutability": "nonpayable",
      "type": "function"
    },
    {
      "inputs": [
        {
          "internalType": "uint256",
          "name": "PropertyId_TokenId",
          "type": "uint256"
        },
        {
          "internalType": "address",
          "name": "_buyerAddress",
          "type": "address"
        }
      ],
      "name": "OfferReject",
      "outputs": [
        {
          "internalType": "bool",
          "name": "",
          "type": "bool"
        }
      ],
      "stateMutability": "nonpayable",
      "type": "function"
    },
    {
      "inputs": [
        {
          "internalType": "uint256",
          "name": "PropertyId_TokenId",
          "type": "uint256"
        },
        {
          "internalType": "address",
          "name": "_buyerAddress",
          "type": "address"
        }
      ],
      "name": "OfferAccept",
      "outputs": [
        {
          "internalType": "bool",
          "name": "",
          "type": "bool"
        }
      ],
      "stateMutability": "nonpayable",
      "type": "function"
    },
    {
      "inputs": [
        {
          "internalType": "uint256",
          "name": "PropertyId_TokenId",
          "type": "uint256"
        }
      ],
      "name": "BuyProperty",
      "outputs": [
        {
          "internalType": "bool",
          "name": "",
          "type": "bool"
        }
      ],
      "stateMutability": "payable",
      "type": "function",
      "payable": true
    }
  ],
  "bytecode": "0x60806040523480156200001157600080fd5b506040518060400160405280601781526020017f536d617274204573746174652050726f706572746965730000000000000000008152506040518060400160405280600381526020017f4553500000000000000000000000000000000000000000000000000000000000815250620000966301ffc9a760e01b6200011860201b60201c565b8160069080519060200190620000ae929190620001f0565b508060079080519060200190620000c7929190620001f0565b50620000e06380ac58cd60e01b6200011860201b60201c565b620000f8635b5e139f60e01b6200011860201b60201c565b6200011063780e9d6360e01b6200011860201b60201c565b505062000314565b63ffffffff60e01b817bffffffffffffffffffffffffffffffffffffffffffffffffffffffff1916141562000184576040517f08c379a00000000000000000000000000000000000000000000000000000000081526004016200017b90620002e1565b60405180910390fd5b6001600080837bffffffffffffffffffffffffffffffffffffffffffffffffffffffff19167bffffffffffffffffffffffffffffffffffffffffffffffffffffffff1916815260200190815260200160002060006101000a81548160ff02191690831515021790555050565b828054600181600116156101000203166002900490600052602060002090601f016020900481019282601f106200023357805160ff191683800117855562000264565b8280016001018555821562000264579182015b828111156200026357825182559160200191906001019062000246565b5b50905062000273919062000277565b5090565b6200029c91905b80821115620002985760008160009055506001016200027e565b5090565b90565b6000620002ae601c8362000303565b91507f4552433136353a20696e76616c696420696e74657266616365206964000000006000830152602082019050919050565b60006020820190508181036000830152620002fc816200029f565b9050919050565b600082825260208201905092915050565b615e8780620003246000396000f3fe6080604052600436106101e35760003560e01c806345482f421161010257806395d89b4111610095578063c87b56dd11610064578063c87b56dd146107e3578063d7c871d414610820578063e985e9c51461085d578063eeb2fd4b1461089a576101e3565b806395d89b4114610720578063a22cb4651461074b578063a7e1478714610774578063b88d4fde146107ba576101e3565b80636352211e116100d15780636352211e1461063e5780636c0360eb1461067b57806370a08231146106a6578063822dcd4b146106e3576101e3565b806345482f421461054a5780634a1452ab146105875780634f6ccce7146105c45780635a05a50614610601576101e3565b806323b872dd1161017a57806332783c4c1161014957806332783c4c1461046657806337c5ab1a146104a35780634266fa17146104e457806342842e0e14610521576101e3565b806323b872dd1461039357806325a59600146103bc5780632f71513f146103ec5780632f745c5914610429576101e3565b80630a86c02a116101b65780630a86c02a146102b657806317d70f7c146102fc57806318160ddd14610327578063225cf72e14610352576101e3565b806301ffc9a7146101e857806306fdde0314610225578063081812fc14610250578063095ea7b31461028d575b600080fd5b3480156101f457600080fd5b5061020f600480360361020a9190810190614698565b6108d7565b60405161021c919061570f565b60405180910390f35b34801561023157600080fd5b5061023a61093e565b604051610247919061572a565b60405180910390f35b34801561025c57600080fd5b5061027760048036036102729190810190614840565b6109e0565b6040516102849190615508565b60405180910390f35b34801561029957600080fd5b506102b460048036036102af919081019061465c565b610a65565b005b3480156102c257600080fd5b506102dd60048036036102d891908101906144f1565b610b7d565b6040516102f39a9998979695949392919061562e565b60405180910390f35b34801561030857600080fd5b50610311610ef6565b60405161031e9190615a6c565b60405180910390f35b34801561033357600080fd5b5061033c610efc565b6040516103499190615a6c565b60405180910390f35b34801561035e57600080fd5b50610379600480360361037491908101906148a5565b610f0d565b60405161038a959493929190615ada565b60405180910390f35b34801561039f57600080fd5b506103ba60048036036103b59190810190614556565b610f8a565b005b6103d660048036036103d19190810190614840565b610fea565b6040516103e3919061570f565b60405180910390f35b3480156103f857600080fd5b50610413600480360361040e9190810190614869565b6114d7565b604051610420919061570f565b60405180910390f35b34801561043557600080fd5b50610450600480360361044b919081019061465c565b611751565b60405161045d9190615a6c565b60405180910390f35b34801561047257600080fd5b5061048d60048036036104889190810190614840565b6117ac565b60405161049a9190615a6c565b60405180910390f35b3480156104af57600080fd5b506104ca60048036036104c59190810190614869565b611943565b6040516104db959493929190615ada565b60405180910390f35b3480156104f057600080fd5b5061050b600480360361050691908101906146ea565b6119b3565b604051610518919061570f565b60405180910390f35b34801561052d57600080fd5b5061054860048036036105439190810190614556565b611d83565b005b34801561055657600080fd5b50610571600480360361056c91908101906148a5565b611da3565b60405161057e919061570f565b60405180910390f35b34801561059357600080fd5b506105ae60048036036105a99190810190614840565b612187565b6040516105bb9190615508565b60405180910390f35b3480156105d057600080fd5b506105eb60048036036105e69190810190614840565b6121ba565b6040516105f89190615a6c565b60405180910390f35b34801561060d57600080fd5b5061062860048036036106239190810190614840565b6121dd565b60405161063591906156ed565b60405180910390f35b34801561064a57600080fd5b5061066560048036036106609190810190614840565b61240e565b6040516106729190615508565b60405180910390f35b34801561068757600080fd5b50610690612445565b60405161069d919061572a565b60405180910390f35b3480156106b257600080fd5b506106cd60048036036106c891908101906144f1565b6124e7565b6040516106da9190615a6c565b60405180910390f35b3480156106ef57600080fd5b5061070a60048036036107059190810190614840565b6125a6565b604051610717919061570f565b60405180910390f35b34801561072c57600080fd5b5061073561278f565b604051610742919061572a565b60405180910390f35b34801561075757600080fd5b50610772600480360361076d9190810190614620565b612831565b005b34801561078057600080fd5b5061079b60048036036107969190810190614840565b6129b2565b6040516107b19a9998979695949392919061562e565b60405180910390f35b3480156107c657600080fd5b506107e160048036036107dc91908101906145a5565b612d2b565b005b3480156107ef57600080fd5b5061080a60048036036108059190810190614840565b612d8d565b604051610817919061572a565b60405180910390f35b34801561082c57600080fd5b5061084760048036036108429190810190614840565b612f18565b604051610854919061570f565b60405180910390f35b34801561086957600080fd5b50610884600480360361087f919081019061451a565b612f38565b604051610891919061570f565b60405180910390f35b3480156108a657600080fd5b506108c160048036036108bc9190810190614869565b612fcc565b6040516108ce919061570f565b60405180910390f35b6000806000837bffffffffffffffffffffffffffffffffffffffffffffffffffffffff19167bffffffffffffffffffffffffffffffffffffffffffffffffffffffff1916815260200190815260200160002060009054906101000a900460ff169050919050565b606060068054600181600116156101000203166002900480601f0160208091040260200160405190810160405280929190818152602001828054600181600116156101000203166002900480156109d65780601f106109ab576101008083540402835291602001916109d6565b820191906000526020600020905b8154815290600101906020018083116109b957829003601f168201915b5050505050905090565b60006109eb82613246565b610a2a576040517f08c379a0000000000000000000000000000000000000000000000000000000008152600401610a219061594c565b60405180910390fd5b6004600083815260200190815260200160002060009054906101000a900473ffffffffffffffffffffffffffffffffffffffff169050919050565b6000610a708261240e565b90508073ffffffffffffffffffffffffffffffffffffffff168373ffffffffffffffffffffffffffffffffffffffff161415610ae1576040517f08c379a0000000000000000000000000000000000000000000000000000000008152600401610ad8906159ec565b60405180910390fd5b8073ffffffffffffffffffffffffffffffffffffffff16610b00613263565b73ffffffffffffffffffffffffffffffffffffffff161480610b2f5750610b2e81610b29613263565b612f38565b5b610b6e576040517f08c379a0000000000000000000000000000000000000000000000000000000008152600401610b659061588c565b60405180910390fd5b610b78838361326b565b505050565b600d6020528060005260406000206000915090508060000160009054906101000a900473ffffffffffffffffffffffffffffffffffffffff1690806001015490806002018054600181600116156101000203166002900480601f016020809104026020016040519081016040528092919081815260200182805460018160011615610100020316600290048015610c555780601f10610c2a57610100808354040283529160200191610c55565b820191906000526020600020905b815481529060010190602001808311610c3857829003601f168201915b505050505090806003018054600181600116156101000203166002900480601f016020809104026020016040519081016040528092919081815260200182805460018160011615610100020316600290048015610cf35780601f10610cc857610100808354040283529160200191610cf3565b820191906000526020600020905b815481529060010190602001808311610cd657829003601f168201915b505050505090806004015490806005018054600181600116156101000203166002900480601f016020809104026020016040519081016040528092919081815260200182805460018160011615610100020316600290048015610d975780601f10610d6c57610100808354040283529160200191610d97565b820191906000526020600020905b815481529060010190602001808311610d7a57829003601f168201915b505050505090806006018054600181600116156101000203166002900480601f016020809104026020016040519081016040528092919081815260200182805460018160011615610100020316600290048015610e355780601f10610e0a57610100808354040283529160200191610e35565b820191906000526020600020905b815481529060010190602001808311610e1857829003601f168201915b505050505090806007015490806008018054600181600116156101000203166002900480601f016020809104026020016040519081016040528092919081815260200182805460018160011615610100020316600290048015610ed95780601f10610eae57610100808354040283529160200191610ed9565b820191906000526020600020905b815481529060010190602001808311610ebc57829003601f168201915b5050505050908060090160009054906101000a900460ff1690508a565b600b5481565b6000610f086002613324565b905090565b600f6020528160005260406000208181548110610f2657fe5b9060005260206000209060050201600091509150508060000154908060010160009054906101000a900473ffffffffffffffffffffffffffffffffffffffff16908060020154908060030160009054906101000a900460ff16908060040154905085565b610f9b610f95613263565b82613339565b610fda576040517f08c379a0000000000000000000000000000000000000000000000000000000008152600401610fd190615a2c565b60405180910390fd5b610fe5838383613417565b505050565b6000610ff582613246565b611034576040517f08c379a000000000000000000000000000000000000000000000000000000000815260040161102b906157ac565b60405180910390fd5b3373ffffffffffffffffffffffffffffffffffffffff166011600084815260200190815260200160002060003373ffffffffffffffffffffffffffffffffffffffff1673ffffffffffffffffffffffffffffffffffffffff16815260200190815260200160002060010160009054906101000a900473ffffffffffffffffffffffffffffffffffffffff1673ffffffffffffffffffffffffffffffffffffffff1614611115576040517f08c379a000000000000000000000000000000000000000000000000000000000815260040161110c9061590c565b60405180910390fd5b6001600281111561112257fe5b6011600084815260200190815260200160002060003373ffffffffffffffffffffffffffffffffffffffff1673ffffffffffffffffffffffffffffffffffffffff16815260200190815260200160002060030160009054906101000a900460ff16600281111561118e57fe5b146111ce576040517f08c379a00000000000000000000000000000000000000000000000000000000081526004016111c59061584c565b60405180910390fd5b60003411611211576040517f08c379a0000000000000000000000000000000000000000000000000000000008152600401611208906159ac565b60405180910390fd5b6000611281670de0b6b3a76400006011600086815260200190815260200160002060003373ffffffffffffffffffffffffffffffffffffffff1673ffffffffffffffffffffffffffffffffffffffff1681526020019081526020016000206002015461362e90919063ffffffff16565b90503481146112c5576040517f08c379a00000000000000000000000000000000000000000000000000000000081526004016112bc9061582c565b60405180910390fd5b6000600d6000600e600087815260200190815260200160002060009054906101000a900473ffffffffffffffffffffffffffffffffffffffff1673ffffffffffffffffffffffffffffffffffffffff1673ffffffffffffffffffffffffffffffffffffffff16815260200190815260200160002060000160009054906101000a900473ffffffffffffffffffffffffffffffffffffffff16905061136a813386613417565b6000600d6000600e600088815260200190815260200160002060009054906101000a900473ffffffffffffffffffffffffffffffffffffffff1673ffffffffffffffffffffffffffffffffffffffff1673ffffffffffffffffffffffffffffffffffffffff16815260200190815260200160002060000160009054906101000a900473ffffffffffffffffffffffffffffffffffffffff16905060008173ffffffffffffffffffffffffffffffffffffffff166108fc349081150290604051600060405180830381858888f1935050505090506000600d6000600e60008a815260200190815260200160002060009054906101000a900473ffffffffffffffffffffffffffffffffffffffff1673ffffffffffffffffffffffffffffffffffffffff1673ffffffffffffffffffffffffffffffffffffffff16815260200190815260200160002060090160006101000a81548160ff02191690831515021790555080945050505050919050565b60003373ffffffffffffffffffffffffffffffffffffffff16600d60003373ffffffffffffffffffffffffffffffffffffffff1673ffffffffffffffffffffffffffffffffffffffff16815260200190815260200160002060000160009054906101000a900473ffffffffffffffffffffffffffffffffffffffff1673ffffffffffffffffffffffffffffffffffffffff16146115a9576040517f08c379a00000000000000000000000000000000000000000000000000000000081526004016115a0906157cc565b60405180910390fd5b6115b283613246565b6115f1576040517f08c379a00000000000000000000000000000000000000000000000000000000081526004016115e8906157ac565b60405180910390fd5b8173ffffffffffffffffffffffffffffffffffffffff166011600085815260200190815260200160002060008473ffffffffffffffffffffffffffffffffffffffff1673ffffffffffffffffffffffffffffffffffffffff16815260200190815260200160002060010160009054906101000a900473ffffffffffffffffffffffffffffffffffffffff1673ffffffffffffffffffffffffffffffffffffffff16146116d2576040517f08c379a00000000000000000000000000000000000000000000000000000000081526004016116c99061590c565b60405180910390fd5b60016011600085815260200190815260200160002060008473ffffffffffffffffffffffffffffffffffffffff1673ffffffffffffffffffffffffffffffffffffffff16815260200190815260200160002060030160006101000a81548160ff0219169083600281111561174257fe5b02179055506001905092915050565b60006117a482600160008673ffffffffffffffffffffffffffffffffffffffff1673ffffffffffffffffffffffffffffffffffffffff16815260200190815260200160002061369e90919063ffffffff16565b905092915050565b60003373ffffffffffffffffffffffffffffffffffffffff16600d60003373ffffffffffffffffffffffffffffffffffffffff1673ffffffffffffffffffffffffffffffffffffffff16815260200190815260200160002060000160009054906101000a900473ffffffffffffffffffffffffffffffffffffffff1673ffffffffffffffffffffffffffffffffffffffff161461187e576040517f08c379a0000000000000000000000000000000000000000000000000000000008152600401611875906157cc565b60405180910390fd5b61188782613246565b6118c6576040517f08c379a00000000000000000000000000000000000000000000000000000000081526004016118bd906157ac565b60405180910390fd5b600d6000600e600085815260200190815260200160002060009054906101000a900473ffffffffffffffffffffffffffffffffffffffff1673ffffffffffffffffffffffffffffffffffffffff1673ffffffffffffffffffffffffffffffffffffffff168152602001908152602001600020600701549050919050565b6011602052816000526040600020602052806000526040600020600091509150508060000154908060010160009054906101000a900473ffffffffffffffffffffffffffffffffffffffff16908060020154908060030160009054906101000a900460ff16908060040154905085565b6000600b600081548092919060010191905055506000600b5490506119d833826136b8565b6119e28184613846565b6119ea614200565b6040518061014001604052803373ffffffffffffffffffffffffffffffffffffffff1681526020018381526020018d81526020018c81526020018b81526020018a8152602001888152602001898152602001878152602001861515815250905080600d60003373ffffffffffffffffffffffffffffffffffffffff1673ffffffffffffffffffffffffffffffffffffffff16815260200190815260200160002060008201518160000160006101000a81548173ffffffffffffffffffffffffffffffffffffffff021916908373ffffffffffffffffffffffffffffffffffffffff160217905550602082015181600101556040820151816002019080519060200190611af792919061426b565b506060820151816003019080519060200190611b1492919061426b565b506080820151816004015560a0820151816005019080519060200190611b3b92919061426b565b5060c0820151816006019080519060200190611b5892919061426b565b5060e08201518160070155610100820151816008019080519060200190611b8092919061426b565b506101208201518160090160006101000a81548160ff02191690831515021790555090505033600e600084815260200190815260200160002060006101000a81548173ffffffffffffffffffffffffffffffffffffffff021916908373ffffffffffffffffffffffffffffffffffffffff16021790555080600c600084815260200190815260200160002060008201518160000160006101000a81548173ffffffffffffffffffffffffffffffffffffffff021916908373ffffffffffffffffffffffffffffffffffffffff160217905550602082015181600101556040820151816002019080519060200190611c7892919061426b565b506060820151816003019080519060200190611c9592919061426b565b506080820151816004015560a0820151816005019080519060200190611cbc92919061426b565b5060c0820151816006019080519060200190611cd992919061426b565b5060e08201518160070155610100820151816008019080519060200190611d0192919061426b565b506101208201518160090160006101000a81548160ff0219169083151502179055509050507f5baccd78aa26fd4d554e82a7b7cd78e216126f45cd329b96affd63b68bc55a5b33838e8e8e8e8d8f8e6001604051611d689a9998979695949392919061556f565b60405180910390a16001925050509998505050505050505050565b611d9e83838360405180602001604052806000815250612d2b565b505050565b6000611dae83613246565b611ded576040517f08c379a0000000000000000000000000000000000000000000000000000000008152600401611de4906157ac565b60405180910390fd5b600d6000600e600086815260200190815260200160002060009054906101000a900473ffffffffffffffffffffffffffffffffffffffff1673ffffffffffffffffffffffffffffffffffffffff1673ffffffffffffffffffffffffffffffffffffffff16815260200190815260200160002060090160009054906101000a900460ff16611eaf576040517f08c379a0000000000000000000000000000000000000000000000000000000008152600401611ea690615a0c565b60405180910390fd5b600a60008154809291906001019190505550611ec96142eb565b6040518060a00160405280600a5481526020013373ffffffffffffffffffffffffffffffffffffffff16815260200184815260200160006002811115611f0b57fe5b8152602001858152509050600f60008581526020019081526020016000208190806001815401808255809150506001900390600052602060002090600502016000909190919091506000820151816000015560208201518160010160006101000a81548173ffffffffffffffffffffffffffffffffffffffff021916908373ffffffffffffffffffffffffffffffffffffffff1602179055506040820151816002015560608201518160030160006101000a81548160ff02191690836002811115611fd257fe5b0217905550608082015181600401555050806011600086815260200190815260200160002060003373ffffffffffffffffffffffffffffffffffffffff1673ffffffffffffffffffffffffffffffffffffffff1681526020019081526020016000206000820151816000015560208201518160010160006101000a81548173ffffffffffffffffffffffffffffffffffffffff021916908373ffffffffffffffffffffffffffffffffffffffff1602179055506040820151816002015560608201518160030160006101000a81548160ff021916908360028111156120b357fe5b02179055506080820151816004015590505060006011600086815260200190815260200160002060003373ffffffffffffffffffffffffffffffffffffffff1673ffffffffffffffffffffffffffffffffffffffff16815260200190815260200160002060030160006101000a81548160ff0219169083600281111561213557fe5b02179055507f5e32f8ede2b15e4764db8fa23372e645976247f93e7daeec1ed11cb061909947600a543385600088604051612174959493929190615a87565b60405180910390a1600191505092915050565b600e6020528060005260406000206000915054906101000a900473ffffffffffffffffffffffffffffffffffffffff1681565b6000806121d18360026138ba90919063ffffffff16565b50905080915050919050565b60603373ffffffffffffffffffffffffffffffffffffffff16600d60003373ffffffffffffffffffffffffffffffffffffffff1673ffffffffffffffffffffffffffffffffffffffff16815260200190815260200160002060000160009054906101000a900473ffffffffffffffffffffffffffffffffffffffff1673ffffffffffffffffffffffffffffffffffffffff16146122af576040517f08c379a00000000000000000000000000000000000000000000000000000000081526004016122a6906157cc565b60405180910390fd5b6122b882613246565b6122f7576040517f08c379a00000000000000000000000000000000000000000000000000000000081526004016122ee906157ac565b60405180910390fd5b6060600f6000848152602001908152602001600020805480602002602001604051908101604052809291908181526020016000905b828210156123ff57838290600052602060002090600502016040518060a0016040529081600082015481526020016001820160009054906101000a900473ffffffffffffffffffffffffffffffffffffffff1673ffffffffffffffffffffffffffffffffffffffff1673ffffffffffffffffffffffffffffffffffffffff168152602001600282015481526020016003820160009054906101000a900460ff1660028111156123d757fe5b60028111156123e257fe5b81526020016004820154815250508152602001906001019061232c565b50505050905080915050919050565b600061243e82604051806060016040528060298152602001615e296029913960026138e99092919063ffffffff16565b9050919050565b606060098054600181600116156101000203166002900480601f0160208091040260200160405190810160405280929190818152602001828054600181600116156101000203166002900480156124dd5780601f106124b2576101008083540402835291602001916124dd565b820191906000526020600020905b8154815290600101906020018083116124c057829003601f168201915b5050505050905090565b60008073ffffffffffffffffffffffffffffffffffffffff168273ffffffffffffffffffffffffffffffffffffffff161415612558576040517f08c379a000000000000000000000000000000000000000000000000000000000815260040161254f906158ac565b60405180910390fd5b61259f600160008473ffffffffffffffffffffffffffffffffffffffff1673ffffffffffffffffffffffffffffffffffffffff168152602001908152602001600020613908565b9050919050565b60003373ffffffffffffffffffffffffffffffffffffffff16600d60003373ffffffffffffffffffffffffffffffffffffffff1673ffffffffffffffffffffffffffffffffffffffff16815260200190815260200160002060000160009054906101000a900473ffffffffffffffffffffffffffffffffffffffff1673ffffffffffffffffffffffffffffffffffffffff1614612678576040517f08c379a000000000000000000000000000000000000000000000000000000000815260040161266f906157cc565b60405180910390fd5b61268182613246565b6126c0576040517f08c379a00000000000000000000000000000000000000000000000000000000081526004016126b7906157ac565b60405180910390fd5b6001600d6000600e600086815260200190815260200160002060009054906101000a900473ffffffffffffffffffffffffffffffffffffffff1673ffffffffffffffffffffffffffffffffffffffff1673ffffffffffffffffffffffffffffffffffffffff16815260200190815260200160002060090160006101000a81548160ff0219169083151502179055507f8032abbce3e20f1f71d7656e10fa55d5ace8775b4f3137443a3ead7afa41f99d600160405161277e919061570f565b60405180910390a160019050919050565b606060078054600181600116156101000203166002900480601f0160208091040260200160405190810160405280929190818152602001828054600181600116156101000203166002900480156128275780601f106127fc57610100808354040283529160200191612827565b820191906000526020600020905b81548152906001019060200180831161280a57829003601f168201915b5050505050905090565b612839613263565b73ffffffffffffffffffffffffffffffffffffffff168273ffffffffffffffffffffffffffffffffffffffff1614156128a7576040517f08c379a000000000000000000000000000000000000000000000000000000000815260040161289e9061580c565b60405180910390fd5b80600560006128b4613263565b73ffffffffffffffffffffffffffffffffffffffff1673ffffffffffffffffffffffffffffffffffffffff16815260200190815260200160002060008473ffffffffffffffffffffffffffffffffffffffff1673ffffffffffffffffffffffffffffffffffffffff16815260200190815260200160002060006101000a81548160ff0219169083151502179055508173ffffffffffffffffffffffffffffffffffffffff16612961613263565b73ffffffffffffffffffffffffffffffffffffffff167f17307eab39ab6107e8899845ad3d59bd9653f200f220920489ca2b5937696c31836040516129a6919061570f565b60405180910390a35050565b600c6020528060005260406000206000915090508060000160009054906101000a900473ffffffffffffffffffffffffffffffffffffffff1690806001015490806002018054600181600116156101000203166002900480601f016020809104026020016040519081016040528092919081815260200182805460018160011615610100020316600290048015612a8a5780601f10612a5f57610100808354040283529160200191612a8a565b820191906000526020600020905b815481529060010190602001808311612a6d57829003601f168201915b505050505090806003018054600181600116156101000203166002900480601f016020809104026020016040519081016040528092919081815260200182805460018160011615610100020316600290048015612b285780601f10612afd57610100808354040283529160200191612b28565b820191906000526020600020905b815481529060010190602001808311612b0b57829003601f168201915b505050505090806004015490806005018054600181600116156101000203166002900480601f016020809104026020016040519081016040528092919081815260200182805460018160011615610100020316600290048015612bcc5780601f10612ba157610100808354040283529160200191612bcc565b820191906000526020600020905b815481529060010190602001808311612baf57829003601f168201915b505050505090806006018054600181600116156101000203166002900480601f016020809104026020016040519081016040528092919081815260200182805460018160011615610100020316600290048015612c6a5780601f10612c3f57610100808354040283529160200191612c6a565b820191906000526020600020905b815481529060010190602001808311612c4d57829003601f168201915b505050505090806007015490806008018054600181600116156101000203166002900480601f016020809104026020016040519081016040528092919081815260200182805460018160011615610100020316600290048015612d0e5780601f10612ce357610100808354040283529160200191612d0e565b820191906000526020600020905b815481529060010190602001808311612cf157829003601f168201915b5050505050908060090160009054906101000a900460ff1690508a565b612d3c612d36613263565b83613339565b612d7b576040517f08c379a0000000000000000000000000000000000000000000000000000000008152600401612d7290615a2c565b60405180910390fd5b612d878484848461391d565b50505050565b6060612d9882613246565b612dd7576040517f08c379a0000000000000000000000000000000000000000000000000000000008152600401612dce906159cc565b60405180910390fd5b6060600860008481526020019081526020016000208054600181600116156101000203166002900480601f016020809104026020016040519081016040528092919081815260200182805460018160011615610100020316600290048015612e805780601f10612e5557610100808354040283529160200191612e80565b820191906000526020600020905b815481529060010190602001808311612e6357829003601f168201915b50505050509050600060098054600181600116156101000203166002900490501415612eaf5780915050612f13565b600081511115612ee457600981604051602001612ecd9291906154e4565b604051602081830303815290604052915050612f13565b6009612eef84613979565b604051602001612f009291906154e4565b6040516020818303038152906040529150505b919050565b60106020528060005260406000206000915054906101000a900460ff1681565b6000600560008473ffffffffffffffffffffffffffffffffffffffff1673ffffffffffffffffffffffffffffffffffffffff16815260200190815260200160002060008373ffffffffffffffffffffffffffffffffffffffff1673ffffffffffffffffffffffffffffffffffffffff16815260200190815260200160002060009054906101000a900460ff16905092915050565b60003373ffffffffffffffffffffffffffffffffffffffff16600d60003373ffffffffffffffffffffffffffffffffffffffff1673ffffffffffffffffffffffffffffffffffffffff16815260200190815260200160002060000160009054906101000a900473ffffffffffffffffffffffffffffffffffffffff1673ffffffffffffffffffffffffffffffffffffffff161461309e576040517f08c379a0000000000000000000000000000000000000000000000000000000008152600401613095906157cc565b60405180910390fd5b6130a783613246565b6130e6576040517f08c379a00000000000000000000000000000000000000000000000000000000081526004016130dd906157ac565b60405180910390fd5b8173ffffffffffffffffffffffffffffffffffffffff166011600085815260200190815260200160002060008473ffffffffffffffffffffffffffffffffffffffff1673ffffffffffffffffffffffffffffffffffffffff16815260200190815260200160002060010160009054906101000a900473ffffffffffffffffffffffffffffffffffffffff1673ffffffffffffffffffffffffffffffffffffffff16146131c7576040517f08c379a00000000000000000000000000000000000000000000000000000000081526004016131be9061590c565b60405180910390fd5b60026011600085815260200190815260200160002060008473ffffffffffffffffffffffffffffffffffffffff1673ffffffffffffffffffffffffffffffffffffffff16815260200190815260200160002060030160006101000a81548160ff0219169083600281111561323757fe5b02179055506001905092915050565b600061325c826002613aa990919063ffffffff16565b9050919050565b600033905090565b816004600083815260200190815260200160002060006101000a81548173ffffffffffffffffffffffffffffffffffffffff021916908373ffffffffffffffffffffffffffffffffffffffff160217905550808273ffffffffffffffffffffffffffffffffffffffff166132de8361240e565b73ffffffffffffffffffffffffffffffffffffffff167f8c5be1e5ebec7d5bd14f71427d1e84f3dd0314c0f7b2291e5b200ac8c7c3b92560405160405180910390a45050565b600061333282600001613ac3565b9050919050565b600061334482613246565b613383576040517f08c379a000000000000000000000000000000000000000000000000000000000815260040161337a9061586c565b60405180910390fd5b600061338e8361240e565b90508073ffffffffffffffffffffffffffffffffffffffff168473ffffffffffffffffffffffffffffffffffffffff1614806133fd57508373ffffffffffffffffffffffffffffffffffffffff166133e5846109e0565b73ffffffffffffffffffffffffffffffffffffffff16145b8061340e575061340d8185612f38565b5b91505092915050565b8273ffffffffffffffffffffffffffffffffffffffff166134378261240e565b73ffffffffffffffffffffffffffffffffffffffff161461348d576040517f08c379a00000000000000000000000000000000000000000000000000000000081526004016134849061598c565b60405180910390fd5b600073ffffffffffffffffffffffffffffffffffffffff168273ffffffffffffffffffffffffffffffffffffffff1614156134fd576040517f08c379a00000000000000000000000000000000000000000000000000000000081526004016134f4906157ec565b60405180910390fd5b613508838383613ad4565b61351360008261326b565b61356481600160008673ffffffffffffffffffffffffffffffffffffffff1673ffffffffffffffffffffffffffffffffffffffff168152602001908152602001600020613ad990919063ffffffff16565b506135b681600160008573ffffffffffffffffffffffffffffffffffffffff1673ffffffffffffffffffffffffffffffffffffffff168152602001908152602001600020613af390919063ffffffff16565b506135cd81836002613b0d9092919063ffffffff16565b50808273ffffffffffffffffffffffffffffffffffffffff168473ffffffffffffffffffffffffffffffffffffffff167fddf252ad1be2c89b69c2b068fc378daa952ba7f163c4a11628f55a4df523b3ef60405160405180910390a4505050565b6000808314156136415760009050613698565b600082840290508284828161365257fe5b0414613693576040517f08c379a000000000000000000000000000000000000000000000000000000000815260040161368a9061592c565b60405180910390fd5b809150505b92915050565b60006136ad8360000183613b42565b60001c905092915050565b600073ffffffffffffffffffffffffffffffffffffffff168273ffffffffffffffffffffffffffffffffffffffff161415613728576040517f08c379a000000000000000000000000000000000000000000000000000000000815260040161371f906158ec565b60405180910390fd5b61373181613246565b15613771576040517f08c379a00000000000000000000000000000000000000000000000000000000081526004016137689061578c565b60405180910390fd5b61377d60008383613ad4565b6137ce81600160008573ffffffffffffffffffffffffffffffffffffffff1673ffffffffffffffffffffffffffffffffffffffff168152602001908152602001600020613af390919063ffffffff16565b506137e581836002613b0d9092919063ffffffff16565b50808273ffffffffffffffffffffffffffffffffffffffff16600073ffffffffffffffffffffffffffffffffffffffff167fddf252ad1be2c89b69c2b068fc378daa952ba7f163c4a11628f55a4df523b3ef60405160405180910390a45050565b61384f82613246565b61388e576040517f08c379a00000000000000000000000000000000000000000000000000000000081526004016138859061596c565b60405180910390fd5b806008600084815260200190815260200160002090805190602001906138b592919061433b565b505050565b6000806000806138cd8660000186613baf565b915091508160001c8160001c8090509350935050509250929050565b60006138fc846000018460001b84613c32565b60001c90509392505050565b600061391682600001613cc3565b9050919050565b613928848484613417565b61393484848484613cd4565b613973576040517f08c379a000000000000000000000000000000000000000000000000000000000815260040161396a9061576c565b60405180910390fd5b50505050565b606060008214156139c1576040518060400160405280600181526020017f30000000000000000000000000000000000000000000000000000000000000008152509050613aa4565b600082905060005b600082146139eb578080600101915050600a82816139e357fe5b0491506139c9565b6060816040519080825280601f01601f191660200182016040528015613a205781602001600182028038833980820191505090505b50905060006001830390508593505b60008414613a9c57600a8481613a4157fe5b0660300160f81b82828060019003935081518110613a5b57fe5b60200101907effffffffffffffffffffffffffffffffffffffffffffffffffffffffffffff1916908160001a905350600a8481613a9457fe5b049350613a2f565b819450505050505b919050565b6000613abb836000018360001b613e38565b905092915050565b600081600001805490509050919050565b505050565b6000613aeb836000018360001b613e5b565b905092915050565b6000613b05836000018360001b613f43565b905092915050565b6000613b39846000018460001b8473ffffffffffffffffffffffffffffffffffffffff1660001b613fb3565b90509392505050565b600081836000018054905011613b8d576040517f08c379a0000000000000000000000000000000000000000000000000000000008152600401613b849061574c565b60405180910390fd5b826000018281548110613b9c57fe5b9060005260206000200154905092915050565b60008082846000018054905011613bfb576040517f08c379a0000000000000000000000000000000000000000000000000000000008152600401613bf2906158cc565b60405180910390fd5b6000846000018481548110613c0c57fe5b906000526020600020906002020190508060000154816001015492509250509250929050565b60008084600101600085815260200190815260200160002054905060008114158390613c94576040517f08c379a0000000000000000000000000000000000000000000000000000000008152600401613c8b919061572a565b60405180910390fd5b50846000016001820381548110613ca757fe5b9060005260206000209060020201600101549150509392505050565b600081600001805490509050919050565b6000613cf58473ffffffffffffffffffffffffffffffffffffffff1661408f565b613d025760019050613e30565b6060613dc963150b7a0260e01b613d17613263565b888787604051602401613d2d9493929190615523565b604051602081830303815290604052907bffffffffffffffffffffffffffffffffffffffffffffffffffffffff19166020820180517bffffffffffffffffffffffffffffffffffffffffffffffffffffffff8381831617835250505050604051806060016040528060328152602001615df7603291398773ffffffffffffffffffffffffffffffffffffffff166140a29092919063ffffffff16565b9050600081806020019051613de191908101906146c1565b905063150b7a0260e01b7bffffffffffffffffffffffffffffffffffffffffffffffffffffffff1916817bffffffffffffffffffffffffffffffffffffffffffffffffffffffff191614925050505b949350505050565b600080836001016000848152602001908152602001600020541415905092915050565b60008083600101600084815260200190815260200160002054905060008114613f375760006001820390506000600186600001805490500390506000866000018281548110613ea657fe5b9060005260206000200154905080876000018481548110613ec357fe5b9060005260206000200181905550600183018760010160008381526020019081526020016000208190555086600001805480613efb57fe5b60019003818190600052602060002001600090559055866001016000878152602001908152602001600020600090556001945050505050613f3d565b60009150505b92915050565b6000613f4f83836140ba565b613fa8578260000182908060018154018082558091505060019003906000526020600020016000909190919091505582600001805490508360010160008481526020019081526020016000208190555060019050613fad565b600090505b92915050565b600080846001016000858152602001908152602001600020549050600081141561405a57846000016040518060400160405280868152602001858152509080600181540180825580915050600190039060005260206000209060020201600090919091909150600082015181600001556020820151816001015550508460000180549050856001016000868152602001908152602001600020819055506001915050614088565b8285600001600183038154811061406d57fe5b90600052602060002090600202016001018190555060009150505b9392505050565b600080823b905060008111915050919050565b60606140b184846000856140dd565b90509392505050565b600080836001016000848152602001908152602001600020541415905092915050565b60606140e88561408f565b614127576040517f08c379a000000000000000000000000000000000000000000000000000000000815260040161411e90615a4c565b60405180910390fd5b600060608673ffffffffffffffffffffffffffffffffffffffff16858760405161415191906154cd565b60006040518083038185875af1925050503d806000811461418e576040519150601f19603f3d011682016040523d82523d6000602084013e614193565b606091505b509150915081156141a85780925050506141f8565b6000815111156141bb5780518082602001fd5b836040517f08c379a00000000000000000000000000000000000000000000000000000000081526004016141ef919061572a565b60405180910390fd5b949350505050565b604051806101400160405280600073ffffffffffffffffffffffffffffffffffffffff16815260200160008152602001606081526020016060815260200160008152602001606081526020016060815260200160008152602001606081526020016000151581525090565b828054600181600116156101000203166002900490600052602060002090601f016020900481019282601f106142ac57805160ff19168380011785556142da565b828001600101855582156142da579182015b828111156142d95782518255916020019190600101906142be565b5b5090506142e791906143bb565b5090565b6040518060a0016040528060008152602001600073ffffffffffffffffffffffffffffffffffffffff168152602001600081526020016000600281111561432e57fe5b8152602001600081525090565b828054600181600116156101000203166002900490600052602060002090601f016020900481019282601f1061437c57805160ff19168380011785556143aa565b828001600101855582156143aa579182015b828111156143a957825182559160200191906001019061438e565b5b5090506143b791906143bb565b5090565b6143dd91905b808211156143d95760008160009055506001016143c1565b5090565b90565b6000813590506143ef81615d9a565b92915050565b60008135905061440481615db1565b92915050565b60008135905061441981615dc8565b92915050565b60008151905061442e81615dc8565b92915050565b600082601f83011261444557600080fd5b813561445861445382615b5a565b615b2d565b9150808252602083016020830185838301111561447457600080fd5b61447f838284615d3a565b50505092915050565b600082601f83011261449957600080fd5b81356144ac6144a782615b86565b615b2d565b915080825260208301602083018583830111156144c857600080fd5b6144d3838284615d3a565b50505092915050565b6000813590506144eb81615ddf565b92915050565b60006020828403121561450357600080fd5b6000614511848285016143e0565b91505092915050565b6000806040838503121561452d57600080fd5b600061453b858286016143e0565b925050602061454c858286016143e0565b9150509250929050565b60008060006060848603121561456b57600080fd5b6000614579868287016143e0565b935050602061458a868287016143e0565b925050604061459b868287016144dc565b9150509250925092565b600080600080608085870312156145bb57600080fd5b60006145c9878288016143e0565b94505060206145da878288016143e0565b93505060406145eb878288016144dc565b925050606085013567ffffffffffffffff81111561460857600080fd5b61461487828801614434565b91505092959194509250565b6000806040838503121561463357600080fd5b6000614641858286016143e0565b9250506020614652858286016143f5565b9150509250929050565b6000806040838503121561466f57600080fd5b600061467d858286016143e0565b925050602061468e858286016144dc565b9150509250929050565b6000602082840312156146aa57600080fd5b60006146b88482850161440a565b91505092915050565b6000602082840312156146d357600080fd5b60006146e18482850161441f565b91505092915050565b60008060008060008060008060006101208a8c03121561470957600080fd5b60008a013567ffffffffffffffff81111561472357600080fd5b61472f8c828d01614488565b99505060208a013567ffffffffffffffff81111561474c57600080fd5b6147588c828d01614488565b98505060406147698c828d016144dc565b97505060608a013567ffffffffffffffff81111561478657600080fd5b6147928c828d01614488565b96505060806147a38c828d016144dc565b95505060a08a013567ffffffffffffffff8111156147c057600080fd5b6147cc8c828d01614488565b94505060c08a013567ffffffffffffffff8111156147e957600080fd5b6147f58c828d01614488565b93505060e06148068c828d016143f5565b9250506101008a013567ffffffffffffffff81111561482457600080fd5b6148308c828d01614488565b9150509295985092959850929598565b60006020828403121561485257600080fd5b6000614860848285016144dc565b91505092915050565b6000806040838503121561487c57600080fd5b600061488a858286016144dc565b925050602061489b858286016143e0565b9150509250929050565b600080604083850312156148b857600080fd5b60006148c6858286016144dc565b92505060206148d7858286016144dc565b9150509250929050565b60006148ed8383615447565b60a08301905092915050565b61490281615cf2565b82525050565b61491181615c6b565b82525050565b61492081615c59565b82525050565b61492f81615c59565b82525050565b600061494082615bd7565b61494a8185615c10565b935061495583615bb2565b8060005b8381101561498657815161496d88826148e1565b975061497883615c03565b925050600181019050614959565b5085935050505092915050565b61499c81615c7d565b82525050565b60006149ad82615be2565b6149b78185615c21565b93506149c7818560208601615d49565b6149d081615d7c565b840191505092915050565b60006149e682615be2565b6149f08185615c32565b9350614a00818560208601615d49565b80840191505092915050565b614a1581615d04565b82525050565b614a2481615d04565b82525050565b6000614a3582615bf8565b614a3f8185615c3d565b9350614a4f818560208601615d49565b614a5881615d7c565b840191505092915050565b6000614a6e82615bf8565b614a788185615c4e565b9350614a88818560208601615d49565b80840191505092915050565b6000614a9f82615bed565b614aa98185615c3d565b9350614ab9818560208601615d49565b614ac281615d7c565b840191505092915050565b600081546001811660008114614aea5760018114614b0f57614b53565b607f6002830416614afb8187615c4e565b955060ff1983168652808601935050614b53565b60028204614b1d8187615c4e565b9550614b2885615bc2565b60005b82811015614b4a57815481890152600182019150602081019050614b2b565b82880195505050505b505092915050565b6000614b68602283615c3d565b91507f456e756d657261626c655365743a20696e646578206f7574206f6620626f756e60008301527f64730000000000000000000000000000000000000000000000000000000000006020830152604082019050919050565b6000614bce603283615c3d565b91507f4552433732313a207472616e7366657220746f206e6f6e20455243373231526560008301527f63656976657220696d706c656d656e74657200000000000000000000000000006020830152604082019050919050565b6000614c34601c83615c3d565b91507f4552433732313a20746f6b656e20616c7265616479206d696e746564000000006000830152602082019050919050565b6000614c74602683615c3d565b91507f4572726f723a20494e56414c49442050726f7065727479206964206f7220746f60008301527f6b656e20696400000000000000000000000000000000000000000000000000006020830152604082019050919050565b6000614cda602383615c3d565b91507f4572726f723a204f6e6c792050726f7065727479204f776e65722072756e207460008301527f68697300000000000000000000000000000000000000000000000000000000006020830152604082019050919050565b6000614d40602483615c3d565b91507f4552433732313a207472616e7366657220746f20746865207a65726f2061646460008301527f72657373000000000000000000000000000000000000000000000000000000006020830152604082019050919050565b6000614da6601983615c3d565b91507f4552433732313a20617070726f766520746f2063616c6c6572000000000000006000830152602082019050919050565b6000614de6603883615c3d565b91507f4572726f723a20536f7272792c2050726963696e67206f662070726f7065727460008301527f79206e6f74206d6174636865642077697468206f6666657200000000000000006020830152604082019050919050565b6000614e4c603e83615c3d565b91507f4572726f723a20546869732050726f7065727479206e6f7420666f722073616c60008301527f6520284f666665722072657175657374206e6f7420617070726f7665642900006020830152604082019050919050565b6000614eb2602c83615c3d565b91507f4552433732313a206f70657261746f7220717565727920666f72206e6f6e657860008301527f697374656e7420746f6b656e00000000000000000000000000000000000000006020830152604082019050919050565b6000614f18603883615c3d565b91507f4552433732313a20617070726f76652063616c6c6572206973206e6f74206f7760008301527f6e6572206e6f7220617070726f76656420666f7220616c6c00000000000000006020830152604082019050919050565b6000614f7e602a83615c3d565b91507f4552433732313a2062616c616e636520717565727920666f7220746865207a6560008301527f726f2061646472657373000000000000000000000000000000000000000000006020830152604082019050919050565b6000614fe4602283615c3d565b91507f456e756d657261626c654d61703a20696e646578206f7574206f6620626f756e60008301527f64730000000000000000000000000000000000000000000000000000000000006020830152604082019050919050565b600061504a602083615c3d565b91507f4552433732313a206d696e7420746f20746865207a65726f20616464726573736000830152602082019050919050565b600061508a601d83615c3d565b91507f4572726f723a20494e56414c49442062757965722061646472657373200000006000830152602082019050919050565b60006150ca602183615c3d565b91507f536166654d6174683a206d756c7469706c69636174696f6e206f766572666c6f60008301527f77000000000000000000000000000000000000000000000000000000000000006020830152604082019050919050565b6000615130602c83615c3d565b91507f4552433732313a20617070726f76656420717565727920666f72206e6f6e657860008301527f697374656e7420746f6b656e00000000000000000000000000000000000000006020830152604082019050919050565b6000615196602c83615c3d565b91507f4552433732314d657461646174613a2055524920736574206f66206e6f6e657860008301527f697374656e7420746f6b656e00000000000000000000000000000000000000006020830152604082019050919050565b60006151fc602983615c3d565b91507f4552433732313a207472616e73666572206f6620746f6b656e2074686174206960008301527f73206e6f74206f776e00000000000000000000000000000000000000000000006020830152604082019050919050565b6000615262601d83615c3d565b91507f4572726f723a204574686572287329206e6f742070726f7669646564200000006000830152602082019050919050565b60006152a2602f83615c3d565b91507f4552433732314d657461646174613a2055524920717565727920666f72206e6f60008301527f6e6578697374656e7420746f6b656e00000000000000000000000000000000006020830152604082019050919050565b6000615308602183615c3d565b91507f4552433732313a20617070726f76616c20746f2063757272656e74206f776e6560008301527f72000000000000000000000000000000000000000000000000000000000000006020830152604082019050919050565b600061536e601f83615c3d565b91507f4572726f723a546869732050726f7065727479206e6f74206f6e2053616c65006000830152602082019050919050565b60006153ae603183615c3d565b91507f4552433732313a207472616e736665722063616c6c6572206973206e6f74206f60008301527f776e6572206e6f7220617070726f7665640000000000000000000000000000006020830152604082019050919050565b6000615414601d83615c3d565b91507f416464726573733a2063616c6c20746f206e6f6e2d636f6e74726163740000006000830152602082019050919050565b60a08201600082015161545d60008501826154af565b5060208201516154706020850182614917565b50604082015161548360408501826154af565b5060608201516154966060850182614a0c565b5060808201516154a960808501826154af565b50505050565b6154b881615ce8565b82525050565b6154c781615ce8565b82525050565b60006154d982846149db565b915081905092915050565b60006154f08285614acd565b91506154fc8284614a63565b91508190509392505050565b600060208201905061551d6000830184614926565b92915050565b60006080820190506155386000830187614908565b6155456020830186614926565b61555260408301856154be565b818103606083015261556481846149a2565b905095945050505050565b600061014082019050615585600083018d6148f9565b615592602083018c6154be565b81810360408301526155a4818b614a2a565b905081810360608301526155b8818a614a2a565b90506155c760808301896154be565b81810360a08301526155d98188614a2a565b905081810360c08301526155ed8187614a2a565b90506155fc60e08301866154be565b81810361010083015261560f8185614a2a565b905061561f610120830184614993565b9b9a5050505050505050505050565b600061014082019050615644600083018d614908565b615651602083018c6154be565b8181036040830152615663818b614a94565b90508181036060830152615677818a614a94565b905061568660808301896154be565b81810360a08301526156988188614a94565b905081810360c08301526156ac8187614a94565b90506156bb60e08301866154be565b8181036101008301526156ce8185614a94565b90506156de610120830184614993565b9b9a5050505050505050505050565b600060208201905081810360008301526157078184614935565b905092915050565b60006020820190506157246000830184614993565b92915050565b600060208201905081810360008301526157448184614a2a565b905092915050565b6000602082019050818103600083015261576581614b5b565b9050919050565b6000602082019050818103600083015261578581614bc1565b9050919050565b600060208201905081810360008301526157a581614c27565b9050919050565b600060208201905081810360008301526157c581614c67565b9050919050565b600060208201905081810360008301526157e581614ccd565b9050919050565b6000602082019050818103600083015261580581614d33565b9050919050565b6000602082019050818103600083015261582581614d99565b9050919050565b6000602082019050818103600083015261584581614dd9565b9050919050565b6000602082019050818103600083015261586581614e3f565b9050919050565b6000602082019050818103600083015261588581614ea5565b9050919050565b600060208201905081810360008301526158a581614f0b565b9050919050565b600060208201905081810360008301526158c581614f71565b9050919050565b600060208201905081810360008301526158e581614fd7565b9050919050565b600060208201905081810360008301526159058161503d565b9050919050565b600060208201905081810360008301526159258161507d565b9050919050565b60006020820190508181036000830152615945816150bd565b9050919050565b6000602082019050818103600083015261596581615123565b9050919050565b6000602082019050818103600083015261598581615189565b9050919050565b600060208201905081810360008301526159a5816151ef565b9050919050565b600060208201905081810360008301526159c581615255565b9050919050565b600060208201905081810360008301526159e581615295565b9050919050565b60006020820190508181036000830152615a05816152fb565b9050919050565b60006020820190508181036000830152615a2581615361565b9050919050565b60006020820190508181036000830152615a45816153a1565b9050919050565b60006020820190508181036000830152615a6581615407565b9050919050565b6000602082019050615a8160008301846154be565b92915050565b600060a082019050615a9c60008301886154be565b615aa960208301876148f9565b615ab660408301866154be565b615ac36060830185614a1b565b615ad060808301846154be565b9695505050505050565b600060a082019050615aef60008301886154be565b615afc6020830187614926565b615b0960408301866154be565b615b166060830185614a1b565b615b2360808301846154be565b9695505050505050565b6000604051905081810181811067ffffffffffffffff82111715615b5057600080fd5b8060405250919050565b600067ffffffffffffffff821115615b7157600080fd5b601f19601f8301169050602081019050919050565b600067ffffffffffffffff821115615b9d57600080fd5b601f19601f8301169050602081019050919050565b6000819050602082019050919050565b60008190508160005260206000209050919050565b600081519050919050565b600081519050919050565b600081519050919050565b600081519050919050565b6000602082019050919050565b600082825260208201905092915050565b600082825260208201905092915050565b600081905092915050565b600082825260208201905092915050565b600081905092915050565b6000615c6482615cc8565b9050919050565b6000615c7682615cc8565b9050919050565b60008115159050919050565b60007fffffffff0000000000000000000000000000000000000000000000000000000082169050919050565b6000819050615cc382615d8d565b919050565b600073ffffffffffffffffffffffffffffffffffffffff82169050919050565b6000819050919050565b6000615cfd82615d16565b9050919050565b6000615d0f82615cb5565b9050919050565b6000615d2182615d28565b9050919050565b6000615d3382615cc8565b9050919050565b82818337600083830152505050565b60005b83811015615d67578082015181840152602081019050615d4c565b83811115615d76576000848401525b50505050565b6000601f19601f8301169050919050565b60038110615d9757fe5b50565b615da381615c59565b8114615dae57600080fd5b50565b615dba81615c7d565b8114615dc557600080fd5b50565b615dd181615c89565b8114615ddc57600080fd5b50565b615de881615ce8565b8114615df357600080fd5b5056fe4552433732313a207472616e7366657220746f206e6f6e20455243373231526563656976657220696d706c656d656e7465724552433732313a206f776e657220717565727920666f72206e6f6e6578697374656e7420746f6b656ea264697066735822122070b922d40babfc2f0cc16f79ef02abc5047bbfb0f1da4efccafac8f56e12acb564736f6c63430006020033",
  "source": "pragma solidity ^0.6.0;\r\npragma experimental ABIEncoderV2;\r\n\r\nimport \"@openzeppelin/contracts/token/ERC721/ERC721.sol\";\r\n\r\ncontract SmartEstate is ERC721 {\r\n   uint256 private buyerId;\r\n    uint256 public tokenId;\r\n   // address payable owner;\r\n    enum offerApproval {pending, approved, rejected}\r\n    event saleStatus(bool);\r\n\r\n    struct PropertyDetails {\r\n        address payable sellerAddress;\r\n        uint256 propertyId;\r\n        string propertyAddress;\r\n        string city;\r\n        uint256 room;\r\n        string area;\r\n        string propertyType;\r\n        uint256 price;\r\n        string image;\r\n        bool saleStatus;\r\n    }\r\n    \r\n    event property_detail(address useraddress,\r\n        uint256 propertyId ,\r\n        string propertyAddress,\r\n        string city,\r\n        uint256 room,\r\n        string area,\r\n        string propertyType,\r\n        uint256 price,\r\n        string image,\r\n        bool saleStatus);\r\n\r\n    struct BuyerInfo {\r\n        uint256 bId;\r\n        address buyerAddress;\r\n        uint256 buyerOffer;\r\n        offerApproval request;\r\n        uint256 ApplyForToken;\r\n    }\r\n\r\n    event buyer_Info(uint256 buyerId,\r\n    address buyerAddress,\r\n    uint256 buyerOffer,offerApproval request,\r\n    uint256 PropertyId_TokenId);\r\n    \r\n    modifier propertyOwner() {\r\n        require(\r\n            OnlyOwner[msg.sender].sellerAddress == msg.sender,\r\n            \"Error: Only Property Owner run this\"\r\n        );\r\n        _;\r\n    }\r\n    mapping(uint256 => PropertyDetails) public AllPropertyList;\r\n\r\n    mapping(address => PropertyDetails) public OnlyOwner;\r\n    mapping(uint256 => address) public PropertyList;\r\n\r\n   // mapping(address => BuyerInfo) public BuyerList;\r\n    mapping(uint256 => BuyerInfo[]) public AllBuyers;\r\n    mapping(uint256 => bool) public Offers;\r\n\r\n    // mapping(uint256 => BuyerInfo) public PropertyBuyerList;\r\n    mapping(uint256 => mapping(address => BuyerInfo)) public PropertyBuyerList;\r\n\r\n    constructor() public ERC721(\"Smart Estate Properties\", \"ESP\") {}\r\n\r\n    function RegisterProperty(\r\n        string memory _propertyAddress,\r\n        string memory _city,\r\n        uint256 _room,\r\n        string memory _area,\r\n        uint256 _priceInEther,\r\n        string memory _propertyType,\r\n        string memory _image,\r\n        bool _saleStatus,\r\n        string memory _tokenUri\r\n    ) public returns (bool) {\r\n        tokenId++;\r\n        uint256 thisId = tokenId;\r\n        _mint(msg.sender, thisId);\r\n        _setTokenURI(thisId, _tokenUri);\r\n\r\n        PropertyDetails memory tempDetails;\r\n\r\n        tempDetails = PropertyDetails({\r\n            sellerAddress: msg.sender,\r\n            propertyId: thisId,\r\n            propertyAddress: _propertyAddress,\r\n            city: _city,\r\n            room: _room,\r\n            area: _area,\r\n            propertyType: _propertyType,\r\n            price: _priceInEther,\r\n            image: _image,\r\n            saleStatus: _saleStatus\r\n        });\r\n        OnlyOwner[msg.sender] = tempDetails;\r\n        PropertyList[thisId] = msg.sender;\r\n        AllPropertyList[thisId] = tempDetails;\r\n        emit property_detail( msg.sender,\r\n            thisId,\r\n            _propertyAddress,\r\n            _city,_room, _area,\r\n            _propertyType,\r\n            _priceInEther,\r\n            _image,\r\n            true);\r\n        return true;\r\n    }\r\n\r\n    function EnablePropertySale(uint256 PropertyId_TokenId)\r\n        public\r\n        propertyOwner\r\n        returns (bool)\r\n    {\r\n        require(\r\n            _exists(PropertyId_TokenId),\r\n            \"Error: INVALID Property id or token id\"\r\n        );\r\n        OnlyOwner[PropertyList[PropertyId_TokenId]].saleStatus = true;\r\n        emit saleStatus(true);\r\n        return true;\r\n    }\r\n\r\n    function PropertyPricing(uint256 PropertyId_TokenId)view\r\n        public\r\n        propertyOwner\r\n        returns (uint256)\r\n    {\r\n        require(\r\n            _exists(PropertyId_TokenId),\r\n            \"Error: INVALID Property id or token id\"\r\n        );\r\n          \r\n        return OnlyOwner[PropertyList[PropertyId_TokenId]].price;\r\n    }\r\n\r\n    function BuyingRequest(uint256 PropertyId_TokenId, uint256 offerInEthers)\r\n        public\r\n        returns (bool)\r\n    {\r\n        require(\r\n            _exists(PropertyId_TokenId),\r\n            \"Error: INVALID Property id or token id\"\r\n        );\r\n        require(\r\n            OnlyOwner[PropertyList[PropertyId_TokenId]].saleStatus,\r\n            \"Error:This Property not on Sale\"\r\n        );\r\n\r\n        buyerId++;\r\n\r\n        BuyerInfo memory tempDetails;\r\n        tempDetails = BuyerInfo({\r\n            bId: buyerId,\r\n            buyerAddress: msg.sender,\r\n            buyerOffer: offerInEthers,\r\n            request: offerApproval.pending,\r\n            ApplyForToken: PropertyId_TokenId\r\n        });\r\n        AllBuyers[PropertyId_TokenId].push(tempDetails);\r\n       // BuyerList[msg.sender] = tempDetails;\r\n        PropertyBuyerList[PropertyId_TokenId][msg.sender] = tempDetails;\r\n        PropertyBuyerList[PropertyId_TokenId][msg.sender].request = offerApproval.pending;\r\n       // BuyerList[msg.sender].request = offerApproval.pending;\r\n        emit buyer_Info(buyerId, msg.sender,offerInEthers,offerApproval.pending,PropertyId_TokenId);\r\n        return true;\r\n    }\r\n\r\n    function OfferStatus(uint256 PropertyId_TokenId)\r\n        public\r\n        propertyOwner\r\n        returns (BuyerInfo[] memory)\r\n    {\r\n        require(\r\n            _exists(PropertyId_TokenId),\r\n            \"Error: INVALID Property id or token id\"\r\n        );\r\n        BuyerInfo[] memory tempDetails;\r\n        tempDetails = AllBuyers[PropertyId_TokenId];\r\n        return tempDetails;\r\n    }\r\n\r\n    function OfferReject(uint256 PropertyId_TokenId, address _buyerAddress)\r\n        public\r\n        propertyOwner\r\n        returns (bool)\r\n    {\r\n        require(\r\n            _exists(PropertyId_TokenId),\r\n            \"Error: INVALID Property id or token id\"\r\n        );\r\n        require(\r\n          //  BuyerList[_buyerAddress].buyerAddress == _buyerAddress,\r\n             PropertyBuyerList[PropertyId_TokenId][_buyerAddress].buyerAddress == _buyerAddress,\r\n            \"Error: INVALID buyer address \"\r\n        );\r\n       // BuyerList[_buyerAddress].request = offerApproval.rejected;\r\n        PropertyBuyerList[PropertyId_TokenId][_buyerAddress].request = offerApproval.rejected;\r\n        return true;\r\n    }\r\n\r\n    function OfferAccept(uint256 PropertyId_TokenId, address _buyerAddress)\r\n        public\r\n        propertyOwner\r\n        returns (bool)\r\n    {\r\n        require(\r\n            _exists(PropertyId_TokenId),\r\n            \"Error: INVALID Property id or token id\"\r\n        );\r\n        require(\r\n          //  BuyerList[_buyerAddress].buyerAddress == _buyerAddress,\r\n           PropertyBuyerList[PropertyId_TokenId][_buyerAddress].buyerAddress == _buyerAddress,\r\n            \"Error: INVALID buyer address \"\r\n        );\r\n       // BuyerList[_buyerAddress].request = offerApproval.approved;\r\n        PropertyBuyerList[PropertyId_TokenId][_buyerAddress].request = offerApproval.approved;\r\n        return true;\r\n    }\r\n\r\n    function BuyProperty(uint256 PropertyId_TokenId)\r\n        public\r\n        payable\r\n        returns (bool)\r\n    {\r\n        require(\r\n            _exists(PropertyId_TokenId),\r\n            \"Error: INVALID Property id or token id\"\r\n        );\r\n        require(\r\n           // BuyerList[msg.sender].buyerAddress == msg.sender,\r\n            PropertyBuyerList[PropertyId_TokenId][msg.sender].buyerAddress == msg.sender,\r\n            \"Error: INVALID buyer address \"\r\n        );\r\n        require(\r\n           // BuyerList[msg.sender].request == offerApproval.approved,\r\n            PropertyBuyerList[PropertyId_TokenId][msg.sender].request == offerApproval.approved,\r\n            \"Error: This Property not for sale (Offer request not approved)\"\r\n        );\r\n        require(msg.value > 0, \"Error: Ether(s) not provided \");\r\n     \r\n        uint256 PropertyPrice = PropertyBuyerList[PropertyId_TokenId][msg.sender].buyerOffer.mul(\r\n            1 * 10**18\r\n        );\r\n        require(\r\n            PropertyPrice == msg.value,\r\n            \"Error: Sorry, Pricing of property not matched with offer\"\r\n        );\r\n        address BuyerAddress = OnlyOwner[PropertyList[PropertyId_TokenId]].sellerAddress;\r\n         _transfer(BuyerAddress, msg.sender, PropertyId_TokenId);\r\n        address payable owner = OnlyOwner[PropertyList[PropertyId_TokenId]].sellerAddress;\r\n        bool isFundSend =  owner.send(msg.value);\r\n         OnlyOwner[PropertyList[PropertyId_TokenId]].saleStatus = false;\r\n        return isFundSend;\r\n    }\r\n}\r\n",
  "sourcePath": "F:/BlockChain FYP/Project Defense/web3/git_push/git/SmartEstate-Ownership/src/contracts/SmartEstate.sol",
  "compiler": {
    "name": "solc",
    "version": "0.6.2+commit.bacdbe57.Emscripten.clang"
  },
  "schemaVersion": "3.3.2",
  "updatedAt": "2021-02-19T11:57:57.813Z",
  "networkType": "ethereum",
  "devdoc": {
    "methods": {
      "approve(address,uint256)": {
        "details": "See {IERC721-approve}."
      },
      "balanceOf(address)": {
        "details": "See {IERC721-balanceOf}."
      },
      "baseURI()": {
        "details": "Returns the base URI set via {_setBaseURI}. This will be automatically added as a prefix in {tokenURI} to each token's URI, or to the token ID if no specific URI is set for that token ID."
      },
      "getApproved(uint256)": {
        "details": "See {IERC721-getApproved}."
      },
      "isApprovedForAll(address,address)": {
        "details": "See {IERC721-isApprovedForAll}."
      },
      "name()": {
        "details": "See {IERC721Metadata-name}."
      },
      "ownerOf(uint256)": {
        "details": "See {IERC721-ownerOf}."
      },
      "safeTransferFrom(address,address,uint256)": {
        "details": "See {IERC721-safeTransferFrom}."
      },
      "safeTransferFrom(address,address,uint256,bytes)": {
        "details": "See {IERC721-safeTransferFrom}."
      },
      "setApprovalForAll(address,bool)": {
        "details": "See {IERC721-setApprovalForAll}."
      },
      "supportsInterface(bytes4)": {
        "details": "See {IERC165-supportsInterface}.     * Time complexity O(1), guaranteed to always use less than 30 000 gas."
      },
      "symbol()": {
        "details": "See {IERC721Metadata-symbol}."
      },
      "tokenByIndex(uint256)": {
        "details": "See {IERC721Enumerable-tokenByIndex}."
      },
      "tokenOfOwnerByIndex(address,uint256)": {
        "details": "See {IERC721Enumerable-tokenOfOwnerByIndex}."
      },
      "tokenURI(uint256)": {
        "details": "See {IERC721Metadata-tokenURI}."
      },
      "totalSupply()": {
        "details": "See {IERC721Enumerable-totalSupply}."
      },
      "transferFrom(address,address,uint256)": {
        "details": "See {IERC721-transferFrom}."
      }
    }
  },
  "userdoc": {
    "methods": {}
  }
}